:020000040800F2
:1000000000000220098400083D8400083D840008A7
:100010003D8400083D8400083D8400080000000085
:100020000000000000000000000000006D42000819
:100030003D8400080000000003430008134300084B
:100040003D8400083D8400083D8400083D8400088C
:100050003D8400083D8400083D8400083D8400087C
:100060003D8400083D8400083D8400083D8400086C
:100070003D8400083D8400083D8400083D8400085C
:100080003D8400083D8400083D84000899B70008BD
:1000900085B700083D840008ADB700083D8400081E
:1000A0003D8400083D8400083D8400083D8400082C
:1000B0003D8400083D8400083D8400083D8400081C
:1000C0003D8400083D8400083D8400083D8400080C
:1000D0003D8400083D8400083D8400083D840008FC
:1000E0003D8400083D8400083D8400083D840008EC
:1000F0003D8400083D8400083D8400083D840008DC
:100100003D8400083D8400083D8400083D840008CB
:100110003D8400083D8400083D8400083D840008BB
:100120003D8400083D8400083D8400083D840008AB
:100130003D8400080000000000000000D5B7000862
:10014000C1B700083D840008E9B700083D840008F5
:100150003D8400083D8400083D8400083D8400087B
:100160003D8400083D8400083D8400083D8400086B
:100170003D8400083D8400083D8400080000000024
:10018000000000003D8400080000000000000000A6
:100190003D84000800000000000000003D840008CD
:1001A0000000000000000000000000003D84000886
:1001B0003D8400083D8400083D8400083D8400081B
:1001C0003D84000810B5054C237833B9044B13B1B6
:1001D0000448AFF300800123237010BD500C0020B1
:1001E00000000000FC51010808B5034B1BB1034996
:1001F0000348AFF3008008BD00000000540C00204D
:10020000FC510108154B002B08BF134B9D46A3F56D
:10021000803A00218B460F461348144A121A0EF0FA
:10022000D5F80F4B002B00D098470E4B002B00D079
:1002300098470020002104000D000D48002802D03E
:100240000C4803F0BDFB0DF0F5FB2000290003F086
:1002500069FE03F0ABFB00BF0000080000000220B5
:1002600000000000E53F0008500C0020003800208E
:10027000C13900080000000082B001900091009B8D
:10028000002B05D0019B9B68019A12681A6005E05B
:10029000019B1A68019BDB6812041A6000BF02B060
:1002A000704782B00190019B5B681A68019B1B68D4
:1002B0001340002B01D0012300E00023184602B0B8
:1002C000704700B583B001900B46ADF80230019B3A
:1002D0001A460023136053609360D3601361536127
:1002E0009361019BBDF902201146184602F0DBF82C
:1002F000019B184603B05DF804FB00B583B0019084
:10030000019B1846FFF7CDFF0346184603B05DF882
:1003100004FB00B583B001900B468DF8033002F06A
:1003200075FE019B9DF80320114618460BF0BAFBA1
:1003300002F0B8FE00BF03B05DF804FB00B585B065
:1003400003900B460192ADF80A30039B1A46002336
:10035000136053609360D360136153619361039B97
:10036000BDF90A10019A184602F0D4F8039B18460A
:1003700005B05DF804FB00B583B001900091019BCE
:1003800000991846FFF778FF00BF03B05DF804FB43
:1003900010B58EB00590084611461A460346ADF8D2
:1003A00012300B46ADF810301346ADF80E30059BF9
:1003B0009DF850201146184601F0B4F83D4A059BBF
:1003C0001A60059B03F67450BDF90E40BDF910206C
:1003D000BDF912104FF0FF330093234601F088FD62
:1003E000059B03F56563BDF9401001221846FFF730
:1003F000A5FF059B03F66C63BDF944100122184666
:10040000FFF79CFF059B03F68863BDF94820114662
:100410001846FFF756FF059B2749184601F004F9D7
:10042000059B139AC3F8B02E059B03F67453002264
:100430000821184601F0B6FD059B03F674531F49C9
:10044000184601F0E3FD059B03F688630121184679
:10045000FFF75FFF07AB1C22002118460DF0B6FF27
:1004600006238DF8303000238DF83530144B099376
:100470000623ADF8323000230793124B0B930A2367
:100480008DF8293055238DF8343002238DF828302B
:100490003C238DF836300023089307AB19460598A6
:1004A00000F022F9059800F0B1F9059B18460EB04E
:1004B00010BD00BF4C3E0108A03B010840420F00A8
:1004C000400ECF1920A107002DE9104895B00190EA
:1004D00001238DF84F30019B4649184601F0A4F8DE
:1004E000019800F04FFA019800F0C6FA0346012B7C
:1004F0000CBF01230023DBB2002B01D0012374E0E9
:10050000019B0433184601F017F91290129B002B3F
:1005100069D0129B3B2B11D900238DF84F30019BE2
:10052000191D02AB3C22184601F0A7F9119002AB4D
:100530003C221946019800F0C9FA54E0019BD3F817
:10054000B43E002B09D1002003F082FA03460C468A
:100550001A46019BC3F8B42E45E0002003F078FA58
:100560000A460146019BD3F8B43E9B464FF0000C6F
:100570000B461446B3EB0B0364EB0C04019AD2F860
:10058000B02E11464FF00002994272EB0403B4BF43
:1005900001230023DBB2002B25D0019B0022C3F8EE
:1005A000B42E019B191D02AB3C22184601F065F9DF
:1005B0001190119B8DF84E309DF84E303B2B0CD88E
:1005C0009DF84E3014AA1344002203F8482C9DF8DD
:1005D0004E3001338DF84E30EEE702AB3C22194627
:1005E000019800F073FA9DF84F30184615B0BDE839
:1005F000108800BFAC3B010800B597B00390029192
:10060000019201238DF85330039B2549184601F0D0
:100610000BF8039800F0B6F9039800F02DFA0346A2
:10062000012B0CBF01230023DBB2002B01D00023E0
:1006300031E0019B1593159B002B2AD0159B3B2B7A
:1006400012D905AB3C22029918460DF0C1FD05AB4D
:100650003C221946039800F039FA159B3C3B159350
:10066000029B3C330293E6E705AB3C22002118468F
:100670000DF0ACFE05AB159A029918460DF0A8FDD9
:1006800005AB3C221946039800F020FA002315938D
:10069000D1E79DF85330184617B05DF804FB00BF52
:1006A000BC3B010800B583B00190019B0D49184681
:1006B00000F0BAFF019B03F66C6300211846FFF7B8
:1006C0005AFE0A2003F054FA019B03F66C630121E1
:1006D0001846FFF750FE0A2003F04AFA00BF03B0A5
:1006E0005DF804FBC83B010800B583B001900091A0
:1006F000019B3349184600F097FF019B002283F8C5
:10070000AD2E0198FFF7CEFF019800F03FFC009B53
:100710009B681946019800F07BFC00220E2101988D
:1007200000F065F900220F21019800F060F90C211A
:10073000019800F047F9034643F00303DBB21A4681
:100740000C21019800F053F9009B1B7B194601987E
:1007500000F030FC009B5B7B1946019800F0BCFC6C
:10076000009B1B7D1946019800F000FE009B1B6951
:100770001946019800F018FD009BDB8A1946019884
:1007800000F02EFE009B1B7E1946019800F062FED1
:10079000009B9B7E1946019800F0F8F9009B5B7E58
:1007A000002B03D0019800F06DFE02E0019800F0EC
:1007B0007DFE019800F0D6FB00BF03B05DF804FB9E
:1007C000D83B010800B585B00190019B0E49184641
:1007D00000F02AFF019800F04FF903468DF80F3022
:1007E0009DF80F30012B09D09DF80F30022B05D05A
:1007F0009DF80F30042B01D0012300E000231846A0
:1008000005B05DF804FB00BFE43B010800B583B010
:100810000190019800F0EAF90346184603B05DF82C
:1008200004FB00B587B003900B468DF80B301346E0
:100830008DF80A30039B93F8AD3EDBB2002B14BF5A
:1008400001230023DBB2002B01D0002336E0039B01
:10085000012283F8AD2E00238DF8143000238DF88B
:1008600015309DF80B308DF810309DF80A308DF85A
:100870001130039B03F5656300211846FFF77BFDEC
:100880000A2003F085F9039B03F6745005AA04A916
:10089000022300931346022201F029FC0A2003F0F0
:1008A00077F9039B03F5656301211846FFF763FDA4
:1008B000039B002283F8AD2E9DF81530184607B033
:1008C0005DF804FB10B5C6B005AC2060084603A96E
:1008D0000A6019460DF1130302461A700DF1120356
:1008E0000A461A7005AB1B6893F8AD3EDBB2002BCD
:1008F00014BF01230023DBB2002B40D105AB1B68E2
:10090000012283F8AD2E0DF113031B7863F07F03F2
:10091000DAB206AB1A700DF11203197803AB06AA0E
:10092000501C0A4619680DF053FC05AB1B6803F513
:10093000656300211846FFF71EFD0A2003F028F921
:1009400005AB1B6803F674500DF112031B785A1C9B
:1009500006A900230093002301F0C9FB0A2003F03D
:1009600017F905AB1B6803F5656301211846FFF70E
:1009700002FD05AB1B68002283F8AD2E00E000BF2E
:1009800046B010BD00B583B00190019B0C491846DC
:1009900000F04AFE019B03F688631846FFF7ADFCA2
:1009A0000346002B14BF01230023DBB2002B02D02F
:1009B000019800F0EFF900BF03B05DF804FB00BF41
:1009C000F43B010800B583B001900B468DF803306D
:1009D0009DF8033003F07F03DBB200221946019833
:1009E000FFF71FFF0346184603B05DF804FB00B590
:1009F00083B001900B468DF8033013468DF802301A
:100A00009DF8033063F07F03DBB29DF802201946A6
:100A10000198FFF706FF00BF03B05DF804FB00B5C7
:100A200085B001900B468DF8033013468DF80230E7
:100A3000019800F049F903468DF80F309DF80F300A
:100A4000802B02D0019800F0A1FA9DF802209DF8B9
:100A5000033019460198FFF7CAFF9DF80F30802B2D
:100A600006D09DF80F301A4601210198FFF7BFFF0D
:100A700000BF05B05DF804FB00B585B0019001989A
:100A800000F022F903468DF80F309DF80F30832BCC
:100A900001D1012316E09DF80F30852B03D09DF87E
:100AA0000F30862B01D102230CE09DF80F30812BF3
:100AB00001D1002306E09DF80F30802B01D10123E6
:100AC00000E00423184605B05DF804FB00B587B0CC
:100AD0000390029113468DF80730039B2A4918466C
:100AE00000F0A2FD0398FFF7C7FF03468DF817300B
:100AF0009DF81730012B03D09DF81730042B01D13E
:100B000000233DE0039800F02DFA40224021039895
:100B1000FFF76DFF00220D210398FFF768FF9DF896
:100B20000730029A00210398FFF7CCFE039B93F84D
:100B3000AC3E002B06D19DF807301A4622210398BF
:100B4000FFF755FF832201210398FFF750FF122181
:100B50000398FFF737FF034603F00803002B0CBF91
:100B600001230023DBB2002B00D0F0E70822122182
:100B70000398FFF73CFF00238DF817309DF80730EE
:100B8000184607B05DF804FB003C010800B583B0CF
:100B900001900B468DF80330019B0F49184600F079
:100BA00043FD9DF80330002B0AD0019800F0A6FC0D
:100BB0009DF803301A4622210198FFF718FF02E042
:100BC000019800F087FC019B9DF8032083F8AC2E70
:100BD00000BF03B05DF804FB143C010882B0019033
:100BE000019B93F8AC3E184602B0704700B583B045
:100BF0000190019B1C49184600F016FD0198FFF773
:100C0000E1FD0346002B0CBF01230023DBB2002BC8
:100C100001D0002323E0002240210198FFF7E7FEE6
:100C2000019800F051F80346852B14BF01230023DF
:100C3000DBB2002B12D00198FFF7D0FF03461A4613
:100C400022210198FFF7D3FE00220D210198FFF722
:100C5000CEFE852201210198FFF7C9FE0123184627
:100C600003B05DF804FB00BF2C3C010800B585B063
:100C70000190019B1349184600F0D6FC0198FFF73C
:100C8000FBFE03468DF80F309DF80F30012B03D08B
:100C90009DF80F30042B01D100230EE013210198A1
:100CA000FFF790FE03468DF80E30019BD3F8A83E67
:100CB000DBB29DF80E20D31ADBB2184605B05DF802
:100CC00004FB00BF7C3C010800B585B00190012108
:100CD0000198FFF777FE03468DF80F30019B93F8DC
:100CE0002430002B40D0019B2249184600F09CFC88
:100CF0009DF80F30032B1FD0032B04DC002B0FD0EB
:100D0000012B13D02AE0062B22D0802B02D0052BFA
:100D100018D023E0019B1849184600F085FC23E019
:100D2000019B1649184600F07FFC1DE0019B144909
:100D3000184600F079FC17E0019B1249184600F0B4
:100D400073FC11E0019B1049184600F06DFC0BE0AC
:100D5000019B0E49184600F067FC05E0019B0C4919
:100D6000184600F061FC00BF9DF80F30184605B032
:100D70005DF804FBA83C0108B83C0108C83C010828
:100D8000D43C0108E43C0108EC3C0108003D0108AA
:100D9000103D010800B585B00190019B1D49184622
:100DA00000F042FC0198FFF719FF03461A46222182
:100DB0000198FFF71CFE12210198FFF703FE03467E
:100DC0008DF80F309DF80F301A4612210198FFF769
:100DD0000EFE9DF80F3003F04003002B0DD09DF860
:100DE0000F3003F02003002B10D1019B0022C3F829
:100DF000A82E019800F010F808E09DF80F3003F0DD
:100E00000803002B02D0019800F024F800BF05B0C1
:100E10005DF804FB203D010800B593B00190019BF3
:100E20000B49184600F000FC02AB3C221946019821
:100E300000F05EF803461193019B03F11401119A2F
:100E400002AB184600F02DFD00BF13B05DF804FBA7
:100E5000383D010800B583B00190019B0B4918464D
:100E600000F0E2FB019B0433184600F065FC0346EA
:100E70003B2B94BF01230023DBB2002B02D001984F
:100E8000FFF7B4FE00BF03B05DF804FB4C3D010862
:100E900000B585B001900091019B1449184600F0FF
:100EA000C3FB0198FFF7E2FE0346002B0CBF0123B2
:100EB0000023DBB2002B01D0002312E0019BD3F80A
:100EC000A83E5A1C019BC3F8A82E00210198FFF7E9
:100ED00079FD03468DF80F30009B9DF80F201A70A6
:100EE0000123184605B05DF804FB00BF643D01080E
:100EF00000B587B0039002911346ADF80630002389
:100F0000ADF81630039B1649184600F08DFB0DF125
:100F1000150319460398FFF7BBFF0346012B0CBFCF
:100F200001230023DBB2002B13D0BDF81620BDF83F
:100F300006309A420CD0BDF81630029A13449DF840
:100F400015201A70BDF816300133ADF81630DEE703
:100F500000BFBDF81630184607B05DF804FB00BFAF
:100F6000703D010800B583B00190019B0649184609
:100F700000F05AFB812201210198FFF738FD00BFE4
:100F800003B05DF804FB00BF903D010800B583B0DD
:100F90000190019B0649184600F046FB8022012182
:100FA0000198FFF724FD00BF03B05DF804FB00BF0C
:100FB000903D010800B583B001900B468DF80330D9
:100FC000019B1249184600F02FFB9DF80330012BBE
:100FD00003D802238DF8033006E09DF80330112B6F
:100FE00002D911238DF803309DF80330023BDBB2A8
:100FF0005BB263F07F035BB2DBB21A460921019852
:10100000FFF70DFD00BF03B05DF804FBA03D010834
:1010100070B586B001900091019B009AC3F8A42E90
:10102000019B2B49184600F0FFFA009B4FF000048B
:101030005E0BDD04274A4FF000032846314612F0CC
:1010400023FC03460C46CDE904340198FFF73CFE2F
:1010500003468DF80F309DF80F30802B02D0019899
:10106000FFF794FFDDE904124FF000034FF0000496
:101070000B0C43EA0243140CDBB21A46062101981A
:10108000FFF7B5FCDDE904124FF000034FF0000458
:101090000B0A43EA0263140ADBB21A4607210198DD
:1010A000FFF7A5FC9DF810301A4608210198FFF7BC
:1010B0009EFC9DF80F30802B06D09DF80F301A460D
:1010C00001210198FFF793FC00BF06B070BD00BF7F
:1010D000B43D01080048E80100B585B001900B4619
:1010E0008DF80330019B2E49184600F09DFA9DF8BB
:1010F0000330052B03D806238DF8033006E09DF856
:1011000003300C2B02D90C238DF803300198FFF724
:10111000DBFD03468DF80F309DF80F30802B02D099
:101120000198FFF733FF9DF80330062B0AD1C52243
:1011300031210198FFF75BFC0C2237210198FFF762
:1011400056FC09E0C32231210198FFF750FC0A2226
:1011500037210198FFF74BFC1E210198FFF732FC65
:1011600003465BB203F00F035AB29DF803301B0134
:101170005BB213435BB2DBB21A461E210198FFF744
:1011800036FC9DF80F30802B06D09DF80F301A46A4
:1011900001210198FFF72BFC00BF05B05DF804FBAF
:1011A000C83D01080000000000B585B00190009125
:1011B000019B6D49184600F037FA009811F0C2FF04
:1011C00055A3D3E9002312F0B3FA0346002B03D052
:1011D00000238DF80F3085E0009811F0B3FF50A385
:1011E000D3E9002312F0A4FA0346002B03D0012315
:1011F0008DF80F3076E0009811F0A4FF4AA3D3E9F0
:10120000002312F095FA0346002B03D002238DF839
:101210000F3067E0009811F095FF45A3D3E9002354
:1012200012F086FA0346002B03D003238DF80F300B
:1012300058E0009811F086FF3FA3D3E9002312F095
:1012400077FA0346002B03D004238DF80F3049E0D2
:10125000009811F077FF3AA3D3E9002312F068FA5F
:101260000346002B03D005238DF80F303AE0009899
:1012700011F068FF34A3D3E9002312F059FA0346B2
:10128000002B03D006238DF80F302BE0009811F0CF
:1012900059FF2FA3D3E9002312F04AFA0346002B8B
:1012A00003D007238DF80F301CE0009811F04AFF9F
:1012B00029A3D3E9002312F03BFA0346002B03D005
:1012C00008238DF80F300DE0009811F03BFF24A3A8
:1012D000D3E9002312F02CFA0346002B02D0092395
:1012E0008DF80F301D210198FFF76CFB03465BB2B0
:1012F00003F00F035AB29DF80F301B015BB213438A
:101300005BB2DBB21A461D210198FFF788FB00BFD4
:1013100005B05DF804FB00BF000000000078BE408F
:10132000000000000050C440000000000078CE40E3
:10133000000000000050D440000000008084DE4027
:1013400000000000805CE440000000008084EE406B
:10135000000000008084FE400000000080840E41F8
:101360000000000080841E41E43D010800B585B006
:1013700001900B468DF80330019B1849184600F088
:1013800053F99DF80330042B03D805238DF803305F
:1013900006E09DF80330082B02D908238DF80330AE
:1013A0009DF80330043B8DF80F301D210198FFF7A5
:1013B00009FB03465BB223F00E035AB29DF80F30CF
:1013C0005B005BB213435BB2DBB21A461D2101988E
:1013D000FFF725FB00BF05B05DF804FB003E0108E8
:1013E00000B585B001900B46ADF80230019B18495D
:1013F000184600F019F90198FFF766FC03468DF8CE
:101400000F309DF80F30802B02D00198FFF7BEFD02
:10141000BDF802301B12DBB21A4620210198FFF7FB
:10142000E6FABDF80230DBB21A4621210198FFF737
:10143000DEFA9DF80F30802B06D09DF80F301A464B
:1014400001210198FFF7D3FA00BF05B05DF804FB56
:10145000183E010800B583B001900B468DF80330AB
:10146000019B0749184600F0DFF89DF803301A4643
:1014700039210198FFF7D3FA00BF03B05DF804FBF0
:10148000343E010800B583B001901E210198FFF79A
:1014900099FA034643F00403DBB21A461E21019871
:1014A000FFF7BDFA00BF03B05DF804FB00B583B0E1
:1014B00001901E210198FFF785FA034623F00403EB
:1014C000DBB21A461E210198FFF7A9FA00BF03B04C
:1014D0005DF804FB00B583B001901D210198FFF772
:1014E00071FA034623F00103DBB21A461D2101986D
:1014F000FFF77DFA00BF03B05DF804FB00B583B0D1
:1015000001901D210198FFF75DFA034643F00103A6
:10151000DBB21A461D210198FFF769FA00BF03B03C
:101520005DF804FB00B583B001900B468DF80330E5
:10153000234A019B1A60019B2833184602F064FB82
:10154000019B9DF8032083F824201E49019800F098
:101550006BF8019B03F26450019B03F2FE4364228B
:10156000194600F0B0F8019B03F26452019BC3F8E6
:101570007825019B0022C3F87C25019B0022C3F83B
:101580008025019B03F27453184600F0DDF9019B9E
:10159000181D019B4C3340F25922194600F093F874
:1015A000019B03F11400019B03F2A52340F2592291
:1015B000194600F088F8019B184603B05DF804FB5B
:1015C000C83E0108543E010800B585B00390029161
:1015D00001920849039800F027F8039B1433019AFD
:1015E0001946029800F049F90346184605B05DF81F
:1015F00004FB00BF5C3E010800B585B0039002917A
:1016000001920849039800F00FF8039B0433019AF4
:101610001946029800F045F90346184605B05DF8F2
:1016200004FB00BF5C3E010800B583B0019000914F
:10163000019B93F82430002B0FD0019B28334FF0EF
:10164000FF31184602F02CFB009906480CF008FF09
:10165000019B2833184602F03BFB00BF03B05DF846
:1016600004FB00BFB43E010886B00346029101921C
:10167000ADF80E30BDF80E30029A13440593059B69
:10168000002B07DA019BDB689AB2059B9BB21344DF
:101690009BB208E0059B019AD268B3FBF2F102FB12
:1016A00001F29B1A9BB2184606B0704782B00190B7
:1016B0000091019A009B9A4201D8019B00E0009B97
:1016C000184602B0704700B585B0039002911346EA
:1016D000ADF80630039B029A1A60BDF80620039B02
:1016E000DA60039800F005F80023184605B05DF8AD
:1016F00004FB82B00190019B00225A60019B0022F2
:101700009A6000BF02B0704700B583B00190019BA2
:101710009B689BB2019A01211846FFF7A5FF03467B
:101720001A46019B5B689A4201D1012300E0002325
:10173000184603B05DF804FB2DE9100884B0019051
:10174000019B9A68019B5B68D31A4FF00004CDE9B6
:101750000234DDE90234002B74F100030CDA019B42
:10176000DB689B464FF0000CDDE902121BEB010326
:101770004CEB0204CDE90234029B184604B0BDE8EC
:101780001008704710B582B00190019BDC68019889
:10179000FFF7D2FF0346E31A013B184602B010BD23
:1017A00000B583B001900091019B002B22D00098DE
:1017B000FFF7C2FF034619460198FFF777FF019034
:1017C000009B5B689BB20199009A1846FFF74CFF9B
:1017D00003461A46009B5A60009B9A68009B5B6810
:1017E0009A4208D1009B00225A60009B5A68009BD5
:1017F0009A6000E000BF03B05DF804FB10B586B04E
:101800000390029101920298FFF796FF0346194652
:101810000198FFF74BFF0190029BDC68029B5B681D
:101820009BB2029A00211846FFF71EFF0346E31AF7
:1018300019460198FFF73AFF0590029B1C68029B2E
:101840005B689BB2029A00211846FFF70DFF034622
:101850002344059A194603980CF0BAFC039A059B99
:10186000D018029B1968019A059BD31A1A460CF0EE
:10187000AFFC019B184606B010BD00B585B00390C3
:1018800002910192019A02990398FFF7B7FF019024
:1018900002990198FFF784FF019B184605B05DF897
:1018A00004FB10B586B00390029101920298FFF7F5
:1018B0002BFF0346002B01D0002342E00298FFF7E4
:1018C00061FF034619460198FFF7F0FE0190029B65
:1018D000DC68029B9B689BB2029A00211846FFF7C6
:1018E000C3FE0346E31A19460198FFF7DFFE059091
:1018F000029B1C68029B9B689BB2029A00211846BF
:10190000FFF7B2FE03462344059A039918460CF0EC
:101910005FFC029B1868039A059BD118019A059BEE
:10192000D31A1A460CF054FC029B9B689BB2019997
:10193000029A1846FFF798FE03461A46029B9A60E1
:10194000019B184606B010BD82B00190019A137D2C
:101950006FF300031375019B00225A82019A137DD5
:101960006FF3830313750023184602B0704782B0EB
:1019700001900091009B184602B0704700B587B0F7
:101980000590049103920293059800F0AFF8104A75
:10199000059B1A60059B04330021184600F0ACF843
:1019A000059B40330021184602F0C0F9059B5433D3
:1019B000184602F029F9089B0093029B039A0499A8
:1019C000059806F051FA059B184607B05DF804FB30
:1019D000D849010800B583B001900A4A019B1A60FA
:1019E000019BB833184600F0BBF8019B94331846AE
:1019F00000F0B0F8019800F0A7F8019B184603B07A
:101A00005DF804FBBC3F010800B583B0019001986C
:101A1000FFF7E0FF019802F001F8019B184603B0C0
:101A20005DF804FB08B50448FEF74EFD4FF07E500C
:101A300002F088F8F7E700BF300D002010B5CAB0FB
:101A400021480CF00DFD214B40AC0FCB07C4238087
:101A500044AB1F49184600F04FF844AB19461D48E7
:101A600006F056FA44AB184600F05DF84FF080409F
:101A700002F068F818480CF0F3FC40AB0E2219464F
:101A80001648FFF7B9FD16480CF0EAFC6B464FF418
:101A9000807219461148FFF797FD4890002349933B
:101AA000499A489B9A420BD26A46499B13441B7839
:101AB00019460C480CF0D4FC499B01334993EFE7DD
:101AC00009480CF0CDFCD1E7D03E0108243F0108C5
:101AD000251A00086C0C0020FC3E0108300D002087
:101AE0000C3F01081C3F0108203F010882B0019013
:101AF000019B184602B0704700B583B00190009179
:101B0000009B002B05D11022002101980CF05EFCF7
:101B100004E06B461946019800F034F8019B184622
:101B200003B05DF804FB00B583B00190019BDB6856
:101B3000002B04D0019BDB689B6801989847019BB0
:101B4000184603B05DF804FB82B00190019B184673
:101B500002B0704782B00190019B184602B07047F6
:101B600000B583B00190019BDB68002B04D0019B82
:101B7000DB689B6801989847019B184603B05DF8A5
:101B800004FB000000B583B00190009110220021F9
:101B900001980CF01BFC019B19460420FFF7E7FE9F
:101BA0000346002B02D0009A12681A60019B034A78
:101BB000DA6000BF03B05DF804FB00BF343F0108EA
:101BC00000B583B00190019B1B68984700BF03B02C
:101BD0005DF804FB00B583B001900091019B1946AC
:101BE0000420FFF7C4FE0346002B02D0009A1268BF
:101BF0001A6000BF03B05DF804FB82B0019000BF23
:101C000002B0704700B583B00190064A019B1A608C
:101C1000019B2833184602F06DF8019B184603B06B
:101C20005DF804FBC83E010800B583B00190094A85
:101C3000019B1A60019B03F674531846FFF7CAFE16
:101C4000019B1846FFF7DEFF019B184603B05DF8C5
:101C500004FB00BF4C3E010800B589B00790069117
:101C6000079B012B27D1069B4FF6FF72934222D18F
:101C70000023009300234FF4805218211048FFF7EF
:101C80007DFE104A10490E4801F088FE002304939F
:101C90000123039300230293082301931A23009343
:101CA0001323142215210948FEF772FB054A08493F
:101CB000064801F073FE00BF09B05DF804FB00BFE9
:101CC0006C0C0020C8010020D5800008300D0020D9
:101CD000291C000808B54FF6FF710120FFF7BCFF73
:101CE00008BD00B583B001900091019A009B9A4213
:101CF0000ED00198FFF717FF019B19461020FFF740
:101D000036FE0346002B03D00099184600F005F874
:101D1000019B184603B05DF804FB00B583B0019049
:101D20000091009BDB68002B05D0009BDB685B68A3
:101D3000009901989847009BDA68019BDA60019B43
:101D4000184603B05DF804FB00B583B00190019B19
:101D5000DB68002B05D14FF404720649064801F0F8
:101D60008BF8019BDB681B680198984700BF03B0A4
:101D70005DF804FB403F0108643F010808B5044BCF
:101D80001B684FF0FF31184604F04CFA00BF08BD45
:101D90004835002008B5034B1B68184604F076FA56
:101DA00000BF08BD4835002000B583B00190019800
:101DB00000F006F80346184603B05DF804FB000087
:101DC00010B582B00190019B1B68002B18D1FFF762
:101DD000D5FF019B1B68002B10D1019B04331946D2
:101DE0002420FFF7C4FD0446002C04D0204601F057
:101DF0000BFF224600E02246019B1A60FFF7CAFF54
:101E0000019B1A68019B04339A4204D05D22044965
:101E1000044801F031F8019B1B68184602B010BD60
:101E20006C3F0108943F010800B583B00190009118
:101E3000009B002B05D11022002101980CF0C6FA5E
:101E400004E06B461946019800F006F8019B18461D
:101E500003B05DF804FB000000B583B00190009171
:101E60001022002101980CF0B1FA019B19460420C0
:101E7000FFF77DFD0346002B02D0009A12681A601E
:101E8000019B034ADA6000BF03B05DF804FB00BFAA
:101E9000A83F010800B583B001900091019B1B6829
:101EA0000098984700BF03B05DF804FB00B583B00D
:101EB00001900091019B19460420FFF758FD03464D
:101EC000002B02D0009A12681A6000BF03B05DF8C0
:101ED00004FB82B0019000BF02B0704700B583B030
:101EE00001900198FFF730FF00BF03B05DF804FBDD
:101EF00010B586B00590084611461A460346ADF85F
:101F000012300B46ADF810301346ADF80E30059880
:101F100000F06FF9214A059B1A60059B043390225B
:101F2000002118460CF052FA059B94330599184687
:101F300000F065F9059BB83300211846FFF774FFE0
:101F4000059B002283F8C820059B002283F8C92046
:101F5000059B0822C3F8CC20059B0022C3F8D020A3
:101F6000059B0F4AC3F8D420059BFF2283F8D82095
:101F7000059B181DBDF90E40BDF91020BDF91210CA
:101F8000BDF92030009323460AF086FD059800F045
:101F900069F8059B184606B010BD00BFBC3F01089C
:101FA00040420F0000B585B0039002910192039B5F
:101FB0001B6808331B6803989847039B029AC3F871
:101FC000CC20039B019AC3F8D0200F4B1B68039AC7
:101FD0009A420BD1039B181D039BD3F8CC10039B93
:101FE000D3F8D02000230AF07FFE02E0039800F02F
:101FF00039F8039B1B680C331B680398984700BF94
:1020000005B05DF804FB00BF4C1C002000B583B098
:1020100001900091019B1B6808331B680198984749
:10202000019B009AC3F8D4200D4B1B68019A9A4279
:1020300009D1019B1A1D019BD3F8D43019461046D3
:102040000AF0B6FE02E0019800F00CF8019B1B6854
:102050000C331B680198984700BF03B05DF804FB80
:102060004C1C002000B583B00190104B1B68019AF6
:102070009A4216D0019B181D019BD3F8CC10019BEE
:10208000D3F8D02000230AF02FFE019B1A1D019BDC
:10209000D3F8D430194610460AF08AFE034A019B51
:1020A000136000BF03B05DF804FB00BF4C1C0020B0
:1020B00000B585B001900091019B1B6808331B6837
:1020C000019898470198FFF7CDFF019B04330099D1
:1020D00018460AF0ABFE0390019B1B680C331B688B
:1020E00001989847039B184605B05DF804FB00B5BE
:1020F00089B00590049103920293059B1B680833F5
:102100001B68059898470598FFF7ACFF059B181DBD
:10211000059B93F8D83001930A9B0093029B039A86
:1021200004990AF0D8FE0790059B1B680C331B68C6
:1021300005989847079B184609B05DF804FB000016
:1021400000B583B001900648FFF72EFE03464FF01E
:10215000FF31184601F0A4FD00BF03B05DF804FB99
:10216000501C002000B583B001900548FFF71CFE0D
:102170000346184601F0ACFD00BF03B05DF804FB58
:10218000501C002000B583B00190019B1433002146
:102190001846FFF749FE019B184603B05DF804FBA3
:1021A00000B583B00190019B14331846FFF7D8FCAB
:1021B000019B184603B05DF804FB30B583B0019075
:1021C000019B01241D46002C05DB284600F039F850
:1021D0002C35013CF7E7019B00229A65019B002208
:1021E000DA65019B002283F86020019B184603B04A
:1021F00030BD82B00190019B184602B0704700B517
:1022000087B00390029100230493002305930023D9
:10221000009304AB0CCB0299039800F029F8039BC0
:10222000184607B05DF804FB00B583B00190019B30
:1022300004331846FFF7B4FF019B184603B05DF85E
:1022400004FB00B583B00190019B00221A60019B42
:1022500004332822002118460CF0B8F8019B0433FF
:102260001846FFF78FFF019B184603B05DF804FB8B
:1022700084B003900291694681E80C00039B04330B
:102280006A4692E8030083E80300039B0D4ADA6084
:10229000039B48F207021A61049A039B9A61029A0F
:1022A000039B5A61039B04331A46039BDA61064A77
:1022B000039B1A62BFF36F8FBFF34F8F00BF04B051
:1022C000704700BF01A090E8CD22000800B585B09E
:1022D000039002910192039B002B25D0019B1B6868
:1022E000002B05D1019B5B6803F00103002B1BD081
:1022F000019B5B685B101A46039B9818019B5B6807
:1023000003F00103002B02D1019B1B680AE0019B33
:102310005B685B101A46039B13441B68019A1268A2
:1023200013441B680299984700BF05B05DF804FB91
:1023300000B583B001900091019B012B0CD1009B53
:102340004FF6FF72934207D10548FFF736FF054A63
:102350000549034801F022FB00BF03B05DF804FB10
:10236000E81B0020C80100206D23000810B582B0D2
:102370000190019B002B0AD0019B03F15804019BA3
:102380009C4204D02C3C2046FFF74EFFF7E7019B10
:10239000184602B010BD08B54FF6FF710120FFF7D7
:1023A000C7FF08BD00B583B001900091019B012BD0
:1023B0000BD1009B4FF6FF72934206D105480CF0FB
:1023C0007FFA03461A46044B1A6000BF03B05DF85B
:1023D00004FB00BFD43F0108781C002008B54FF66D
:1023E000FF710120FFF7DEFF08BD82B00190009170
:1023F000009B002B05D0019B9B68019A12681A6014
:1024000005E0019B1A68019BDB6812041A6000BF9B
:1024100002B0704700B583B001900B46ADF80230B2
:1024200013468DF80130BDF902301946019809F0C4
:10243000F3FABDF90230B3F1FF3F09D00021019852
:1024400009F043FB9DF801301946019809F02AFB79
:1024500000BF03B05DF804FB00B585B003900193A5
:102460000B46ADF80A3013468DF80930BDF90A3035
:102470001946039809F0D0FABDF90A30B3F1FF3FCD
:102480000DD001990398FFF7B0FF0121039809F0DF
:102490001CFB9DF809301946039809F003FB00BFA7
:1024A00005B05DF804FB00B583B001900B46ADF8B4
:1024B0000230BDF9023000221946019800F004F8FC
:1024C00000BF03B05DF804FB00B583B001900B467C
:1024D000ADF8023013468DF801309DF80120BDF9AA
:1024E000023019460198FFF795FF00BF03B05DF871
:1024F00004FB00B583B001900B46ADF80230BDF986
:10250000023000221946019800F004F800BF03B021
:102510005DF804FB00B585B003900B460192ADF861
:102520000A30BDF90A10019B00220398FFF794FFBF
:1025300000BF05B05DF804FB00B583B00346009111
:10254000ADF80630BDF90630B3F1FF3F23D018E0F7
:10255000009BB3F90030BDF906209A420ED1009BD2
:102560009A68BDF906301146184609F037FDBDF9E5
:1025700006300021184609F0BFFD0DE0009B0C332A
:102580000093009BB3F90030B3F1FF3FE0D1044862
:1025900000F002FE00E000BF03B05DF804FB00BFE6
:1025A0000040010800B583B001900091019A009BA2
:1025B0009A4201D1019B10E0019BB3F1FF3F01D191
:1025C000009B0AE0009BB3F1FF3F01D1019B04E0B7
:1025D000044800F0E1FD4FF0FF33184603B05DF80A
:1025E00004FB00BF1440010882B003460091ADF81F
:1025F00006300CE0009BB3F90030BDF906209A428A
:1026000002D1009B5B680AE0009B0C330093009BA7
:10261000B3F90030B3F1FF3FECD14FF0FF33184670
:1026200002B0704700B585B003460091ADF80630A2
:102630004FF0FF330393BDF90630B3F1FF3F02D1F2
:102640004FF0FF330EE0BDF9063000991846FFF752
:10265000CBFF0390039BB3F1FF3F02D1034800F08F
:102660009BFD039B184605B05DF804FB284001085C
:1026700008B500F0CBFC094B1B884FF6FF72934264
:1026800004D100F00FFD064800F086FD012103484B
:1026900000F04CFD00F006FD00BF08BD7C1C0020D2
:1026A0006840010808B500F0B1FC084B1B88002BFE
:1026B00004D100F0F7FC064800F06EFD012103484C
:1026C00000F04FFD00F0EEFC00BF08BD7C1C0020B8
:1026D0009840010808B500F099FC0AF049F900F0AB
:1026E000E1FC00BF08BD00002DE9F04989B0019070
:1026F000019B5B6893F83830002B40F0C980019B48
:102700001B681B689847019B1B689B69984705904D
:10271000059B1B680793059B1B68002B06D129228C
:102720005D495E4800F0A8FB5D4B0793059B5B6825
:102730000693059B5B68202B03D8059B5B68032BE6
:1027400006D82F225449554800F096FB20230693C3
:10275000069B043B072202FA03F30493049B1F46E3
:102760004FF000083B4644464FF000014FF0000296
:10277000620142EAD36259010B461446DB1B64EB4B
:1027800008044FF000014FF00002620242EAD35207
:1027900059020B461446DB1944EB08044FF0000BBA
:1027A0004FF0000C4FEA841C4CEA936C4FEA831BF9
:1027B000BBEB030B6CEB040C1BEB07014CEB0802AF
:1027C000079B1F464FF000087B1848EB020413F1EB
:1027D000FF3044F1FF31079B4FF000041A462346B7
:1027E00011F052F803460C46CDE90234019B5B68B8
:1027F00000221A60019B5B6800225A60019B1B68E3
:102800005B68019A5468984703462362019B5A68A3
:102810004FF000034FF00004C2E90A34019B5B68EB
:10282000079A9A604FF001034FF00004069AA2F154
:102830002000C2F1200104FA02F603FA00F0064378
:1028400023FA01F10E4303FA02F52A46019B5B6865
:10285000013ADA60019B5B68049A1A61019B5A682D
:10286000DDE90234C2E90634019B5A684FF00003E7
:102870004FF00004C2E90C34019B5B68012283F82D
:102880003820019800F00EF8019800F0EFF900E010
:1028900000BF09B0BDE8F089C0400108E44001086C
:1028A00040420F002DE970488DB00190019B5B689C
:1028B0000993019B1B685B6898470890019B5B68C4
:1028C0001B6A089A9A4200F02181099B1B6A089AA8
:1028D000D21A099BDB6813404FF00004CDE906349F
:1028E000099B089A1A62099B9B688A4A934204D101
:1028F000DDE90634CDE90A34FCE0099B9B68B3F5B9
:10290000004F78D1DDE906562B4634464FF00001E2
:102910004FF00002620142EAD36259010B461446AD
:102920005B1B64EB06044FF000014FF000026202F3
:1029300042EAD35259020B4614465B1944EB060493
:102940004FF000014FF00002A20142EA93629901A8
:10295000C91A62EB04024B1942EB0604CDE90234BA
:10296000DDE902124FF000034FF00004CB0B43EA05
:102970004243D40BCDE90A34099BD3E90A56DDE979
:102980000A124FF000034FF00004D40344EA51440C
:10299000CB03DDE90212C91A62EB04028B469446AE
:1029A0001BEB05034CEB0604099AC2E90A34099BA8
:1029B000D3E90A12099B9B684FF00004A24208BFAA
:1029C0009942C0F09780DDE90A34591C44F10002B5
:1029D000CDE90A12099BD3E90A12099B9B681D469F
:1029E0004FF000060B4614465B1B64EB0604099A85
:1029F000C2E90A347EE0DDE906562B4634464FF044
:102A000000014FF00002620142EAD36259010B4615
:102A100014465B1B64EB06044FF000014FF000020C
:102A2000620242EAD35259020B4614465B1944EB48
:102A300006044FF000014FF00002A20142EA936247
:102A40009901C91A62EB04024B1942EB0604CDE965
:102A50000434099B9B684FF000041A462346DDE9C5
:102A6000040110F011FF03460C46CDE90A34099B1E
:102A7000D3E90A12099B9B684FF000040A9804FBF3
:102A800000F50B9803FB00F028440A9DA5FB0334D6
:102A900020440446DDE90456ED1A66EB0406AB4615
:102AA000B4461BEB01034CEB0204099AC2E90A3459
:102AB000099BD3E90A12099B9B684FF00004A242CC
:102AC00008BF994216D3DDE90A34591C44F10002CB
:102AD000CDE90A12099BD3E90A12099B9B681D469E
:102AE0004FF000060B4614465B1B64EB0604099A84
:102AF000C2E90A34099BD3E90C12DDE90A345D18F6
:102B000044EB0206099AC2E90C5600E000BF0DB082
:102B1000BDE8708840420F002DE9104889B003904D
:102B2000CDE90023039B5B680693069BD3E90CBCAD
:102B3000DDE900120B461446B3EB0B0364EB0C0407
:102B4000CDE90434039B5B681B690793039B5B68B7
:102B5000D3E90612DDE90434A24208BF994255D3F5
:102B6000069B9B682F4A93420CD1049B0793039BBF
:102B70005B681B69079A9A4248D9039B5B681B698B
:102B8000079343E0069B9B68B3F5004F1CD1DDE93A
:102B900004344FF000004FF00001E10341EA5341DB
:102BA000D803204A4FF0000310F06EFE03460C4697
:102BB0000793039B5B681B69079A9A4226D9039B7C
:102BC0005B681B69079321E0069B9B684FF000043C
:102BD000049A04FB02F1059A03FB02F20A440499E9
:102BE000A1FB0301531819460E4A4FF0000310F0E1
:102BF0004BFE03460C460793039B5B681B69079AD1
:102C00009A4203D9039B5B681B690793069B1A6A68
:102C1000079B1A44069BDB681340184609B0BDE8C1
:102C2000108800BF40420F0084B0039002910192CF
:102C3000019A039B9A420BD9029A019B9A4203D2B2
:102C4000029A039B9A4201D201230CE000230AE07E
:102C5000029A039B9A4205D2029A019B9A4201D39F
:102C6000012300E00023184604B0704710B58AB075
:102C70000190019B5B6809930198FFF713FE019B8C
:102C80005B685B68002B38D0019B5B68D3E90C3430
:102C9000CDE90634019B5B685B68D3E90034CDE97C
:102CA0000434DDE90434DDE90612A24208BF99428A
:102CB00004D3019B1B685B6998472CE0DDE9042382
:102CC0000198FFF729FF0390019B1B681B6903987C
:102CD0009847019B1B685B6898470290099B1B6A99
:102CE000039A02991846FFF79FFF0346002B12D064
:102CF000019B1B685B6998470DE0099B1A6A099B59
:102D00001B691A44099BDB6813400893019B1B68ED
:102D10001B69089898470AB010BD10B584B001909F
:102D2000019B1B68DB689847019B5B685B68002B15
:102D300027D00198FFF7B6FD019B5B685B68D3E97C
:102D40000034019A5268D2E90C12A24208BF99429B
:102D500019D3019B5B685B680393019B5B685A68AE
:102D6000019B5B68D2685A60019B5B681B68002B03
:102D7000DAD0019B5B681B68039A926810469847FB
:102D8000D2E700BF00E000BF0198FFF76FFF00BF70
:102D900004B010BD10B582B00190019800F005F8A4
:102DA00003460C46184602B010BD10B582B0019023
:102DB0000198FFF799FC0198FFF774FD019B5B6890
:102DC000D3E90C341846214602B010BD014B184619
:102DD000704700BF0441010808B5054B1B68002B74
:102DE00003D0034B1B680348984700BF08BD00BFD2
:102DF000CC0100200441010800B585B0019000918C
:102E000000230393009901980AF0D6FE0390039BD8
:102E1000184605B05DF804FB00B587B00390029139
:102E2000019200230593019A029903980BF02CFB61
:102E30000590059B184607B05DF804FB00B583B00C
:102E400001900091009901980AF044FB00BF03B083
:102E50005DF804FB00B587B0039002910192002356
:102E60000593019A029903980AF0F2F80590059BE0
:102E7000184607B05DF804FB00B585B003900291D9
:102E8000019200F0C3F8019B029A0399044800F0F4
:102E90005CF800F01CF800BF05B05DF804FB00BF53
:102EA0000C41010882B001900091009B002B05D0DD
:102EB000019B9B68019A12681A6005E0019B1A68E1
:102EC000019BDB6812041A6000BF02B0704700B5B6
:102ED0008BB000F09BF801AB05211846FFF709FB0A
:102EE0000023099312E001AB01211846FFF7DAFF36
:102EF000962000F03DFE01AB00211846FFF7D2FFFF
:102F0000962000F035FE099B01330993099B032BA2
:102F1000E9DD0023089314E001AB01211846FFF717
:102F2000C1FF4FF4C87000F023FE01AB002118462A
:102F3000FFF7B8FF4FF4C87000F01AFE089B01338A
:102F40000893089B032BE7DDCAE70FB400B583B0F5
:102F500005AB01930199049800F006F800BF03B097
:102F60005DF804EB04B0704700B5A5B00190009186
:102F700000F04CF802A8009B019A80210EF09CFA08
:102F80002290229B002B1ADD104B1B68002B04D1D2
:102F9000032202210E4809F0B5FA002323930AE028
:102FA00002AA239B13441B781946094808F08CFA9F
:102FB000239B01332393239A229B9A42F0DB00F058
:102FC00071F800BF25B05DF804FB00BF8C24002021
:102FD0005037002082B0EFF310830193019B03F080
:102FE0000103002B0CBF01230023DBB2184602B003
:102FF000704782B0EFF305830193019B002B14BF50
:1030000001230023DBB2184602B0704700B583B03D
:10301000FFF7E0FF0346002B14BF01230023DBB2C0
:1030200083F00103DBB28DF807309DF8073003F021
:1030300001038DF8073072B6154B1B68002B03D1C6
:10304000144A9DF807301370114B1B68B3F1FF3F12
:1030500004D1432210491148FFF70EFF0C4B1B68A7
:10306000002B0BD09DF8073083F00103DBB2002B5F
:1030700004D0472208490A48FFF7FEFE044B1B68AC
:103080000133034A136000BF03B05DF804FB00BFC7
:10309000C01C0020C41C00204041010864410108FC
:1030A0008C41010800B583B01C4B1B68002B30D04D
:1030B000FFF790FF0346002B14BF01230023DBB270
:1030C00083F00103DBB28DF807309DF8073003F081
:1030D00001038DF807309DF8073083F00103DBB260
:1030E000002B04D058220E490E48FFF7C5FE0B4BAB
:1030F0001B68013B094A1360084B1B68002B08D171
:10310000094B1B78DBB283F00103DBB2002B00D04C
:1031100062B600BF03B05DF804FB00BFC01C002016
:10312000404101088C410108C41C002000B585B055
:1031300001900B46ADF80230FFF768FF019B1A883B
:10314000BDF802301344ADF80E30019BBDF80E20DF
:103150001A80FFF7A7FFBDF80E30184605B05DF8DE
:1031600004FB00B585B001900B46ADF80230FFF7C7
:103170004DFF019B1A88BDF80230D31AADF80E300E
:10318000019BBDF80E201A80FFF78CFFBDF80E30B2
:10319000184605B05DF804FB0FB400B583B00B4BC7
:1031A0001B78002B0BD1094B01221A7005AB019340
:1031B00001990498FFF7D8FE012000F0F7FB00BF4B
:1031C00003B05DF804EB04B0704700BFC51C0020DD
:1031D00082B00190019B03F00303002B0CBF01237D
:1031E0000023DBB2184602B07047000010B584B06F
:1031F0000190019B5B69452B03DD019B5B698A2B79
:1032000004DD4FF0FF334FF0FF345CE0019B1B689F
:103210000393019B5A6813461B019B1A9B001A4695
:10322000039B13440393019B9B684FF4616202FB71
:1032300003F31A46039B13440393019BDB68013B92
:10324000234A02FB03F31A46039B13440393019B97
:103250005B691846FFF7BCFF03461846019B1A69D5
:103260001C4903465B0003449B00134451F8233080
:10327000039A13440393019B5B69462B18DD019B62
:103280005B69013B002B00DA03339B10113B029377
:10329000019B5B69463B40F26D1202FB03F31A4649
:1032A000029B13440A4A02FB03F3039A1344039359
:1032B000039B002B04DA4FF0FF334FF0FF3402E0A2
:1032C000039B4FF000041846214604B010BD00BF18
:1032D00080510100A04101082DE9104887B0CDE9D7
:1032E00002010192029B002B01DA002329E1DDE9B2
:1032F00002014FF03C024FF0000310F075FA1C463B
:1033000013461A46019B1A60DDE902014FF03C02A8
:103310004FF0000310F068FA03460C46CDE9023482
:10332000DDE902014FF03C024FF0000310F05CFABF
:103330001C4613461A46019B5A60DDE902014FF014
:103340003C024FF0000310F04FFA03460C46CDE963
:103350000234DDE902014FF018024FF0000310F0D3
:1033600043FA1C4613461A46019B9A60DDE90201A6
:103370004FF018024FF0000310F036FA03460C46E7
:10338000CDE90234DDE90234181D44F100014FF0AB
:1033900007024FF0000310F027FA1C4613461A46A6
:1033A000019B9A61019B46225A61019B5B69184609
:1033B000FFF70EFF0346002B17D0DDE9023440F281
:1033C0006D114FF00002994272EB04030DDA019B7C
:1033D0005B695A1C019B5A61DDE90234B3F5B77190
:1033E00044F1FF32CDE9021225E0019B5B691846EA
:1033F000FFF7EEFE034683F00103DBB2002B1BD088
:10340000DDE902344FF4B6714FF00002994272EBDD
:10341000040311DA019B5B695A1C019B5A61DDE9C7
:1034200002346FF4B6714FF0FF3213EB010B44EB33
:10343000020CCDE902BCB8E7029A019BDA61DDE932
:1034400002128B4694461BEB0B034CEB0C049B4681
:10345000A4461BEB010B4CEB020C4FF000014FF0AC
:1034600000024FEA0C1242EA1B724FEA0B11B1EB59
:103470000B0162EB0C024FF000034FF0000414014B
:1034800044EA11740B015B1A64EB02044FF0000173
:103490004FF00002E20142EA5362D9010B461446A2
:1034A000CDE90234019B0B221A61019B5B6918462E
:1034B000FFF78EFE03468DF813300023059316E0C8
:1034C00002999DF81320214813465B0013449B008A
:1034D000059A134450F82330994205D2059B013BCD
:1034E0001A46019B1A6105E0059B01330593059B74
:1034F0000B2BE5D99DF81320019B1969134813463E
:103500005B0013449B000B4450F823309B464FF064
:10351000000CDDE902120B461446B3EB0B0364EB1F
:103520000C04CDE90234DDE90201094A4FF0000341
:1035300010F05AF903460C4601331A46019BDA6033
:103540000123184607B0BDE8108800BFA04101085C
:103550008051010008B5084B1B68002B0AD10322DB
:103560000221064808F0CEFF4FF41651034809F037
:103570004BF900E000BF08BD8C240020503700202C
:1035800000B585B00190019B022B01DC00232AE0ED
:10359000019B033B164A52F823300393019B033BE4
:1035A000134A002142F82310039B002B07D109F096
:1035B00083FD0246092313604FF0FF3313E0039BA2
:1035C0001B6814331B68039898470290029B002BDA
:1035D00008DA09F071FD0246029B5B4213604FF06E
:1035E000FF3300E00023184605B05DF804FB00BF80
:1035F000D01C002000B589B0039002910192009385
:10360000FFF7F7FC0346002B07D1FFF7E3FC034667
:1036100083F00103DBB2002B01D0012300E0002383
:10362000002B02D02448FFF7B7FD039B022B1ADCC6
:10363000224B1B68002B01D1FFF78CFF0023069360
:10364000069A019B9A420BD2029A069B13441B785E
:1036500019461B4807F038FF069B01330693EFE736
:10366000019B079322E0039B033B164A52F8233049
:103670000593059B002B07D109F01EFD0246092387
:1036800013604FF0FF3312E0059B1B680C331B687F
:10369000019A0299059898470790079B002B05DA35
:1036A00009F00AFD0246079B5B421360079B184620
:1036B00009B05DF804FB00BF004201088C24002023
:1036C00050370020D01C002000B587B00390029135
:1036D00001920093FFF78DFC0346002B07D1FFF703
:1036E00079FC034683F00103DBB2002B01D00123F8
:1036F00000E00023002B02D01E48FFF74DFD039B86
:10370000022B0FDC1C4B1B68002B01D1FFF722FFA3
:103710001A4807F0BBFE0346DAB2029B1A70012377
:10372000059322E0039B033B154A52F82330049390
:10373000049B002B07D109F0BFFC0246092313604C
:103740004FF0FF3312E0049B1B6808331B68019A9B
:103750000299049898470590059B002B05DA09F01B
:10376000ABFC0246059B5B421360059B184607B005
:103770005DF804FB3C4201088C24002050370020F7
:10378000D01C002000B585B00190019B022B01DC0C
:10379000012322E0019B033B124A52F8233003939A
:1037A000039B002B06D109F087FC02460923136016
:1037B000002312E0039B1B681C331B680398984787
:1037C0000290029B002B07DA09F076FC0246029B6E
:1037D0005B421360002300E0029B184605B05DF8D1
:1037E00004FB00BFD01C002000B587B003900291FD
:1037F0000192039B022B07DC09F05EFC02461D23AD
:1038000013604FF0FF3326E0039B033B144A52F84A
:1038100023300593059B002B07D109F04DFC024690
:10382000092313604FF0FF3315E0059B1B6810332D
:103830001B68019A0299059898470490049B002BF5
:1038400008DA09F039FC0246049B5B4213604FF032
:10385000FF3300E0049B184607B05DF804FB00BF8F
:10386000D01C002000B585B001900091019B022B77
:1038700005DC009B4FF400525A6000232AE0019BB4
:10388000033B164A52F823300393039B002B07D1C6
:1038900009F012FC0246092313604FF0FF3319E0D0
:1038A000039B1B681C331B68039898470346002B37
:1038B00002D04FF4005201E04FF40042009B5A60E6
:1038C000039B1B6828331B68039898470246009B9C
:1038D0001A610023184605B05DF804FBD01C0020D7
:1038E00008B5012000F062F810B485B001901B4BC0
:1038F0001B680393194B1A68019B13440293EFF35F
:1039000008831C4623461A46029B93422CBF012380
:103910000023DBB2002B05D0114B0C221A604FF0B4
:10392000FF3315E00F4B1B68002B0DD00E4B1A68B0
:103930000C4B1B681344029A9A4205D3084B0C2285
:103940001A604FF0FF3303E0044A029B1360039BAD
:10395000184605B05DF8044B704700BFD001002049
:10396000FC370020CC1C0020C81C002000B583B010
:103970000190094B1B689B68184609F0E3FC064B55
:103980001B68DB68184609F0DDFC019B002B01D0A9
:10399000FFF79DFAFEE700BF9002002084B003907D
:1039A000029101920123184604B0704700B583B01C
:1039B00001900198FFF7DAFF00BF03B05DF804FB48
:1039C00082B001900123184602B0704700B583B061
:1039D0000190019800F014FB00BF03B05DF804FBF8
:1039E00000B583B00190019800F01AFB00BF03B04E
:1039F0005DF804FB00B585B0019001980AF0CCF8A1
:103A00000390039B002B02D10348FFF7C5FB039BE8
:103A1000184605B05DF804FB3443010800B583B0D7
:103A2000019001980AF0C0F800BF03B05DF804FBF4
:103A300000B583B0019001980AF0B6F800BF03B05A
:103A40005DF804FB014B1846704700BF9043010826
:103A500010B584B001902148FEF7A6F903464FF057
:103A6000FF31184600F01CF91D4B1B68002B10D0CD
:103A70001B4B1B6898470346002B0CBF01230023F8
:103A8000DBB2002B05D04FF000004FF0000100F03A
:103A90002BF84FF0FF334FF0FF34CDE90234114BD8
:103AA0001B68002B04D00F4B1B689847CDE902011F
:103AB000019B002B04D0019ADDE90234C2E90034F5
:103AC0000648FEF771F90346184600F001F9DDE9F2
:103AD00002341846214604B010BD00BFD01D00209E
:103AE000D8010020DC01002000B583B0CDE9000141
:103AF0001148FEF759F903464FF0FF31184600F020
:103B0000CFF80E4B1B68002B02D00C4B1B6898475C
:103B10000B4B1B68002B04D0094B1B68DDE900012F
:103B200098470548FEF740F90346184600F0D0F8DC
:103B300000BF03B05DF804FBD01D0020D4010020BD
:103B4000E001002000B583B00190DDED017A9FED2A
:103B5000077A67EE877AFDEEE77A17EE900A00F0B3
:103B600017F800BF03B05DF804FB00BF00247449E0
:103B700000B583B00190019B4FF47A7202FB03F30E
:103B8000184600F005F800BF03B05DF804FB000024
:103B900000B587B00190FFF719F905900598FFF778
:103BA000F9F80490019B174A82FB03129211DB176C
:103BB000D31A0393039B002B06DDFFF70BFA034692
:103BC000002B01D0012300E00023002B07D0FEF7DB
:103BD0004FFD039B184604F071FAFEF763FD05984C
:103BE000FFF7D8F80246049BD21A019B9A4234BFD1
:103BF00001230023DBB2002B00D0F0E700BF07B0A9
:103C00005DF804FBD34D621000B583B001900198BC
:103C100000F080F8019B00221A620021019800F058
:103C200005F8019B184603B05DF804FB00B587B0AA
:103C300001900091019B04331C22002118460AF0D8
:103C4000C5FB02AB00221A605A609A60DA60009BE2
:103C5000002B01D0009B00E00E4B0293019B04332C
:103C600004931C2305930B23039302AB184602F025
:103C70009BFA0246019B1A60019B1B68002B04D132
:103C8000312205490548FFF7F7F800BF07B05DF896
:103C900004FB00BF98430108B4430108D043010866
:103CA00000B585B001900091019B1B6800991846F2
:103CB00002F0B8FA0390039B002B04D1019B1B6A0E
:103CC0005A1C019B1A62039B184605B05DF804FB61
:103CD00000B583B00190019B1B6A5A1E019B1A62BA
:103CE000019B1B68184602F0D1FA0346184603B040
:103CF0005DF804FB00B583B00190019B1B6818467A
:103D000002F0F4FA019800F00BF8019B184603B09A
:103D10005DF804FB82B00190019B184602B0704729
:103D200082B00190019B184602B0704700B583B085
:103D300001900091019800F05CF84FF6FF72009935
:103D4000019800F005F8019B184603B05DF804FBEC
:103D500000B589B0039002911346ADF80630039B7D
:103D600004331022002118460AF030FB04AB002275
:103D70001A605A609A60DA60039B0433069310233A
:103D80000793BDF80630029904AA184602F0D8FC41
:103D90000246039B1A60039B1B68002B04D12B2255
:103DA00003490448FFF768F800BF09B05DF804FB59
:103DB000D4430108F443010800B583B00190019B8E
:103DC0001B68184602F004FD0346184603B05DF870
:103DD00004FB00B583B00190019B1B68184602F0FC
:103DE00023FD019800F00BF8019B184603B05DF825
:103DF00004FB82B00190019B184602B0704782B06C
:103E00000190019B184602B07047000082B0134B2E
:103E10000193124BC3F1005303F500330093009B51
:103E2000B3F5806F28BF4FF480630D4A13600C4BCD
:103E30001B68009AD31A019A13440A4A1360084B6C
:103E40001B68009AD31A0093074A009B1360074A25
:103E5000019B136000BF02B0704700BF0038002014
:103E6000FC1D0020F81D0020CC1C0020C81C0020D8
:103E700084B0104B9B6802934FF0005301930023D2
:103E800003930CE0039B9B00029A1A44039B9B0044
:103E900001990B4412681A60039B01330393039B3F
:103EA000702BEFDD034B4FF000529A6000BF04B05F
:103EB000704700BF00ED00E000BF704700B583B061
:103EC000124B134A1A61114B4FF480525A610F4B37
:103ED0004822DA600D4B0F4A9A600C4B18229A6107
:103EE0000A4B0D4A1A60094A00210C4803F098FD5C
:103EF0000190019B002B02D10948FFF74DF900F01A
:103F000043FE00BF03B05DF804FB00BF9435002002
:103F100018250020C824002000440108353F00086F
:103F20000C44010808B5FFF7C7FFFDF787FD0346FE
:103F3000184608BD08B51F4B1F4A1A601D4B0B22BF
:103F40005A601C4B1C22DA601A4B1C4A9A601948B2
:103F500002F02AF902461A4B1A601A4B1A4A1A60E2
:103F6000184B0B225A60174B1C22DA60154B174A6C
:103F70009A60144802F018F90246154B1A60154B66
:103F8000154A1A60134B0B225A60124B1C22DA603E
:103F9000104B124A9A600F4802F006F90246104B85
:103FA0001A6009F047FD00210020FFF7BBFF00BFAA
:103FB00008BD00BF84350020284401084C3500208E
:103FC0004835002038350020384401086835002085
:103FD00010250020B8350020484401081C35002079
:103FE0001835002008B5FFF711FFFFF741FF07F074
:103FF000A7FE00F05FFDFFF761FF00BF08BD0000F6
:1040000000B583B00190054B1B684FF0FF31184697
:1040100002F008F900BF03B05DF804FB1025002092
:1040200000B583B00190044B1B68184602F02EF9CE
:1040300000BF03B05DF804FB1025002000B583B07D
:10404000019000F00BF9FCE700B585B001900091FC
:1040500003F06EFD0390019B013B042B30D801A2BD
:1040600052F823F0794000088D4000089B4000087A
:10407000A9400008B5400008009803F02FFD034652
:10408000009A01991248FFF787F81FE0009B039AF6
:1040900001991048FFF780F818E0009B039A0199F6
:1040A0000D48FFF779F811E0039A01990B48FFF7E3
:1040B00073F80BE0039A01990948FFF76DF805E0E2
:1040C000039A01990748FFF767F800BFFEE700BFB2
:1040D00054440108A8440108004501086845010846
:1040E000C44501082446010882B00190019B0633B3
:1040F000052B1BD801A252F823F000BF294100086C
:1041000025410008214100081D410008194100080F
:1041100015410008074B0AE0074B08E0074B06E093
:10412000074B04E0074B02E0074B00E0074B184643
:1041300002B070476046010878460108AC460108A5
:10414000C4460108D4460108EC46010808470108A6
:1041500000B583B001900198FFF7C6FF03461A46E9
:1041600001990348FFF718F800BF03B05DF804FB9E
:104170001047010800B583B0019000910098FFF747
:10418000B3FF0346009A01990348FFF705F800BF03
:1041900003B05DF804FB00BF2847010800B583B0F9
:1041A000019000910098FFF79FFF0346009A019944
:1041B0000348FEF7F1FF00BF03B05DF804FB00BF4A
:1041C0007447010800B583B001900091009B13F182
:1041D000110F05D0009A01990348FEF7DDFF00E0BA
:1041E00000BF03B05DF804FB8C47010800B583B045
:1041F00001900091009A01990348FEF7CDFF00BF9E
:1042000003B05DF804FB00BFC047010800B583B0F0
:1042100003F08EFC0190019803F014FE00BF03B080
:104220005DF804FB00B583B00190019803F00AFE2D
:1042300000BF03B05DF804FB08B5FEF74BFA00BF02
:1042400008BD08B5FEF7E2FEFEF712FAFFF7F4FF2D
:10425000FEF728FAFEF726FF00BF08BD08B5024B9F
:104260001B689847FBE700BFE4010020EFF30980DB
:10427000816911F8021CB9BB01B590E80F10E04745
:10428000BDE800508CE80300264B93E806009142FD
:1042900008BF704741B91EF0100F10D122490868BD
:1042A00020F0010008600AE02CE9F00F1EF0100F6A
:1042B00008BF2CED108AC1F838C081F822E002F066
:1042C00041FF184B93E806001A6092F82210906B99
:1042D00061F0FF0E1EF0100F08BFB0EC108AB0E8BE
:1042E000F00F80F30988704710B5104A136899429F
:1042F00006D852F821400FC8A047EFF30984206088
:1043000010BD10B502F0DAFBBDE81040EFF3098CE8
:10431000BAE710B502F070FBBDE81040EFF3098C6E
:10432000B2E70000FC01002034EF00E0E84801089B
:1043300000B583B00190019B002B01D1002304E064
:104340000199132002F086FF0023184603B05DF8A0
:1043500004FB000000B587B00190019800F09BF8C5
:10436000EFF305830593059B002B0BD1EFF310832F
:104370000493049B002B05D1EFF311830393039B5C
:10438000002B07D06FF005010020FFF7F3FE6FF060
:10439000050307E0019B02930298044B9C4600DF53
:1043A000034600BF184607B05DF804FB3143000820
:1043B00084B003900291019200BF04B0704784B0B2
:1043C000039002910192009300BF04B0704784B043
:1043D00003900291019200BF04B0704784B0039033
:1043E00002910192009300BF04B0704782B0019027
:1043F000009100BF02B0704784B003900291019217
:1044000000BF04B0704700BF704700BF704782B064
:10441000019000BF02B0704700BF704700BF7047F7
:1044200084B003900291019200BF04B0704782B043
:10443000019000BF02B0704782B00190009100BFB0
:1044400002B0704782B0019000BF02B0704782B0E6
:10445000019000BF02B0704782B00190009100BF90
:1044600002B0704782B00190009100BF02B0704767
:1044700082B0019000BF02B0704782B0019000BFCF
:1044800002B0704700BF704784B003900291019260
:1044900000BF04B0704782B0019000BF02B0704707
:1044A00000BF704782B00190009100BF02B070471A
:1044B00082B0019000BF02B0704782B0019000BF8F
:1044C00002B0704782B0019000BF02B0704782B066
:1044D0000190009100BF02B0704782B0019000913E
:1044E00000BF02B0704782B0019000BF02B07047B9
:1044F00082B00190009100BF02B0704782B001907D
:1045000000BF02B0704782B0019000BF02B0704798
:1045100082B00190009100BF02B0704782B001905C
:1045200000BF02B0704782B0019000BF02B0704778
:1045300084B003900291019200BF04B0704782B032
:10454000019000BF02B0704782B0019000BF02B07E
:10455000704782B0019000BF02B0704782B00190F6
:1045600000BF02B0704782B0019000BF02B0704738
:1045700082B0019000BF02B0704782B0019000BFCE
:1045800002B0704782B0019000BF02B0704784B0A3
:1045900003900291019200BF04B0704782B0019075
:1045A00000BF02B0704784B003900291009313469D
:1045B0008DF8073000BF04B0704784B003900291BB
:1045C000019200BF04B0704782B0019000BF02B0FA
:1045D000704782B00190009100BF02B0704782B076
:1045E0000190009100BF02B0704782B0019000912D
:1045F00000BF02B0704784B0039002910192009313
:1046000000BF04B0704784B003900291019200BFD4
:1046100004B0704782B0019000BF02B0704782B012
:104620000190009100BF02B0704782B001900091EC
:1046300000BF02B070470000034BDB681B0A03F0A9
:1046400007031846704700BF00ED00E000B583B0D7
:10465000114BFF2283F822200F4B93F82230DBB25C
:1046600063F0FF03DB43B3FA83F3C3F12003019349
:10467000FFF7E2FF0090009A019B9A4202D3009B51
:1046800001330193FE22019B9A40034BD2B2DA77A9
:1046900000BF03B05DF804FB00ED00E008B5444B3B
:1046A0001B7A012B03D1FFF7B0FE00235BE1404BE7
:1046B0001B7A002B06D04FF0FF30FFF749FD4FF07B
:1046C000FF3350E19C2200213A4809F07FFE3A4B2B
:1046D0005B6D472B06D86FF00A00FFF739FD4FF0EE
:1046E000FF3340E1344BDB68002B03D0324B1B8A95
:1046F000002B06D14FF0FF30FFF72AFD4FF0FF33BC
:1047000031E12D4BDB682A4AD3652B4B1A8A284BA3
:10471000A3F85420284B9B68254A1364264BDA6A79
:10472000254B1B6B1946104600F07AFA0346002B06
:1047300004D0214BDB6A1E4AC2F880301E4B5A69F6
:104740001D4B9B691946104600F06AFA0346002B80
:1047500004D0194B5B69164A536704E0144BD3F835
:104760008030134A5367144BDA69134B1B6A19469E
:10477000104600F055FA0346002B04D00E4BDB69BF
:104780000B4A936704E00A4BD3F88030084A9367DA
:10479000094B5A6A084B9B6A1946104600F040FACA
:1047A0000346002B0AD0044B5B6A014AD3670AE038
:1047B000E8010020F0010020484801086B4BD3F8C5
:1047C00080306A4AD3676A4B5B6B002B14D0684B0E
:1047D000586B674B5B6B1968654B5B6B9A68644BF6
:1047E0005B6BDB6800F07AFB0346002B04D0604B68
:1047F0005B6B5E4AC2F884305D4B9B6B002B14D020
:104800005B4B986B5A4B9B6B1968594B9B6B9A6827
:10481000574B9B6BDB6800F061FB0346002B04D019
:10482000534B9B6B514AC2F88830514BDB6B002BCA
:1048300014D04F4BD86B4E4BDB6B19684C4BDB6B7A
:104840009A684B4BDB6BDB6800F048FB0346002BA0
:1048500004D0474BDB6B454AC2F88C30444B1B6C91
:10486000002B14D0424B186C414B1B6C1968404B09
:104870001B6C9A683E4B1B6CDB6800F02FFB0346F9
:10488000002B04D03A4B1B6C384AC2F89030384B9E
:104890005B6C002B14D0364B586C354B5B6C196835
:1048A000334B5B6C9A68324B5B6CDB6800F016FB39
:1048B0000346002B04D02E4B5B6C2C4AC2F894307C
:1048C0002B4B9B6C002B14D0294B986C284B9B6C6A
:1048D0001968274B9B6C9A68254B9B6CDB6800F032
:1048E000FDFA0346002B04D0214B9B6C1F4AC2F8F3
:1048F00098301F4BDB6C002B14D01D4BD86C1C4B1D
:10490000DB6C19681A4BDB6C9A68194BDB6CDB6843
:1049100000F0E4FA0346002B04D0154BDB6C134A7D
:10492000C2F89C30124B1B6D002B14D0104B186D2D
:104930000F4B1B6D19680E4B1B6D9A680C4B1B6D52
:10494000DB6800F0CBFA0346002B04D0084B1B6D4C
:10495000064AC2F8A030FFF779FE044B01221A7212
:10496000FFF753FD0023184608BD00BFE8010020F3
:104970004848010808B5044B1B7A1846FFF747FD65
:10498000014B1B7A184608BDE801002000B585B030
:10499000424B1B7A012B06D06FF00600FFF7D8FBC5
:1049A0004FF0FF3376E03D4B9B6A002B14D13C4B1C
:1049B0009A6D002300213B4802F0D4FC0246374B9D
:1049C0009A62364B9B6A002B06D14FF0FF30FFF7FF
:1049D000BFFB4FF0FF335DE0314B5B6E002B18D017
:1049E0002E4B9B6C002B14D12D4BDA6D0023002134
:1049F0002D4802F0B7FC0246284B9A64274B9B6C6B
:104A0000002B06D14FF0FF30FFF7A2FB4FF0FF3332
:104A100040E0234B5B682549184603F0B9F903468B
:104A2000002B02D04FF0FF3334E003F007FA0246C8
:104A30001A4B1A6103F0E0F90346002B02D04FF045
:104A4000FF3327E01A4802F05BF90390039B002B29
:104A500006D14FF0FF30FFF77BFB4FF0FF3319E03B
:104A6000039802F05BFB0E4B1B6803F00103002B65
:104A700005D002230293029B83F3148804E00323EE
:104A80000193019B83F31488044B02221A72FFF7EF
:104A9000C5FC0023184605B05DF804FBE8010020C2
:104AA000484801083D400008217D000813430008E4
:104AB0000402002000B585B0FFF7A5FCEFF30583E5
:104AC0000393039B002B0BD1EFF310830293029B04
:104AD000002B05D1EFF311830193019B002B06D02E
:104AE0006FF00500FFF734FB6FF0050314E00C4B8B
:104AF0009C46EFF3148313F0020F0AD113F0040F56
:104B0000EFF308830CBF203B683B23F0070383F3DC
:104B1000098800DF034600BF184605B05DF804FBB6
:104B20009D46000800B585B0EFF305830393039B12
:104B3000002B0BD1EFF310830293029B002B05D1C6
:104B4000EFF311830193019B002B06D04FF0FF3050
:104B5000FFF75DFC4FF0FF3310E0EFF31483009399
:104B6000009B03F00103002B03D1FFF703FF034673
:104B700004E0044B9C4600DF034600BF184605B026
:104B80005DF804FB7549000800B585B0FFF744FCEB
:104B9000EFF305830393039B002B0BD1EFF31083FB
:104BA0000293029B002B05D1EFF311830193019B2C
:104BB000002B06D06FF00500FFF7CAFA6FF005036F
:104BC00026E0FFF7AFFF0346022B0CD0124B1B6809
:104BD000002B08D0104B1B685B68002B03D00E4BDA
:104BE0001B685B6898470D4B9C46EFF3148313F0EA
:104BF000020F0AD113F0040FEFF308830CBF203B20
:104C0000683B23F0070383F3098800DF034600BFF6
:104C1000184605B05DF804FBC83500208D49000832
:104C200000B585B001900091019B002B0CD0019B39
:104C300003F00703002B07D1009B03F00703002BB1
:104C400002D1009B172B06D8002200990198FFF78C
:104C5000AFFB00231EE0019B0393039B009A1A60A5
:104C6000039B10225A60019B08330293019A009B18
:104C70001344083B1A46029B1A60029B1B680022E1
:104C80001A60029B00225A60012200990198FFF7E6
:104C90008FFB0123184605B05DF804FB00B589B011
:104CA000039002910192039B002B07D0029B002BE3
:104CB00004D0019B23F00303002B07D00023019AAB
:104CC00002990398FFF77BFB00235BE0029B08330C
:104CD0000293029B073323F007030293039B0833DD
:104CE0000793079B1B681A46079BD31A0593079BDC
:104CF0005B6823F00303059AD31A0593059A029B78
:104D00009A420ED2079B1B680793079B1B68002BD8
:104D1000E7D10023019A02990398FFF750FB002383
:104D200030E000BF039B5A68029B1A44039B5A6001
:104D3000079B5B68002B08D1029A019B1A43079BD3
:104D40005A60079B0833069315E0079B5B6823F0C6
:104D50000302079B13440493079B1A68049B1A6081
:104D6000029A019B1A43049B5A60079B049A1A609B
:104D7000049B08330693069B019A02990398FFF758
:104D80001EFB069B184609B05DF804FB00B587B012
:104D900001900091019B002B02D0009B002B06D1BB
:104DA000002200990198FFF712FB002335E0009BD9
:104DB000083B039300230493019B083305930EE003
:104DC000059B0493059B1B680593059B002B06D14F
:104DD000002200990198FFF7FAFA00231DE0059AD6
:104DE000039B9A42ECD1019B5A68059B5B6823F0B8
:104DF0000303D21A019B5A60049B002B03D1059B2D
:104E000000225A6003E0059B1A68049B1A60012285
:104E100000990198FFF7DBFA0123184607B05DF807
:104E200004FB10B483B001900091019B009A53E8F9
:104E3000001F8A4202D8BFF32F8F04E0481C43E8CA
:104E4000000404B1F3E70C462346184603B05DF8AE
:104E5000044B704710B483B00190019B53E8002FBE
:104E600012B9BFF32F8F04E0511E43E8001000B1C8
:104E7000F4E714462346184603B05DF8044B704728
:104E800010B483B00190019B53E8002F12B9BFF317
:104E90002F8F04E0116843E8001000B1F4E71446D6
:104EA0002346184603B05DF8044B704710B483B036
:104EB00001900091019B009A19681160BFF35F8F08
:104EC00053E8001F10688842F6D143E8002404B17B
:104ED000F2E700BF03B05DF8044B704700B587B040
:104EE0000390029101920093039B002B08D0029B38
:104EF000002B05D0019B002B02D0009B002B01D181
:104F0000002330E0039B029A1A60039B00225A6040
:104F1000039B019A9A60039B009ADA60039B009AB4
:104F20005A61029B019A02FB03F3009A1A44039B05
:104F30001A61009B019A02990398FFF74FFA08E063
:104F4000009A019B13440593009B059A1A60059BE8
:104F50000093029B013B0293029B002BF0D1009B2C
:104F600000221A600123184607B05DF804FB00B563
:104F700085B00190019B002B05D100210020FFF797
:104F800035FA00231AE0019B1A1D019B1B68194684
:104F90001046FFF746FF0246019B1B689A4206D265
:104FA000019B14331846FFF76BFF039001E00023C9
:104FB000039303990198FFF719FA039B184605B06C
:104FC0005DF804FB00B585B001900091019B002BBA
:104FD00009D0019BDB68009A9A4204D3019B1B69AC
:104FE000009A9A4208D36FF0030200990198FFF7E4
:104FF00003FA6FF0030319E0019B04331846FFF72F
:1050000029FF0346002B08D0019B14330099184652
:10501000FFF74CFF0023039302E06FF002030393BA
:10502000039A00990198FFF7E7F9039B184605B02A
:105030005DF804FB10B483B001900B468DF803308B
:10504000019B9DF80320D3E84F1FC3E8402F00B118
:10505000F9E7CCB22346184603B05DF8044B70471D
:1050600010B483B00190019B53E8002F511C43E81A
:10507000001000B1F8E714462346184603B05DF867
:10508000044B704710B483B00190019B53E8002F8C
:1050900012B9BFF32F8F04E0511E43E8001000B196
:1050A000F4E714462346184603B05DF8044B7047F6
:1050B000014B5B6918467047E801002000B585B0D8
:1050C00001900091019B1B6B002B2ED0019B1B6B51
:1050D00003930023029304E0039B0293039B5B680A
:1050E0000393039B002B05D0039BDA78009BDB78AE
:1050F0009A42F1D3009B039A5A60009B029A9A60ED
:10510000039B002B03D0039B009A9A6002E0019B53
:10511000009ADA62029B002B03D0029B009A5A602D
:105120000FE0019B009A1A630BE0009B00225A607B
:10513000009B00229A60019B009ADA62019B009A10
:105140001A63019B28331846FFF78AFF00BF05B09A
:105150005DF804FB00B587B00190019B2833184629
:10516000FFF790FF0490049B002B01D1002319E06E
:10517000019BDB6A05930FE0059B02330121184672
:10518000FFF758FF03468DF80F309DF80F30002BC6
:1051900006D0059B9B680593059B002BECD100E096
:1051A00000BF059B184607B05DF804FB82B0019074
:1051B0000091009B5B68002B05D0009B5B68009A08
:1051C00092689A6003E0009B9A68019BDA62009BF8
:1051D0009B68002B05D0009B9B68009A52685A6020
:1051E00003E0009B5A68019B1A6300BF02B070473E
:1051F00000B587B00190019B5B78002B00F0BC806C
:10520000019B9B78002B60D0019B0C330293029B87
:105210001B680593059B5B78002B00F0AF8001991C
:105220000598FFF7C3FF019B00225A70059B0C33C2
:1052300001991846FFF7C6FE059B9B68002B00F0FE
:10524000A080059B9B685B78932B40F09A80059B20
:105250000C331846FFF78BFE0190019B002B00F0EA
:105260009080059801F04CFD0490002200210498E4
:1052700001F0CCFF049801F00DFF0390019B03F1B6
:105280000C00039B08331B681946059B5B6A1A4692
:1052900008F09EFF019B07221A70019B01225A70A1
:1052A000019B00229A70039B0C331B68DAB2019BAE
:1052B000DA7001990598FFF701FF039B08331B681B
:1052C00019460598FFF78BF95BE0019B9B680593F6
:1052D000059B5B78002B53D0059B9B68002B40D02F
:1052E000059B9B685B78832B3BD1019B5B681946D0
:1052F0000598FFF774F9059801F002FD049000226B
:105300000021049801F082FF049801F0C3FE03908D
:10531000039B08331B681846019B03F10C01059B96
:105320005B6A1A4608F054FF039B0C331B68002B82
:1053300006D0039B0C331B681A46019BDB78137065
:10534000039B08331B6819460598FFF768F9019B12
:1053500000225A70059B0C3301991846FFF732FE64
:105360000FE0019B5B6819460598FFF738F9019932
:105370000598FFF7A3FE04E000BF02E000BF00E0D5
:1053800000BF07B05DF804FB00B58DB0039002913B
:105390000192039B002B02D0029B002B06D16FF0E1
:1053A00003010020FEF722FF0023F9E0029B0333F4
:1053B00023F003030C330793039BB3FA83F2079B99
:1053C000B3FA83F313441F2B06DC6FF003010020B4
:1053D000FEF70CFF0023E3E0039B079A02FB03F3B5
:1053E0000693019B002B46D0019B1B680893019BF1
:1053F0009B680B93019B1B690A93019B5B69059357
:105400000B9B002B0FD00B9B03F00303002B03D14E
:10541000019BDB68332B11D86FF008010020FEF7E9
:10542000E5FE0023BCE0019BDB68002B06D06FF09B
:1054300008010020FEF7DAFE0023B1E00A9B002BF2
:105440000FD00A9B03F00303002B03D1059A069BA0
:105450009A4216D26FF009010020FEF7C7FE002322
:105460009EE0059B002B0CD06FF009010020FEF799
:10547000BDFE002394E00023089300230B93002338
:105480000A930B9B002B23D1474BD3F8A030002B62
:1054900007D0454BD3F8A0301846FFF768FD0B90B6
:1054A00008E0414BD3F88030012234211846FFF741
:1054B000F5FB0B900B9B002B06D16FF00401002035
:1054C000FEF794FE00236BE001238DF8273002E005
:1054D00000238DF827300A9B002B36D1324BDB6F2F
:1054E000002206991846FFF7D9FB0A900A9B002B69
:1054F00020D16FF004010020FEF778FE9DF82730E0
:1055000003F00103002B13D0274BD3F8A030002B5E
:1055100007D0254BD3F8A0300B991846FFF752FD62
:1055200006E0214BD3F880300B991846FFF72EFC8C
:10553000002335E0069A00210A9808F047FF9DF8FD
:10554000273043F002038DF827300B9B08221A7096
:105550000B9B01225A700B9B9DF827209A700B9B86
:10556000089A5A600B9B00229A600B9B029A5A621F
:105570000B9B00229A620B9B0022DA620B9B00229B
:105580001A630B9B03F10C000A9B079A0399FFF720
:10559000A5FC054B054A1A670B98FEF7FFFF0B9B0E
:1055A00018460DB05DF804FBE8010020F151000839
:1055B00010B588B003900291009313468DF8073020
:1055C000039B0793079B002B06D0079B1B78082B98
:1055D00002D1029B002B07D16FF003010798FEF761
:1055E00005FE6FF0030397E0079B5B78002B07D164
:1055F0006FF002010798FEF7F9FD6FF002038BE0F0
:10560000079B9B68002B34D0079B9B685B78832BA0
:105610002FD102990798FEF7E2FF079801F070FB7F
:10562000069001220021069801F0F0FD069801F095
:1056300031FD0590059B08331B681846079B5B6A84
:105640001A46029908F0C4FD059B0C331B68002B19
:1056500006D0059B0C331B681A469DF80730137063
:10566000059B08331B6819460798FEF7D8FF0023EF
:1056700052E0079B0C331846FFF779FC0490049B1B
:10568000002B1FD0049B03F10C00079B5B6A1A469A
:10569000029908F09DFD049B07221A70049B0122C9
:1056A0005A70049B00229A70049B9DF80720DA70C0
:1056B00004990798FFF702FD02990798FEF78FFFFC
:1056C000002329E0009B002B20D0009A0299079824
:1056D000FEF773FFFFF7ECFC03461946079801F04D
:1056E000DDFA0099932001F0B5FDEFF309831C4624
:1056F00023460593059B0833029A1A60059B0C33D9
:105700009DF807201A606FF0010305E002990798E1
:10571000FEF76BFF6FF00203184608B010BD10B51E
:1057200088B00390029101920093039B0793079B1B
:10573000002B06D0079B1B78082B02D1029B002B65
:1057400007D16FF003010798FEF750FD6FF00303D8
:10575000A4E0079B5B78002B07D16FF0020107984C
:10576000FEF744FD6FF0020398E00798FFF7F2FCA4
:105770000690069B002B25D006990798FFF716FD8B
:10578000069B03F10C01079B5B6A1A46029808F01E
:105790001FFD019B002B03D0069BDA78019B1A703A
:1057A00002990798FEF73BFF069B00225A70079B61
:1057B0000C3306991846FFF705FC079B9B68002BE6
:1057C0006BD029E0009B002B1FD0009A029907980C
:1057D000FEF719FFFFF76CFC03461946079801F026
:1057E0005DFA0099832001F035FDEFF309831C4633
:1057F00023460593059B0833029A1A60059B0C33D8
:10580000019A1A606FF0010348E002990798FEF7C9
:105810000CFF6FF0020341E0079B9B685B78932BC2
:105820003BD1079B0C331846FFF7A1FB0690069B64
:10583000002B32D0079801F063FA04900122002176
:10584000049801F0E3FC049801F024FC0590069B09
:1058500003F10C00059B08331B681946079B5B6A24
:105860001A4608F0B5FC069B07221A70069B012217
:105870005A70069B00229A70059B0C331B68DAB2A3
:10588000069BDA7006990798FFF718FC059B08330A
:105890001B6819460798FEF7A2FE0023184608B0B9
:1058A00010BD00B589B003900291009313468DF8A6
:1058B0000730039B0793079B002B09D0079B1B789E
:1058C000082B05D1029B002B02D0009B002B07D098
:1058D0006FF003010798FEF789FC6FF0030345E0C2
:1058E000079B5B78002B07D16FF002010798FEF74A
:1058F0007DFC6FF0020339E0079B0C331846FFF77D
:1059000036FB0690069B002B2AD0069B03F10C0069
:10591000079B5B6A1A46029908F05AFC069B07220D
:105920001A70069B01225A70069B00229A70069BF1
:105930009DF80720DA70069B04330593059B029AB5
:105940001A60069B08330593059B079A1A60069810
:1059500001F0F8F802990798FEF73BFE002305E0F6
:1059600002990798FEF741FE6FF00203184609B04E
:105970005DF804FB00B589B0039002910192009399
:10598000039B0793079B002B09D0079B1B78082BD1
:1059900005D1029B002B02D0009B002B07D06FF09B
:1059A00003010798FEF722FC6FF0030337E0079B23
:1059B0005B78002B07D16FF002010798FEF716FC09
:1059C0006FF002032BE00798FFF7C4FB0690069BDD
:1059D000002B1ED0069B03F10C01079B5B6A1A4645
:1059E000029808F0F5FB019B002B03D0069BDA78A8
:1059F000019B1A7002990798FEF711FE069B0C3363
:105A00000593059B079A1A60069801F09BF80023FE
:105A100005E002990798FEF708FE6FF002031846AA
:105A200009B05DF804FB000000B58BB00390029153
:105A30000192019A02990398FEF7A9FDEFF30583FD
:105A40000993099B002B0BD1EFF310830893089B5C
:105A5000002B05D1EFF311830793079B002B06D092
:105A60006FF005010020FEF7C1FB00231EE0039B41
:105A70000693029B0593019B049306980599049B4A
:105A80001A460C4B9C46EFF3148313F0020F0AD115
:105A900013F0040FEFF308830CBF203B683B23F0A7
:105AA000070383F3098800DF034600BF18460BB0E5
:105AB0005DF804FB8953000810B58CB00390029187
:105AC000009313468DF807309DF80720009B02993C
:105AD0000398FEF768FDEFF305830B930B9B002BF8
