:020000040800F2
:100000000000022075690008A9690008A9690008B4
:10001000A9690008A9690008A96900080000000092
:100020000000000000000000000000001D34000877
:10003000A969000800000000B3340008C3340008B8
:10004000A9690008A9690008A9690008A969000848
:10005000A9690008A9690008A9690008A969000838
:10006000A9690008A9690008A9690008A969000828
:10007000A9690008A9690008A9690008A969000818
:10008000A9690008A9690008A96900088196000803
:100090006D960008A969000895960008A9690008EE
:1000A000A9690008A9690008A9690008A9690008E8
:1000B000A9690008A9690008A9690008A9690008D8
:1000C000A9690008A9690008A9690008A9690008C8
:1000D000A9690008A9690008A9690008A9690008B8
:1000E000A9690008A9690008A9690008A9690008A8
:1000F000A9690008A9690008A9690008A969000898
:10010000A9690008A9690008A9690008A969000887
:10011000A9690008A9690008A9690008A969000877
:10012000A9690008A9690008A9690008A969000867
:10013000A96900080000000000000000BD9600084A
:10014000A9960008A9690008D1960008A9690008C5
:10015000A9690008A9690008A9690008A969000837
:10016000A9690008A9690008A9690008A969000827
:10017000A9690008A9690008A96900080000000031
:1001800000000000A9690008000000000000000055
:10019000A96900080000000000000000A96900082B
:1001A000000000000000000000000000A969000835
:1001B000A9690008A9690008A9690008A9690008D7
:1001C000A969000810B5054C237833B9044B13B165
:1001D0000448AFF300800123237010BD400C0020C1
:1001E000000000009427010808B5034B1BB1034928
:1001F0000348AFF3008008BD00000000440C00205D
:1002000094270108154B002B08BF134B9D46A3F5FF
:10021000803A00218B460F461348144A121A0BF0FD
:10022000C5FE0F4B002B00D098470E4B002B00D083
:1002300098470020002104000D000D48002802D03E
:100240000C4802F0D1FD0BF0EBF92000290002F080
:100250005FFF02F0BFFD00BF0000080000000220A9
:1002600000000000D1310008400C002030280020A0
:10027000E92D00080000000082B001900091009B71
:10028000002B05D0019B9B68019A12681A6005E05B
:10029000019B1A68019BDB6812041A6000BF02B060
:1002A000704782B00190019B5B681A68019B1B68D4
:1002B0001340002B01D0012300E00023184602B0B8
:1002C000704700B583B001900B46ADF80230019B3A
:1002D0001A460023136053609360D3601361536127
:1002E0009361019BBDF902201146184601F0B1FC53
:1002F000019B184603B05DF804FB00B583B0019084
:10030000019B1846FFF7CDFF0346184603B05DF882
:1003100004FB00B583B001900B468DF8033002F06A
:100320004BFA019B9DF803201146184609F02EFB5D
:1003300002F08EFA00BF03B05DF804FB00B585B093
:1003400003900B460192ADF80A30039B1A46002336
:10035000136053609360D360136153619361039B97
:10036000BDF90A10019A184601F0AAFC039B184631
:1003700005B05DF804FB00B583B001900091019BCE
:1003800000991846FFF778FF00BF03B05DF804FB43
:1003900010B58EB00590084611461A460346ADF8D2
:1003A00012300B46ADF810301346ADF80E30059BF9
:1003B000184600F03BFE374A059B1A60059B03F682
:1003C0007C00BDF90E40BDF91020BDF912104FF0B0
:1003D000FF330093234601F055F9059B03F65813AC
:1003E000BDF9401001221846FFF7A8FF059B03F650
:1003F0007413BDF9441001221846FFF79FFF059BB7
:1004000003F51963BDF9482011461846FFF759FF57
:10041000059B03F67C0300220821184601F08CF9A5
:10042000059B03F67C031C49184601F0B9F9059BAE
:1004300003F5196301211846FFF76BFF07AB1C2278
:10044000002118460BF0B2FD06238DF83030002352
:100450008DF83530114B09930623ADF83230002367
:1004600007930F4B0B930A238DF8293055238DF8F2
:10047000343002238DF828303C238DF836300023A9
:10048000089307AB1946059800F07BF8059B1846C2
:100490000EB010BDC816010840420F00B0DB940238
:1004A00020A1070082B001900023184602B07047D7
:1004B00000B597B003900291019201238DF853305B
:1004C000039800F093F9039800F002FA0346012B19
:1004D0000CBF01230023DBB2002B01D0002331E04D
:1004E000019B1593159B002B2AD0159B3B2B12D9F2
:1004F00005AB3C22029918460BF05AFC05AB3C2296
:100500001946039800F00EFA159B3C3B1593029B8D
:100510003C330293E6E705AB3C22002118460BF082
:1005200045FD05AB159A029918460BF041FC05AB49
:100530003C221946039800F0F5F900231593D1E702
:100540009DF85330184617B05DF804FB00B583B032
:100550000190019B03F6741300211846FFF70BFF6F
:100560000A2002F081FC019B03F674130121184656
:10057000FFF701FF0A2002F077FC00BF03B05DF82F
:1005800004FB00B583B001900091019B002283F829
:10059000BD290198FFF7DAFF019800F05BFA009B94
:1005A0009B681946019800F089FA00220E210198F3
:1005B00000F049F900220F21019800F044F90C21C4
:1005C000019800F02BF9034643F00303DBB21A460F
:1005D0000C21019800F037F9009B1B7B194601980C
:1005E00000F044FA009B5B7B1946019800F0C2FAC8
:1005F000009B1B7D1946019800F0FAFB009B1B69CC
:100600001946019800F018FB009BDB8A19460198F7
:1006100000F021FC009B1B7E1946019800F04EFC67
:10062000009B9B7E1946019800F0D5F9009B5B7EEC
:10063000002B03D0019800F062FC02E0019800F06A
:1006400072FC009B1B68002B06D0009B1B681946A0
:10065000019800F0E9F903E00021019800F0E4F9C5
:10066000009B5B68002B05D0009B5A68019BC3F878
:10067000B82903E0019B0022C3F8B829019800F0D3
:10068000DDF900BF03B05DF804FB00B587B003904F
:100690000B468DF80B3013468DF80A30039B93F808
:1006A000BD39DBB2002B14BF01230023DBB2002BCA
:1006B00001D0002336E0039B012283F8BD290023EB
:1006C0008DF8143000238DF815309DF80B308DF81F
:1006D00010309DF80A308DF81130039B03F6581343
:1006E00000211846FFF747FE0A2002F0CDFB039BCE
:1006F00003F67C0005AA04A90223009313460222F4
:1007000001F0BFF80A2002F0BFFB039B03F6581369
:1007100001211846FFF72FFE039B002283F8BD2915
:100720009DF81530184607B05DF804FB10B5C6B04B
:1007300005AC2060084603A90A6019460DF11303B1
:1007400002461A700DF112030A461A7005AB1B68B7
:1007500093F8BD39DBB2002B14BF01230023DBB2B9
:10076000002B40D105AB1B68012283F8BD290DF198
:1007700013031B7863F07F03DAB206AB1A700DF136
:100780001203197803AB06AA501C0A4619680BF02D
:100790000FFB05AB1B6803F6581300211846FFF743
:1007A000EAFD0A2002F070FB05AB1B6803F67C0033
:1007B0000DF112031B785A1C06A900230093002395
:1007C00001F05FF80A2002F05FFB05AB1B6803F63F
:1007D000581301211846FFF7CEFD05AB1B68002218
:1007E00083F8BD2900E000BF46B010BD00B583B05E
:1007F0000190019B03F519631846FFF77EFD034640
:10080000002B14BF01230023DBB2002B02D0019880
:1008100000F0C5FB00BF03B05DF804FB00B583B07A
:1008200001900B468DF803309DF8033003F07F03F1
:10083000DBB2002219460198FFF727FF034618464E
:1008400003B05DF804FB00B583B001900B468DF852
:10085000033013468DF802309DF8033063F07F03B8
:10086000DBB29DF8022019460198FFF70EFF00BF8A
:1008700003B05DF804FB00B585B001900B468DF820
:10088000033013468DF80230019800F028FB034630
:100890008DF80F309DF80F30802B02D0019800F0BA
:1008A000D9F89DF802209DF8033019460198FFF70A
:1008B000CAFF9DF80F30802B06D09DF80F301A46E6
:1008C00001210198FFF7BFFF00BF05B05DF804FBF1
:1008D00000B585B00190019800F001FB03468DF84A
:1008E0000F309DF80F30832B01D1012316E09DF8C6
:1008F0000F30852B03D09DF80F30862B01D10223BA
:100900000CE09DF80F30812B01D1002306E09DF80B
:100910000F30802B01D1012300E00423184605B0DD
:100920005DF804FB00B587B00390029113468DF883
:1009300007300398FFF7CCFF03468DF817309DF87A
:100940001730012B03D09DF81730042B01D1002361
:100950003DE0039800F072F8402240210398FFF731
:1009600072FF00220D210398FFF76DFF9DF80730FD
:10097000029A00210398FFF7D9FE039B93F8BC3934
:10098000002B06D19DF807301A4622210398FFF765
:100990005AFF832201210398FFF755FF1221039884
:1009A000FFF73CFF034603F00803002B0CBF0123B5
:1009B0000023DBB2002B00D0F0E7082212210398BD
:1009C000FFF741FF00238DF817309DF807301846D8
:1009D00007B05DF804FB00B583B001900B468DF8BD
:1009E00003309DF80330002B0AD0019800F0C3FAC1
:1009F0009DF803301A4622210198FFF724FF02E0F8
:100A0000019800F0A4FA019B9DF8032083F8BC290B
:100A100000BF03B05DF804FB82B00190019B93F826
:100A2000BC39184602B0704782B001900091019B1A
:100A3000009AC3F8B42900BF02B0704700B583B074
:100A40000190812201210198FFF7FDFE00BF03B054
:100A50005DF804FB00B583B001908022012101986C
:100A6000FFF7F1FE00BF03B05DF804FB00B583B0F3
:100A700001900B468DF803309DF80330012B03D80D
:100A800002238DF8033006E09DF80330112B02D9C4
:100A900011238DF803309DF80330023BDBB25BB2CB
:100AA00063F07F035BB2DBB21A4609210198FFF7BE
:100AB000E2FE00BF03B05DF804FB000070B586B035
:100AC00001900091019B009AC3F8AC29009B4FF064
:100AD00000045E0BDD04264A4FF000032846314631
:100AE00010F062FC03460C46CDE90434019800F096
:100AF000F6F903468DF80F309DF80F30802B02D0A9
:100B00000198FFF7A7FFDDE904124FF000034FF053
:100B100000040B0C43EA0243140CDBB21A46062114
:100B20000198FFF790FEDDE904124FF000034FF04B
:100B300000040B0A43EA0263140ADBB21A460721D7
:100B40000198FFF780FE9DF810301A4608210198A1
:100B5000FFF779FE9DF80F30802B06D09DF80F30FF
:100B60001A4601210198FFF76EFE00BF06B070BD66
:100B70000048E80100B585B001900B468DF80330C0
:100B80009DF80330052B03D806238DF8033006E0CB
:100B90009DF803300C2B02D90C238DF803300198FB
:100BA00000F09DF903468DF80F309DF80F30802B33
:100BB00002D00198FFF74EFF9DF80330062B0AD1B3
:100BC000C52231210198FFF73EFE0C223721019802
:100BD000FFF739FE09E0C32231210198FFF733FE08
:100BE0000A2237210198FFF72EFE1E210198FFF7F8
:100BF00015FE03465BB203F00F035AB29DF80330B3
:100C00001B015BB213435BB2DBB21A461E21019893
:100C1000FFF719FE9DF80F30802B06D09DF80F309E
:100C20001A4601210198FFF70EFE00BF05B05DF8DE
:100C300004FB00000000000000B585B001900091A9
:100C4000009810F05FF856A3D3E9002310F050FB92
:100C50000346002B03D000238DF80F3085E0009869
:100C600010F050F850A3D3E9002310F041FB0346E5
:100C7000002B03D001238DF80F3076E0009810F0A0
:100C800041F84BA3D3E9002310F032FB0346002BBD
:100C900003D002238DF80F3067E0009810F032F88F
:100CA00045A3D3E9002310F023FB0346002B03D018
:100CB00003238DF80F3058E0009810F023F840A37C
:100CC000D3E9002310F014FB0346002B03D00423C8
:100CD0008DF80F3049E0009810F014F83AA3D3E9EA
:100CE000002310F005FB0346002B03D005238DF8ED
:100CF0000F303AE0009810F005F835A3D3E900234F
:100D000010F0F6FA0346002B03D006238DF80F30BF
:100D10002BE000980FF0F6FF2FA3D3E9002310F08B
:100D2000E7FA0346002B03D007238DF80F301CE0B1
:100D300000980FF0E7FF2AA3D3E9002310F0D8FAB8
:100D40000346002B03D008238DF80F300DE00098E8
:100D50000FF0D8FF24A3D3E9002310F0C9FA03460B
:100D6000002B02D009238DF80F301D210198FFF7C9
:100D700055FD03465BB203F00F035AB29DF80F30E6
:100D80001B015BB213435BB2DBB21A461D21019813
:100D9000FFF771FD00BF05B05DF804FBAFF3008005
:100DA000000000000078BE40000000000050C44079
:100DB000000000000078CE40000000000050D44049
:100DC000000000008084DE4000000000805CE44001
:100DD000000000008084EE40000000008084FE409F
:100DE0000000000080840E410000000080841E414D
:100DF00000B585B001900B468DF803309DF80330A7
:100E0000042B03D805238DF8033006E09DF803304A
:100E1000082B02D908238DF803309DF80330043BDA
:100E20008DF80F301D210198FFF7F8FC03465BB2E7
:100E300023F00E035AB29DF80F305B005BB21343F0
:100E40005BB2DBB21A461D210198FFF714FD00BF0B
:100E500005B05DF804FB00B585B001900B46ADF818
:100E60000230019800F03BF803468DF80F309DF8F2
:100E70000F30802B02D00198FFF7ECFDBDF8023057
:100E80001B12DBB21A4620210198FFF7DCFCBDF8EB
:100E90000230DBB21A4621210198FFF7D4FC9DF8FD
:100EA0000F30802B06D09DF80F301A460121019893
:100EB000FFF7C9FC00BF05B05DF804FB00B583B0C7
:100EC00001900B468DF803309DF803301A46392106
:100ED0000198FFF7D0FC00BF03B05DF804FB00B53C
:100EE00085B0019001210198FFF798FC03468DF829
:100EF0000F309DF80F30184605B05DF804FB00B5C3
:100F000083B001901E210198FFF788FC034643F04F
:100F10000403DBB21A461E210198FFF7ACFC00BFA8
:100F200003B05DF804FB00B583B001901E21019869
:100F3000FFF774FC034623F00403DBB21A461E21BC
:100F40000198FFF798FC00BF03B05DF804FB00B503
:100F500083B001901D210198FFF760FC034623F048
:100F60000103DBB21A461D210198FFF76CFC00BF9C
:100F700003B05DF804FB00B583B001901D2101981A
:100F8000FFF74CFC034643F00103DBB21A461D2178
:100F90000198FFF758FC00BF03B05DF804FB00B5F3
:100FA00085B001900198FFF737FD03461A462221CC
:100FB0000198FFF748FC12210198FFF72FFC034628
:100FC0008DF80F309DF80F301A4612210198FFF767
:100FD0003AFC9DF80F3003F04003002B13D09DF82E
:100FE0000F3003F02003002B1CD1019B0022C3F81B
:100FF000B029019BD3F8B439002B13D0019BD3F84F
:10100000B43998470EE09DF80F3003F00803002B29
:1010100008D0019BD3F8B839002B03D0019BD3F83B
:10102000B839984700BF05B05DF804FB00B583B040
:101030000190124A019B1A60019B03F16C00019B15
:1010400005336422194600F0A1F8019B03F16C02FC
:10105000019BC3F88020019B0022C3F88420019BE0
:101060000022C3F88820019B7C33184600F0D9F891
:10107000019B184603B05DF804FB00BF241701086C
:1010800000B58BB0059004910392039B99B2059B28
:1010900003F19802059B03F67403009340F2D973A1
:1010A000049800F0D1F80990059B1B79002B33D0F0
:1010B000039A04992F480AF0C3FF2F480AF0C0FF93
:1010C00000230893089A039B9A420BDA089B049A20
:1010D00013441B78194629480AF0B2FF089B0133D4
:1010E0000893EFE726480AF0ABFF00230793079A1F
:1010F000099B9A420DD2059BD3F87428079B134491
:101100001B7819461F480AF09BFF079B0133079382
:10111000EDE71D480AF094FF099B002B25D0099BA1
:101120007E2B15D9059B1B6804331B68059AD2F8E2
:1011300074187F2205989847099B7F3B0993059B6C
:10114000D3F8743803F17F02059BC3F87428E3E7F2
:10115000059B1B6804331B68059AD2F87418099A1A
:101160000598984700230993D6E7012318460BB04A
:101170005DF804FBD0160108EC160108FC16010806
:1011800000170108101701081817010800B585B0ED
:10119000039002911346ADF80630039B029A1A6041
:1011A000BDF80620039BDA60039800F005F80023E1
:1011B000184605B05DF804FB82B00190019B002247
:1011C0005A60019B00229A6000BF02B0704786B04F
:1011D000039002910192039B049300238DF8173032
:1011E00017E0049A029B534003F00103002B05D043
:1011F000049B5B08019A5340049302E0049B5B0844
:101200000493029B5B0802939DF8173001338DF81D
:1012100017309DF81730072BE3D9049B184606B00A
:10122000704782B00190019A137D6FF3000313752C
:10123000019B00225A82019A137D6FF38303137579
:101240000023184602B0704700B58FB0039001929A
:101250001A460B46ADF80A301346ADF808300223A3
:101260000D9300230C930023ADF82E30BDF80A3007
:101270004FF6FF72934201D10023E0E0019B0A93F5
:101280000A9B05330993BDF80820BDF80A300233E4
:101290005B0005339A4201DA0023D0E000230D936E
:1012A00034E0BDF808200D990C9B0B4405339A429D
:1012B00001D80023C3E0039A0D9B13441B78FF2B36
:1012C00009D10D9A0C9B1344099A1344FF221A70FA
:1012D0000C9B01330C93039A0D9B1A440D990C9BA4
:1012E0000B4409990B4412781A70BDF82E00039A2A
:1012F0000D9B13441B784AF201021946FFF767FF62
:101300000346ADF82E300D9B01330D93BDF80A3026
:101310000D9A9A42C5D3BDF82E301B0A99B20D9A88
:101320000C9B1344099A1344CAB21A700D9A0C9B71
:101330001344099A13441B78FF2B09D10C9B0133EA
:101340000C930D9A0C9B1344099A1344FF221A70B4
:101350000D9A0C9B13440133099A1344BDF82E20B7
:10136000D2B21A700D9A0C9B13440133099A13449C
:101370001B78FF2B0AD10C9B01330C930D9A0C9B0D
:1013800013440133099A1344FF221A70BDF80A303E
:1013900002330893089A0C9B1344079303238DF898
:1013A0002D3000230C93FF238DF81030089BDBB207
:1013B0008DF811309DF81130FF2B09D1FF238DF8E6
:1013C00012309DF82D3001338DF82D3001230C9310
:1013D000089B1A0A0C9B0233D2B20EA90B4403F8E5
:1013E000282C0C9B02330EAA134413F8283CFF2B25
:1013F0000DD10C9B03330EAA1344FF2203F8282CB3
:101400009DF82D3001338DF82D3002230C939DF87B
:101410002D30C3F105031A460A9B134409939DF826
:101420002D2004AB194609980AF0C2FC079A0C9BC0
:10143000134403330693109B099A1A60069B1846BF
:101440000FB05DF804FB000010B5ADF51E6D08A8E7
:1014500000230293082301931A23009313231422D9
:101460001521FEF795FF0C480AF0EAFD04AB0B4A84
:101470001C4613460FCB07C423804FF07E5001F06B
:10148000DDFC04A908AB0E221846FFF7F9FD04485D
:101490000AF0D6FDF1E700BF2C1701086817010814
:1014A0005817010882B001900091009B184602B0C5
:1014B0007047000008B5044B1B684FF0FF31184619
:1014C00003F0A8FE00BF08BD7825002008B5034B37
:1014D0001B68184603F0D2FE00BF08BD7825002027
:1014E00000B583B00190019800F006F80346184655
:1014F00003B05DF804FB000010B582B00190019BC1
:101500001B68002B18D1FFF7D5FF019B1B68002B30
:1015100010D1019B043319462420FFF7C3FF044672
:10152000002C04D0204601F0EBFC224600E02246CD
:10153000019B1A60FFF7CAFF019B1A68019B0433E5
:101540009A4204D05D220449044801F06BF8019BE3
:101550001B68184602B010BD78170108A0170108D3
:1015600000B583B00190019BDB68002B04D0019B88
:10157000DB689B6801989847019B184603B05DF8AB
:1015800004FB00B583B001900091009B002B05D1B6
:101590001022002101980AF009FD04E06B4619466B
:1015A000019800F005F8019B184603B05DF804FBB4
:1015B00000B583B0019000911022002101980AF03B
:1015C000F5FC019B19460420FFF76CFF0346002B36
:1015D00002D0009A12681A60019B034ADA6000BFC9
:1015E00003B05DF804FB00BFB417010800B583B079
:1015F00001900091019B1B680098984700BF03B0C1
:101600005DF804FB00B583B001900091019B194681
:101610000420FFF747FF0346002B02D0009A126810
:101620001A6000BF03B05DF804FB82B0019000BFF8
:1016300002B0704700B583B001900A4A019B1A605E
:10164000019BB8331846FFF78BFF019B9433184674
:1016500000F083F9019800F07AF9019B184603B075
:101660005DF804FBC817010800B583B0019001982C
:10167000FFF7E0FF019801F0D1FB019B184603B092
:101680005DF804FB10B586B00590084611461A4671
:101690000346ADF812300B46ADF810301346ADF8E6
:1016A0000E30059800F07BF9214A059B1A60059BD6
:1016B00004339022002118460AF078FC059B9433ED
:1016C0000599184600F071F9059BB83300211846BA
:1016D000FFF757FF059B002283F8C820059B0022D7
:1016E00083F8C920059B0822C3F8CC20059B002263
:1016F000C3F8D020059B0F4AC3F8D420059BFF22D6
:1017000083F8D820059B181DBDF90E40BDF91020A7
:10171000BDF91210BDF920300093234608F0B2FF46
:10172000059800F069F8059B184606B010BD00BF8B
:10173000C817010840420F0000B585B00390029120
:101740000192039B1B6808331B6803989847039B0F
:10175000029AC3F8CC20039B019AC3F8D0200F4B08
:101760001B68039A9A420BD1039B181D039BD3F865
:10177000CC10039BD3F8D020002309F0ABF802E093
:10178000039800F039F8039B1B680C331B6803981F
:10179000984700BF05B05DF804FB00BFC00C0020F7
:1017A00000B583B001900091019B1B6808331B6852
:1017B00001989847019B009AC3F8D4200D4B1B68F1
:1017C000019A9A4209D1019B1A1D019BD3F8D4308A
:1017D0001946104609F0E2F802E0019800F00CF812
:1017E000019B1B680C331B680198984700BF03B02E
:1017F0005DF804FBC00C002000B583B00190104BD5
:101800001B68019A9A4216D0019B181D019BD3F8C0
:10181000CC10019BD3F8D020002309F05BF8019B8A
:101820001A1D019BD3F8D4301946104609F0B6F8BA
:10183000034A019B136000BF03B05DF804FB00BFC7
:10184000C00C002000B585B001900091019B1B6881
:1018500008331B68019898470198FFF7CDFF019B5B
:1018600004330099184609F0D7F80390019B1B68D0
:101870000C331B6801989847039B184605B05DF828
:1018800004FB00B589B00590049103920293059B77
:101890001B6808331B68059898470598FFF7ACFF4D
:1018A000059B181D059B93F8D83001930A9B009364
:1018B000029B039A049909F004F90790059B1B68A1
:1018C0000C331B6805989847079B184609B05DF8CC
:1018D00004FB000000B583B001900648FFF700FE4E
:1018E00003464FF0FF31184601F056FB00BF03B02E
:1018F0005DF804FBC40C002000B583B001900548DE
:10190000FFF7EEFD0346184601F05EFB00BF03B093
:101910005DF804FBC40C002000B583B00190019B6E
:10192000143300211846FFF72CFE019B184603B024
:101930005DF804FB00B583B00190019B1433184699
:10194000FFF70EFE019B184603B05DF804FB82B062
:101950000190019B184602B0704782B00190019B34
:10196000184602B0704730B583B00190019B012446
:101970001D46002C05DB284600F039F82C35013CCB
:10198000F7E7019B00229A65019B0022DA65019B23
:10199000002283F86020019B184603B030BD82B05E
:1019A0000190019B184602B0704700B587B00390C4
:1019B000029100230493002305930023009304ABBA
:1019C0000CCB0299039800F029F8039B184607B046
:1019D0005DF804FB00B583B00190019B0433184609
:1019E000FFF7A8FF019B184603B05DF804FB00B5A4
:1019F00083B00190019B00221A60019B04332822CE
:101A0000002118460AF0D2FA019B04331846FFF76A
:101A100083FF019B184603B05DF804FB84B003907C
:101A20000291694681E80C00039B04336A4692E800
:101A3000030083E80300039B0D4ADA60039B48F22E
:101A400007021A61049A039B9A61029A039B5A61E6
:101A5000039B04331A46039BDA61064A039B1A620E
:101A6000BFF36F8FBFF34F8F00BF04B0704700BF4D
:101A700001A090E8791A000800B585B003900291A2
:101A80000192039B002B25D0019B1B68002B05D1E5
:101A9000019B5B6803F00103002B1BD0019B5B687B
:101AA0005B101A46039B9818019B5B6803F00103C7
:101AB000002B02D1019B1B680AE0019B5B685B1055
:101AC0001A46039B13441B68019A126813441B684F
:101AD0000299984700BF05B05DF804FB00B583B0DC
:101AE00001900091019B012B0CD1009B4FF6FF72DE
:101AF000934207D10548FFF736FF054A05490348D9
:101B000001F060F900BF03B05DF804FB5C0C00203D
:101B1000C8010020191B000810B582B00190019B7C
:101B2000002B0AD0019B03F15804019B9C4204D076
:101B30002C3C2046FFF74EFFF7E7019B184602B00A
:101B400010BD08B54FF6FF710120FFF7C7FF08BDB4
:101B500000B583B001900091019B012B0BD1009B3C
:101B60004FF6FF72934206D105480AF089FC0346FE
:101B70001A46044B1A6000BF03B05DF804FB00BFB7
:101B8000E0170108EC0C002008B54FF6FF710120AA
:101B9000FFF7DEFF08BD82B001900091009B002B93
:101BA00005D0019B9B68019A12681A6005E0019BB1
:101BB0001A68019BDB6812041A6000BF02B070470C
:101BC00000B583B001900B46ADF8023013468DF896
:101BD0000130BDF902301946019807F091FEBDF9B8
:101BE0000230B3F1FF3F09D00021019807F0E1FE78
:101BF0009DF801301946019807F0C8FE00BF03B0F8
:101C00005DF804FB00B585B0039001930B46ADF879
:101C10000A3013468DF80930BDF90A301946039889
:101C200007F06EFEBDF90A30B3F1FF3F0DD0019908
:101C30000398FFF7B0FF0121039807F0BAFE9DF863
:101C400009301946039807F0A1FE00BF05B05DF802
:101C500004FB00B583B001900B46ADF80230BDF92E
:101C6000023000221946019800F004F800BF03B0CA
:101C70005DF804FB00B583B001900B46ADF802306F
:101C800013468DF801309DF80120BDF90230194648
:101C90000198FFF795FF00BF03B05DF804FB00B5A6
:101CA00083B001900B46ADF80230BDF9023000223E
:101CB0001946019800F004F800BF03B05DF804FB7A
:101CC00000B585B003900B460192ADF80A30BDF91E
:101CD0000A10019B00220398FFF794FF00BF05B094
:101CE0005DF804FB00B583B003460091ADF8063003
:101CF000BDF90630B3F1FF3F23D018E0009BB3F9E4
:101D00000030BDF906209A420ED1009B9A68BDF9B9
:101D100006301146184608F0D5F8BDF90630002106
:101D2000184608F05DF90DE0009B0C330093009B12
:101D3000B3F90030B3F1FF3FE0D1044800F002FEF8
:101D400000E000BF03B05DF804FB00BF0C18010801
:101D500000B583B001900091019A009B9A4201D195
:101D6000019B10E0019BB3F1FF3F01D1009B0AE012
:101D7000009BB3F1FF3F01D1019B04E0044800F058
:101D8000E1FD4FF0FF33184603B05DF804FB00BFE0
:101D90002018010882B003460091ADF806300CE02F
:101DA000009BB3F90030BDF906209A4202D1009B96
:101DB0005B680AE0009B0C330093009BB3F9003092
:101DC000B3F1FF3FECD14FF0FF33184602B070473C
:101DD00000B585B003460091ADF806304FF0FF33F3
:101DE0000393BDF90630B3F1FF3F02D14FF0FF334B
:101DF0000EE0BDF9063000991846FFF7CBFF0390BF
:101E0000039BB3F1FF3F02D1034800F09BFD039B0E
:101E1000184605B05DF804FB3418010808B500F059
:101E2000CBFC094B1B884FF6FF72934204D100F0A4
:101E30000FFD064800F086FD0121034800F04CFD2F
:101E400000F006FD00BF08BDF00C0020741801086A
:101E500008B500F0B1FC084B1B88002B04D100F042
:101E6000F7FC064800F06EFD0121034800F04FFD2D
:101E700000F0EEFC00BF08BDF00C0020A418010823
:101E800008B500F099FC08F069FB00F0E1FC00BF28
:101E900008BD00002DE9F04989B00190019B5B6805
:101EA00093F83830002B40F0C980019B1B681B68F9
:101EB0009847019B1B689B6998470590059B1B6889
:101EC0000793059B1B68002B06D129225D495E48BC
:101ED00000F0A8FB5D4B0793059B5B680693059B91
:101EE0005B68202B03D8059B5B68032B06D82F2249
:101EF0005449554800F096FB20230693069B043B6B
:101F0000072202FA03F30493049B1F464FF00008D4
:101F10003B4644464FF000014FF00002620142EAA6
:101F2000D36259010B461446DB1B64EB08044FF0E7
:101F300000014FF00002620242EAD35259020B46FE
:101F40001446DB1944EB08044FF0000B4FF0000C73
:101F50004FEA841C4CEA936C4FEA831BBBEB030BE8
:101F60006CEB040C1BEB07014CEB0802079B1F46B4
:101F70004FF000087B1848EB020413F1FF3044F1E6
:101F8000FF31079B4FF000041A4623460FF00CFA6E
:101F900003460C46CDE90234019B5B6800221A60BF
:101FA000019B5B6800225A60019B1B685B68019A79
:101FB0005468984703462362019B5A684FF0000318
:101FC0004FF00004C2E90A34019B5B68079A9A60EB
:101FD0004FF001034FF00004069AA2F12000C2F175
:101FE000200104FA02F603FA00F0064323FA01F195
:101FF0000E4303FA02F52A46019B5B68013ADA6058
:10200000019B5B68049A1A61019B5A68DDE90234FE
:10201000C2E90634019B5A684FF000034FF00004F8
:10202000C2E90C34019B5B68012283F838200198D7
:1020300000F00EF8019800F0EFF900E000BF09B0E1
:10204000BDE8F089CC180108F018010840420F00E3
:102050002DE970488DB00190019B5B680993019B4D
:102060001B685B6898470890019B5B681B6A089A2D
:102070009A4200F02181099B1B6A089AD21A099B97
:10208000DB6813404FF00004CDE90634099B089A41
:102090001A62099B9B688A4A934204D1DDE906349F
:1020A000CDE90A34FCE0099B9B68B3F5004F78D179
:1020B000DDE906562B4634464FF000014FF0000292
:1020C000620142EAD36259010B4614465B1B64EB82
:1020D00006044FF000014FF00002620242EAD352C0
:1020E00059020B4614465B1944EB06044FF00001FD
:1020F0004FF00002A20142EA93629901C91A62EB11
:1021000004024B1942EB0604CDE90234DDE9021268
:102110004FF000034FF00004CB0B43EA4243D40BD3
:10212000CDE90A34099BD3E90A56DDE90A124FF0DA
:1021300000034FF00004D40344EA5144CB03DDE92B
:102140000212C91A62EB04028B4694461BEB05038C
:102150004CEB0604099AC2E90A34099BD3E90A1236
:10216000099B9B684FF00004A24208BF9942C0F04F
:102170009780DDE90A34591C44F10002CDE90A12C6
:10218000099BD3E90A12099B9B681D464FF0000684
:102190000B4614465B1B64EB0604099AC2E90A3439
:1021A0007EE0DDE906562B4634464FF000014FF045
:1021B0000002620142EAD36259010B4614465B1BDE
:1021C00064EB06044FF000014FF00002620242EAA5
:1021D000D35259020B4614465B1944EB06044FF0E8
:1021E00000014FF00002A20142EA93629901C91A6C
:1021F00062EB04024B1942EB0604CDE90434099B5F
:102200009B684FF000041A462346DDE904010FF0F5
:10221000CBF803460C46CDE90A34099BD3E90A12F0
:10222000099B9B684FF000040A9804FB00F50B988B
:1022300003FB00F028440A9DA5FB03342044044618
:10224000DDE90456ED1A66EB0406AB46B4461BEB1B
:1022500001034CEB0204099AC2E90A34099BD3E951
:102260000A12099B9B684FF00004A24208BF9942E2
:1022700016D3DDE90A34591C44F10002CDE90A12F3
:10228000099BD3E90A12099B9B681D464FF0000683
:102290000B4614465B1B64EB0604099AC2E90A3438
:1022A000099BD3E90C12DDE90A345D1844EB020600
:1022B000099AC2E90C5600E000BF0DB0BDE8708875
:1022C00040420F002DE9104889B00390CDE900236A
:1022D000039B5B680693069BD3E90CBCDDE9001207
:1022E0000B461446B3EB0B0364EB0C04CDE904344A
:1022F000039B5B681B690793039B5B68D3E906122A
:10230000DDE90434A24208BF994255D3069B9B687D
:102310002F4A93420CD1049B0793039B5B681B6974
:10232000079A9A4248D9039B5B681B69079343E06D
:10233000069B9B68B3F5004F1CD1DDE904344FF0D8
:1023400000004FF00001E10341EA5341D803204A65
:102350004FF000030FF028F803460C460793039B49
:102360005B681B69079A9A4226D9039B5B681B69C5
:10237000079321E0069B9B684FF00004049A04FB3E
:1023800002F1059A03FB02F20A440499A1FB03013E
:10239000531819460E4A4FF000030FF005F8034694
:1023A0000C460793039B5B681B69079A9A4203D903
:1023B000039B5B681B690793069B1A6A079B1A4479
:1023C000069BDB681340184609B0BDE8108800BFC3
:1023D00040420F0084B0039002910192019A039B46
:1023E0009A420BD9029A019B9A4203D2029A039B0A
:1023F0009A4201D201230CE000230AE0029A039BD7
:102400009A4205D2029A019B9A4201D3012300E02D
:102410000023184604B0704710B58AB00190019BA4
:102420005B6809930198FFF713FE019B5B685B688B
:10243000002B38D0019B5B68D3E90C34CDE906341E
:10244000019B5B685B68D3E90034CDE90434DDE9C6
:102450000434DDE90612A24208BF994204D3019B6D
:102460001B685B6998472CE0DDE904230198FFF7BE
:1024700029FF0390019B1B681B6903989847019BE8
:102480001B685B6898470290099B1B6A039A029934
:102490001846FFF79FFF0346002B12D0019B1B68D5
:1024A0005B6998470DE0099B1A6A099B1B691A44EE
:1024B000099BDB6813400893019B1B681B69089804
:1024C00098470AB010BD10B584B00190019B1B68FD
:1024D000DB689847019B5B685B68002B27D00198FD
:1024E000FFF7B6FD019B5B685B68D3E90034019A96
:1024F0005268D2E90C12A24208BF994219D3019B3B
:102500005B685B680393019B5B685A68019B5B682F
:10251000D2685A60019B5B681B68002BDAD0019B74
:102520005B681B68039A926810469847D2E700BF21
:1025300000E000BF0198FFF76FFF00BF04B010BDBF
:1025400010B582B00190019800F005F803460C46E2
:10255000184602B010BD10B582B001900198FFF787
:1025600099FC0198FFF774FD019B5B68D3E90C347B
:102570001846214602B010BD014B1846704700BFF7
:102580001019010808B5054B1B68002B03D0034B3D
:102590001B680348984700BF08BD00BFCC0100205E
:1025A0001019010800B585B0019000910023039334
:1025B0000099019809F0EEF80390039B184605B0C6
:1025C0005DF804FB00B587B00390029101920023EF
:1025D0000593019A0299039809F046FD0590059B21
:1025E000184607B05DF804FB00B583B00190009178
:1025F0000099019808F064FD00BF03B05DF804FB8A
:1026000000B587B003900291019200230593019ACF
:102610000299039808F012FB0590059B184607B035
:102620005DF804FB00B585B003900291019200F0C3
:10263000C3F8019B029A0399044800F05CF800F08B
:102640001CF800BF05B05DF804FB00BF18190108B5
:1026500082B001900091009B002B05D0019B9B68EC
:10266000019A12681A6005E0019B1A68019BDB68F9
:1026700012041A6000BF02B0704700B58BB000F0C2
:102680009BF801AB05211846FFF709FB00230993CE
:1026900012E001AB01211846FFF7DAFF962000F0A7
:1026A000E3FB01AB00211846FFF7D2FF962000F0B4
:1026B000DBFB099B01330993099B032BE9DD002315
:1026C000089314E001AB01211846FFF7C1FF4FF456
:1026D000C87000F0C9FB01AB00211846FFF7B8FF36
:1026E0004FF4C87000F0C0FB089B01330893089BAF
:1026F000032BE7DDCAE70FB400B583B005AB019348
:102700000199049800F006F800BF03B05DF804EBEF
:1027100004B0704700B5A5B00190009100F04CF8EE
:1027200002A8009B019A80210CF0A6FC2290229B1B
:10273000002B1ADD104B1B68002B04D10322022151
:102740000E4807F0D5FC002323930AE002AA239B3E
:1027500013441B781946094806F02AFE239B0133CF
:102760002393239A229B9A42F0DB00F071F800BF7A
:1027700025B05DF804FB00BFBC14002080270020BA
:1027800082B0EFF310830193019B03F00103002B50
:102790000CBF01230023DBB2184602B0704782B0A1
:1027A000EFF305830193019B002B14BF012300234A
:1027B000DBB2184602B0704700B583B0FFF7E0FF08
:1027C0000346002B14BF01230023DBB283F0010377
:1027D000DBB28DF807309DF8073003F001038DF868
:1027E000073072B6154B1B68002B03D1144A9DF8B5
:1027F00007301370114B1B68B3F1FF3F04D1432224
:1028000010491148FFF70EFF0C4B1B68002B0BD033
:102810009DF8073083F00103DBB2002B04D0472280
:1028200008490A48FFF7FEFE044B1B680133034AC0
:10283000136000BF03B05DF804FB00BF380D00203B
:102840003C0D00204C190108701901089819010865
:1028500000B583B01C4B1B68002B30D0FFF790FFF6
:102860000346002B14BF01230023DBB283F00103D6
:10287000DBB28DF807309DF8073003F001038DF8C7
:1028800007309DF8073083F00103DBB2002B04D042
:1028900058220E490E48FFF7C5FE0B4B1B68013B43
:1028A000094A1360084B1B68002B08D1094B1B78A1
:1028B000DBB283F00103DBB2002B00D062B600BFB5
:1028C00003B05DF804FB00BF380D00204C1901086F
:1028D000981901083C0D002000B585B001900B4609
:1028E000ADF80230FFF768FF019B1A88BDF802308F
:1028F0001344ADF80E30019BBDF80E201A80FFF78F
:10290000A7FFBDF80E30184605B05DF804FB00B512
:1029100085B001900B46ADF80230FFF74DFF019BEB
:102920001A88BDF80230D31AADF80E30019BBDF8FD
:102930000E201A80FFF78CFFBDF80E30184605B048
:102940005DF804FB0FB400B583B00B4B1B78002B74
:102950000BD1094B01221A7005AB01930199049820
:10296000FFF7D8FE012000F035FA00BF03B05DF894
:1029700004EB04B0704700BF3D0D002008B5084BC4
:102980001B68002B0AD103220221064807F0B0FB86
:102990004FF41651034807F02DFD00E000BF08BDBD
:1029A000BC1400208027002000B585B00190019B59
:1029B000022B01DC00232AE0019B033B164A52F85C
:1029C00023300393019B033B134A002142F8231059
:1029D000039B002B07D108F065F902460923136019
:1029E0004FF0FF3313E0039B1B6814331B680398FD
:1029F00098470290029B002B08DA08F053F9024630
:102A0000029B5B4213604FF0FF3300E00023184647
:102A100005B05DF804FB00BF480D002000B589B08B
:102A20000390029101920093FFF7B9FE0346002B39
:102A300007D1FFF7A5FE034683F00103DBB2002BAD
:102A400001D0012300E00023002B02D02448FFF72F
:102A500079FF039B022B1ADC224B1B68002B01D150
:102A6000FFF78CFF00230693069A019B9A420BD234
:102A7000029A069B13441B7819461B4806F098FCE3
:102A8000069B01330693EFE7019B079322E0039B2C
:102A9000033B164A52F823300593059B002B07D1C0
:102AA00008F000F90246092313604FF0FF3312E0EB
:102AB000059B1B680C331B68019A0299059898477F
:102AC0000790079B002B05DA08F0ECF80246079BFD
:102AD0005B421360079B184609B05DF804FB00BF1A
:102AE000AC190108BC14002080270020480D0020EC
:102AF00000B587B00390029101920093FFF74FFE5B
:102B00000346002B07D1FFF73BFE034683F001038A
:102B1000DBB2002B01D0012300E00023002B02D008
:102B20001E48FFF70FFF039B022B0FDC1C4B1B689B
:102B3000002B01D1FFF722FF1A4806F01BFC0346C9
:102B4000DAB2029B1A700123059322E0039B033B38
:102B5000154A52F823300493049B002B07D108F048
:102B6000A1F80246092313604FF0FF3312E0049BE3
:102B70001B6808331B68019A0299049898470590CE
:102B8000059B002B05DA08F08DF80246059B5B4299
:102B90001360059B184607B05DF804FBE8190108AF
:102BA000BC14002080270020480D002000B585B00F
:102BB0000190019B022B01DC012322E0019B033BDE
:102BC000124A52F823300393039B002B06D108F0DE
:102BD00069F8024609231360002312E0039B1B6877
:102BE0001C331B68039898470290029B002B07DA5E
:102BF00008F058F80246029B5B421360002300E095
:102C0000029B184605B05DF804FB00BF480D00208C
:102C100000B587B0039002910192039B022B07DC61
:102C200008F040F802461D2313604FF0FF3326E002
:102C3000039B033B144A52F823300593059B002B5A
:102C400007D108F02FF80246092313604FF0FF3335
:102C500015E0059B1B6810331B68019A02990598C3
:102C600098470490049B002B08DA08F01BF80246F2
:102C7000049B5B4213604FF0FF3300E0049B184657
:102C800007B05DF804FB00BF480D002000B585B01B
:102C900001900091019B022B05DC009B4FF4005238
:102CA0005A6000232AE0019B033B164A52F8233066
:102CB0000393039B002B07D107F0F4FF024609237F
:102CC00013604FF0FF3319E0039B1B681C331B6834
:102CD000039898470346002B02D04FF4005201E0BE
:102CE0004FF40042009B5A60039B1B6828331B680B
:102CF000039898470246009B1A610023184605B0C6
:102D00005DF804FB480D002008B5012000F062F8D2
:102D100010B485B001901B4B1B680393194B1A68C4
:102D2000019B13440293EFF308831C4623461A4683
:102D3000029B93422CBF01230023DBB2002B05D062
:102D4000114B0C221A604FF0FF3315E00F4B1B683C
:102D5000002B0DD00E4B1A680C4B1B681344029AC3
:102D60009A4205D3084B0C221A604FF0FF3303E060
:102D7000044A029B1360039B184605B05DF8044BA0
:102D8000704700BFD00100202C280020440D0020F7
:102D9000400D002000B583B00190094B1B689B6873
:102DA000184608F0C5F8064B1B68DB68184608F0A3
:102DB000BFF8019B002B01D0FFF75FFCFEE700BFCF
:102DC0008002002084B003900291019201231846F2
:102DD00004B0704700B583B001900198FFF7DAFFA7
:102DE00000BF03B05DF804FB82B0019001231846D8
:102DF00002B0704700B583B00190019800F0F6F979
:102E000000BF03B05DF804FB00B583B001900198EA
:102E100000F0FCF900BF03B05DF804FB00B583B01F
:102E20000190019808F0AEFC00BF03B05DF804FB10
:102E3000014B1846704700BF3C1B010800B583B02A
:102E40000190DDED017A9FED077A67EE877AFDEE5E
:102E5000E77A17EE900A00F017F800BF03B05DF8AC
:102E600004FB00BF0024744900B583B00190019BAE
:102E70004FF47A7202FB03F3184600F005F800BF26
:102E800003B05DF804FB000000B587B00190FFF7C8
:102E900073FB05900598FFF753FB0490019B174ABD
:102EA00082FB03129211DB17D31A0393039B002BAF
:102EB00006DDFFF765FC0346002B01D0012300E08F
:102EC0000023002B07D0FEF7A9FF039B184603F051
:102ED00015FCFEF7BDFF0598FFF732FB0246049B89
:102EE000D21A019B9A4234BF01230023DBB2002B8C
:102EF00000D0F0E700BF07B05DF804FBD34D6210CF
:102F000000B583B00190019800F070F8019B002299
:102F10001A620021019800F005F8019B184603B0E1
:102F20005DF804FB00B587B001900091019B04336C
:102F30001C220021184609F039F802AB00221A6061
:102F40005A609A60DA60009B002B01D0009B00E081
:102F50000E4B0293019B043304931C2305930B2314
:102F6000039302AB184602F017F90246019B1A6060
:102F7000019B1B68002B04D1312205490548FFF74E
:102F800051FB00BF07B05DF804FB00BF441B010804
:102F9000601B01087C1B010800B585B00190009101
:102FA000019B1B680099184602F034F90390039BBB
:102FB000002B04D1019B1B6A5A1C019B1A62039BC4
:102FC000184605B05DF804FB00B583B00190019B85
:102FD0001B6A5A1E019B1A62019B1B68184602F06D
:102FE0004DF90346184603B05DF804FB82B001902A
:102FF000019B184602B0704782B0134B0193124BED
:10300000C3F1005303F500330093009BB3F5806FC9
:1030100028BF4FF480630D4A13600C4B1B68009A65
:10302000D31A019A13440A4A1360084B1B68009A8A
:10303000D31A0093074A009B1360074A019B136051
:1030400000BF02B0704700BF302800204C0E0020A7
:10305000480E0020440D0020400D002084B0104B8D
:103060009B6802934FF000530193002303930CE0FD
:10307000039B9B00029A1A44039B9B0001990B44FB
:1030800012681A60039B01330393039B702BEFDDDF
:10309000034B4FF000529A6000BF04B0704700BF6E
:1030A00000ED00E000BF704700B583B0124B134A3B
:1030B0001A61114B4FF480525A610F4B4822DA606B
:1030C0000D4B0F4A9A600C4B18229A610A4B0D4A1D
:1030D0001A60094A00210C4803F01CF90190019B79
:1030E000002B02D10948FFF72DFC00F0F5FD00BFD1
:1030F00003B05DF804FB00BFC42500204815002084
:10310000F8140020801B0108213100088C1B0108E5
:1031100008B5FFF7C7FFFEF797F90346184608BD45
:1031200008B51F4B1F4A1A601D4B0B225A601C4BDF
:103130001C22DA601A4B1C4A9A60194802F02CF8DB
:1031400002461A4B1A601A4B1A4A1A60184B0B2285
:103150005A60174B1C22DA60154B174A9A601448C4
:1031600002F01AF80246154B1A60154B154A1A6000
:10317000134B0B225A60124B1C22DA60104B124A7E
:103180009A600F4802F008F80246104B1A6008F0E7
:1031900047FA00210020FFF7BBFF00BF08BD00BFBA
:1031A000B4250020A81B01087C25002078250020DC
:1031B00068250020B81B0108982500204015002034
:1031C000E8250020C81B01084C25002048250020C8
:1031D00008B5FFF711FFFFF741FF06F025FD00F0EE
:1031E00011FDFFF761FF00BF08BD000000B583B00F
:1031F0000190054B1B684FF0FF31184602F00AF8AA
:1032000000BF03B05DF804FB4015002000B583B09B
:103210000190044B1B68184602F030F800BF03B061
:103220005DF804FB4015002000B583B0019000F06C
:10323000EDF8FCE700B585B00190009103F0F2F8DD
:103240000390019B013B042B30D801A252F823F0DC
:10325000653200087932000887320008953200088C
:10326000A1320008009803F0B3F80346009A0199D0
:103270001248FFF767FB1FE0009B039A0199104873
:10328000FFF760FB18E0009B039A01990D48FFF7D8
:1032900059FB11E0039A01990B48FFF753FB0BE030
:1032A000039A01990948FFF74DFB05E0039A01993C
:1032B0000748FFF747FB00BFFEE700BFD41B01082C
:1032C000281C0108801C0108E81C0108441D010895
:1032D000A41D010882B00190019B0633052B1BD869
:1032E00001A252F823F000BF153300081133000883
:1032F0000D330008093300080533000801330008C6
:10330000074B0AE0074B08E0074B06E0074B04E0D9
:10331000074B02E0074B00E0074B184602B070472E
:10332000E01D0108F81D01082C1E0108441E0108BB
:10333000541E01086C1E0108881E010800B583B0E8
:1033400001900198FFF7C6FF03461A46019903480A
:10335000FFF7F8FA00BF03B05DF804FB901E010808
:1033600000B583B0019000910098FFF7B3FF0346CA
:10337000009A01990348FFF7E5FA00BF03B05DF832
:1033800004FB00BFA81E010800B583B001900091A6
:103390000098FFF79FFF0346009A01990348FFF743
:1033A000D1FA00BF03B05DF804FB00BFF41E0108B2
:1033B00000B583B001900091009A01990348FFF78E
:1033C000C1FA00BF03B05DF804FB00BF401F010855
:1033D00000B583B003F026F80190019803F07CF962
:1033E00000BF03B05DF804FB08B5FEF749FD00BF60
:1033F00008BD08B5FFF7E0F9FEF710FDFFF7F4FF91
:10340000FEF726FDFFF724FA00BF08BD08B5024B02
:103410001B689847FBE700BFD4010020EFF3098049
:10342000816911F8021CB9BB01B590E80F10E047A3
:10343000BDE800508CE80300264B93E8060091425B
:1034400008BF704741B91EF0100F10D1224908681B
:1034500020F0010008600AE02CE9F00F1EF0100FC8
:1034600008BF2CED108AC1F838C081F822E002F0C4
:1034700093FB184B93E806001A6092F82210906BA9
:1034800061F0FF0E1EF0100F08BFB0EC108AB0E81C
:10349000F00F80F30988704710B5104A13689942FD
:1034A00006D852F821400FC8A047EFF309842060E6
:1034B00010BD10B502F02CF8BDE81040EFF3098CF8
:1034C000BAE710B501F0C2FFBDE81040EFF3098C78
:1034D000B2E70000EC01002034EF00E068200108B2
:1034E00000B583B00190019B002B01D1002304E0C3
:1034F0000199132002F0D8FB0023184603B05DF8B1
:1035000004FB000000B587B00190019800F09BF823
:10351000EFF305830593059B002B0BD1EFF310838D
:103520000493049B002B05D1EFF311830393039BBA
:10353000002B07D06FF005010020FFF711FF6FF09F
:10354000050307E0019B02930298044B9C4600DFB1
:10355000034600BF184607B05DF804FBE1340008DD
:1035600084B003900291019200BF04B0704784B010
:10357000039002910192009300BF04B0704784B0A1
:1035800003900291019200BF04B0704784B0039091
:1035900002910192009300BF04B0704782B0019085
:1035A000009100BF02B0704784B003900291019275
:1035B00000BF04B0704700BF704700BF704782B0C3
:1035C000019000BF02B0704700BF704700BF704756
:1035D00084B003900291019200BF04B0704782B0A2
:1035E000019000BF02B0704782B00190009100BF0F
:1035F00002B0704782B0019000BF02B0704782B045
:10360000019000BF02B0704782B00190009100BFEE
:1036100002B0704782B00190009100BF02B07047C5
:1036200082B0019000BF02B0704782B0019000BF2D
:1036300002B0704700BF704784B0039002910192BE
:1036400000BF04B0704782B0019000BF02B0704765
:1036500000BF704782B00190009100BF02B0704778
:1036600082B0019000BF02B0704782B0019000BFED
:1036700002B0704782B0019000BF02B0704782B0C4
:103680000190009100BF02B0704782B0019000919C
:1036900000BF02B0704782B0019000BF02B0704717
:1036A00082B00190009100BF02B0704782B00190DB
:1036B00000BF02B0704782B0019000BF02B07047F7
:1036C00082B00190009100BF02B0704782B00190BB
:1036D00000BF02B0704782B0019000BF02B07047D7
:1036E00084B003900291019200BF04B0704782B091
:1036F000019000BF02B0704784B003900291009324
:1037000013468DF8073000BF04B0704784B00390B3
:103710000291019200BF04B0704782B0019000BFD7
:1037200002B0704782B00190009100BF02B07047B4
:1037300082B00190009100BF02B0704782B001904A
:10374000009100BF02B0704784B0039002910192D3
:10375000009300BF04B0704784B0039002910192BF
:1037600000BF04B0704782B0019000BF02B0704744
:1037700082B00190009100BF02B0704782B001900A
:10378000009100BF02B07047034BDB681B0A03F0D7
:1037900007031846704700BF00ED00E000B583B096
:1037A000114BFF2283F822200F4B93F82230DBB21B
:1037B00063F0FF03DB43B3FA83F3C3F12003019308
:1037C000FFF7E2FF0090009A019B9A4202D3009B10
:1037D00001330193FE22019B9A40034BD2B2DA7768
:1037E00000BF03B05DF804FB00ED00E008B5444BFA
:1037F0001B7A012B03D1FFF7E0FE00235BE1404B76
:103800001B7A002B06D04FF0FF30FFF797FD4FF0EB
:10381000FF3350E19C2200213A4808F0C7FB3A4BA5
:103820005B6D472B06D86FF00A00FFF787FD4FF05E
:10383000FF3340E1344BDB68002B03D0324B1B8A53
:10384000002B06D14FF0FF30FFF778FD4FF0FF332C
:1038500031E12D4BDB682A4AD3652B4B1A8A284B62
:10386000A3F85420284B9B68254A1364264BDA6A38
:10387000254B1B6B1946104600F07AFA0346002BC5
:1038800004D0214BDB6A1E4AC2F880301E4B5A69B5
:103890001D4B9B691946104600F06AFA0346002B3F
:1038A00004D0194B5B69164A536704E0144BD3F8F4
:1038B0008030134A5367144BDA69134B1B6A19465D
:1038C000104600F055FA0346002B04D00E4BDB697E
:1038D0000B4A936704E00A4BD3F88030084A936799
:1038E000094B5A6A084B9B6A1946104600F040FA89
:1038F0000346002B0AD0044B5B6A014AD3670AE0F7
:10390000D8010020E0010020C81F01086B4BD3F84C
:1039100080306A4AD3676A4B5B6B002B14D0684BCC
:10392000586B674B5B6B1968654B5B6B9A68644BB4
:103930005B6BDB6800F07AFB0346002B04D0604B26
:103940005B6B5E4AC2F884305D4B9B6B002B14D0DE
:103950005B4B986B5A4B9B6B1968594B9B6B9A68E6
:10396000574B9B6BDB6800F061FB0346002B04D0D8
:10397000534B9B6B514AC2F88830514BDB6B002B89
:1039800014D04F4BD86B4E4BDB6B19684C4BDB6B39
:103990009A684B4BDB6BDB6800F048FB0346002B5F
:1039A00004D0474BDB6B454AC2F88C30444B1B6C50
:1039B000002B14D0424B186C414B1B6C1968404BC8
:1039C0001B6C9A683E4B1B6CDB6800F02FFB0346B8
:1039D000002B04D03A4B1B6C384AC2F89030384B5D
:1039E0005B6C002B14D0364B586C354B5B6C1968F4
:1039F000334B5B6C9A68324B5B6CDB6800F016FBF8
:103A00000346002B04D02E4B5B6C2C4AC2F894303A
:103A10002B4B9B6C002B14D0294B986C284B9B6C28
:103A20001968274B9B6C9A68254B9B6CDB6800F0F0
:103A3000FDFA0346002B04D0214B9B6C1F4AC2F8B1
:103A400098301F4BDB6C002B14D01D4BD86C1C4BDB
:103A5000DB6C19681A4BDB6C9A68194BDB6CDB6802
:103A600000F0E4FA0346002B04D0154BDB6C134A3C
:103A7000C2F89C30124B1B6D002B14D0104B186DEC
:103A80000F4B1B6D19680E4B1B6D9A680C4B1B6D11
:103A9000DB6800F0CBFA0346002B04D0084B1B6D0B
:103AA000064AC2F8A030FFF779FE044B01221A72D1
:103AB000FFF783FD0023184608BD00BFD801002092
:103AC000C81F010808B5044B1B7A1846FFF777FD9D
:103AD000014B1B7A184608BDD801002000B585B0FF
:103AE000424B1B7A012B06D06FF00600FFF726FC35
:103AF0004FF0FF3376E03D4B9B6A002B14D13C4BDB
:103B00009A6D002300213B4802F056F90246374BDC
:103B10009A62364B9B6A002B06D14FF0FF30FFF7BD
:103B20000DFC4FF0FF335DE0314B5B6E002B18D086
:103B30002E4B9B6C002B14D12D4BDA6D00230021F2
:103B40002D4802F039F90246284B9A64274B9B6CAA
:103B5000002B06D14FF0FF30FFF7F0FB4FF0FF33A3
:103B600040E0234B5B682549184602F05BFD0346A5
:103B7000002B02D04FF0FF3334E002F0A9FD0246E3
:103B80001A4B1A6102F082FD0346002B02D04FF05F
:103B9000FF3327E01A4801F0DDFD0390039B002B63
:103BA00006D14FF0FF30FFF7C9FB4FF0FF3319E0AC
:103BB000039801F0DDFF0E4B1B6803F00103002B9F
:103BC00005D002230293029B83F3148804E00323AD
:103BD0000193019B83F31488044B02221A72FFF7AE
:103BE000F5FC0023184605B05DF804FBD801002061
:103BF000C81F010829320008B5650008C334000851
:103C0000F401002000B585B0FFF7D5FCEFF3058384
:103C10000393039B002B0BD1EFF310830293029BC2
:103C2000002B05D1EFF311830193019B002B06D0EC
:103C30006FF00500FFF782FB6FF0050314E00C4BFB
:103C40009C46EFF3148313F0020F0AD113F0040F14
:103C5000EFF308830CBF203B683B23F0070383F39B
:103C6000098800DF034600BF184605B05DF804FB75
:103C7000ED37000800B585B0EFF305830393039B90
:103C8000002B0BD1EFF310830293029B002B05D185
:103C9000EFF311830193019B002B06D04FF0FF300F
:103CA000FFF78DFC4FF0FF3310E0EFF31483009328
:103CB000009B03F00103002B03D1FFF703FF034632
:103CC00004E0044B9C4600DF034600BF184605B0E5
:103CD0005DF804FBC53A000800B585B0FFF774FC39
:103CE000EFF305830393039B002B0BD1EFF31083BA
:103CF0000293029B002B05D1EFF311830193019BEB
:103D0000002B06D06FF00500FFF718FB6FF00503DE
:103D100026E0FFF7AFFF0346022B0CD0124B1B68C7
:103D2000002B08D0104B1B685B68002B03D00E4B98
:103D30001B685B6898470D4B9C46EFF3148313F0A8
:103D4000020F0AD113F0040FEFF308830CBF203BDE
:103D5000683B23F0070383F3098800DF034600BFB5
:103D6000184605B05DF804FBF8250020DD3A000890
:103D700000B585B001900091019B002B0CD0019BF8
:103D800003F00703002B07D1009B03F00703002B70
:103D900002D1009B172B06D8002200990198FFF74B
:103DA000DFFB00231EE0019B0393039B009A1A6034
:103DB000039B10225A60019B08330293019A009BD7
:103DC0001344083B1A46029B1A60029B1B680022A0
:103DD0001A60029B00225A60012200990198FFF7A5
:103DE000BFFB0123184605B05DF804FB00B589B0A0
:103DF000039002910192039B002B07D0029B002BA2
:103E000004D0019B23F00303002B07D00023019A69
:103E100002990398FFF7ABFB00235BE0029B08339A
:103E20000293029B073323F007030293039B08339B
:103E30000793079B1B681A46079BD31A0593079B9A
:103E40005B6823F00303059AD31A0593059A029B36
:103E50009A420ED2079B1B680793079B1B68002B97
:103E6000E7D10023019A02990398FFF780FB002312
:103E700030E000BF039B5A68029B1A44039B5A60C0
:103E8000079B5B68002B08D1029A019B1A43079B92
:103E90005A60079B0833069315E0079B5B6823F085
:103EA0000302079B13440493079B1A68049B1A6040
:103EB000029A019B1A43049B5A60079B049A1A605A
:103EC000049B08330693069B019A02990398FFF717
:103ED0004EFB069B184609B05DF804FB00B587B0A1
:103EE00001900091019B002B02D0009B002B06D17A
:103EF000002200990198FFF742FB002335E0009B68
:103F0000083B039300230493019B083305930EE0C1
:103F1000059B0493059B1B680593059B002B06D10D
:103F2000002200990198FFF72AFB00231DE0059A63
:103F3000039B9A42ECD1019B5A68059B5B6823F076
:103F40000303D21A019B5A60049B002B03D1059BEB
:103F500000225A6003E0059B1A68049B1A60012244
:103F600000990198FFF70BFB0123184607B05DF895
:103F700004FB10B483B001900091019B009A53E8B8
:103F8000001F8A4202D8BFF32F8F04E0481C43E889
:103F9000000404B1F3E70C462346184603B05DF86D
:103FA000044B704710B483B00190019B53E8002F7D
:103FB00012B9BFF32F8F04E0511E43E8001000B187
:103FC000F4E714462346184603B05DF8044B7047E7
:103FD00010B483B00190019B53E8002F12B9BFF3D6
:103FE0002F8F04E0116843E8001000B1F4E7144695
:103FF0002346184603B05DF8044B704710B483B0F5
:1040000001900091019B009A19681160BFF35F8FC6
:1040100053E8001F10688842F6D143E8002404B139
:10402000F2E700BF03B05DF8044B704700B587B0FE
:104030000390029101920093039B002B08D0029BF6
:10404000002B05D0019B002B02D0009B002B01D13F
:10405000002330E0039B029A1A60039B00225A60FF
:10406000039B019A9A60039B009ADA60039B009A73
:104070005A61029B019A02FB03F3009A1A44039BC4
:104080001A61009B019A02990398FFF77FFA08E0F2
:10409000009A019B13440593009B059A1A60059BA7
:1040A0000093029B013B0293029B002BF0D1009BEB
:1040B00000221A600123184607B05DF804FB00B522
:1040C00085B00190019B002B05D100210020FFF756
:1040D00065FA00231AE0019B1A1D019B1B68194613
:1040E0001046FFF746FF0246019B1B689A4206D224
:1040F000019B14331846FFF76BFF039001E0002388
:10410000039303990198FFF749FA039B184605B0FA
:104110005DF804FB00B585B001900091019B002B78
:1041200009D0019BDB68009A9A4204D3019B1B696A
:10413000009A9A4208D36FF0030200990198FFF7A2
:1041400033FA6FF0030319E0019B04331846FFF7BD
:1041500029FF0346002B08D0019B14330099184611
:10416000FFF74CFF0023039302E06FF00203039379
:10417000039A00990198FFF717FA039B184605B0B8
:104180005DF804FB10B483B001900B468DF803304A
:10419000019B9DF80320D3E84F1FC3E8402F00B1D7
:1041A000F9E7CCB22346184603B05DF8044B7047DC
:1041B00010B483B00190019B53E8002F511C43E8D9
:1041C000001000B1F8E714462346184603B05DF826
:1041D000044B704710B483B00190019B53E8002F4B
:1041E00012B9BFF32F8F04E0511E43E8001000B155
:1041F000F4E714462346184603B05DF8044B7047B5
:10420000014B5B6918467047D801002000B585B0A6
:1042100001900091019B1B6B002B2ED0019B1B6B0F
:1042200003930023029304E0039B0293039B5B68C8
:104230000393039B002B05D0039BDA78009BDB786C
:104240009A42F1D3009B039A5A60009B029A9A60AB
:10425000039B002B03D0039B009A9A6002E0019B12
:10426000009ADA62029B002B03D0029B009A5A60EC
:104270000FE0019B009A1A630BE0009B00225A603A
:10428000009B00229A60019B009ADA62019B009ACF
:104290001A63019B28331846FFF78AFF00BF05B059
:1042A0005DF804FB00B587B00190019B28331846E8
:1042B000FFF790FF0490049B002B01D1002319E02D
:1042C000019BDB6A05930FE0059B02330121184631
:1042D000FFF758FF03468DF80F309DF80F30002B85
:1042E00006D0059B9B680593059B002BECD100E055
:1042F00000BF059B184607B05DF804FB82B0019033
:104300000091009B5B68002B05D0009B5B68009AC6
:1043100092689A6003E0009B9A68019BDA62009BB6
:104320009B68002B05D0009B9B68009A52685A60DE
:1043300003E0009B5A68019B1A6300BF02B07047FC
:1043400000B587B00190019B5B78002B00F0BC802A
:10435000019B9B78002B60D0019B0C330293029B46
:104360001B680593059B5B78002B00F0AF800199DB
:104370000598FFF7C3FF019B00225A70059B0C3381
:1043800001991846FFF7C6FE059B9B68002B00F0BD
:10439000A080059B9B685B78932B40F09A80059BDF
:1043A0000C331846FFF78BFE0190019B002B00F0A9
:1043B0009080059801F0CEF9049000220021049825
:1043C00001F04EFC049801F08FFB0390019B03F178
:1043D0000C00039B08331B681946059B5B6A1A4651
:1043E00007F0E6FC019B07221A70019B01225A701C
:1043F000019B00229A70039B0C331B68DAB2019B6D
:10440000DA7001990598FFF701FF039B08331B68D9
:1044100019460598FFF78CF95BE0019B9B680593B3
:10442000059B5B78002B53D0059B9B68002B40D0ED
:10443000059B9B685B78832B3BD1019B5B6819468E
:104440000598FFF775F9059801F084F904900022AA
:104450000021049801F004FC049801F045FB03904E
:10446000039B08331B681846019B03F10C01059B55
:104470005B6A1A4607F09CFC039B0C331B68002BFD
:1044800006D0039B0C331B681A46019BDB78137024
:10449000039B08331B6819460598FFF769F9019BD0
:1044A00000225A70059B0C3301991846FFF732FE23
:1044B0000FE0019B5B6819460598FFF739F90199F0
:1044C0000598FFF7A3FE04E000BF02E000BF00E094
:1044D00000BF07B05DF804FB00B58DB003900291FA
:1044E0000192039B002B02D0029B002B06D16FF0A0
:1044F00003010020FEF75CFF0023F9E0029B033379
:1045000023F003030C330793039BB3FA83F2079B57
:10451000B3FA83F313441F2B06DC6FF00301002072
:10452000FEF746FF0023E3E0039B079A02FB03F339
:104530000693019B002B46D0019B1B680893019BAF
:104540009B680B93019B1B690A93019B5B69059315
:104550000B9B002B0FD00B9B03F00303002B03D10D
:10456000019BDB68332B11D86FF008010020FEF7A8
:104570001FFF0023BCE0019BDB68002B06D06FF01F
:1045800008010020FEF714FF0023B1E00A9B002B76
:104590000FD00A9B03F00303002B03D1059A069B5F
:1045A0009A4216D26FF009010020FEF701FF0023A6
:1045B0009EE0059B002B0CD06FF009010020FEF758
:1045C000F7FE002394E00023089300230B930023BD
:1045D0000A930B9B002B23D1474BD3F8A030002B21
:1045E00007D0454BD3F8A0301846FFF768FD0B9075
:1045F00008E0414BD3F88030012234211846FFF700
:10460000F5FB0B900B9B002B06D16FF004010020F3
:10461000FEF7CEFE00236BE001238DF8273002E089
:1046200000238DF827300A9B002B36D1324BDB6FED
:10463000002206991846FFF7D9FB0A900A9B002B27
:1046400020D16FF004010020FEF7B2FE9DF8273064
:1046500003F00103002B13D0274BD3F8A030002B1D
:1046600007D0254BD3F8A0300B991846FFF752FD21
:1046700006E0214BD3F880300B991846FFF72EFC4B
:10468000002335E0069A00210A9807F08FFC9DF878
:10469000273043F002038DF827300B9B08221A7055
:1046A0000B9B01225A700B9B9DF827209A700B9B45
:1046B000089A5A600B9B00229A600B9B029A5A62DE
:1046C0000B9B00229A620B9B0022DA620B9B00225A
:1046D0001A630B9B03F10C000A9B079A0399FFF7DF
:1046E000A5FC054B054A1A670B98FFF700F80B9BD2
:1046F00018460DB05DF804FBD801002041430008C6
:1047000010B588B003900291009313468DF80730DE
:10471000039B0793079B002B06D0079B1B78082B56
:1047200002D1029B002B07D16FF003010798FEF71F
:104730003FFE6FF0030397E0079B5B78002B07D1E8
:104740006FF002010798FEF733FE6FF002038BE073
:10475000079B9B68002B34D0079B9B685B78832B5F
:104760002FD102990798FEF7E3FF079800F0F2FFB8
:10477000069001220021069801F072FA069801F0D5
:10478000B3F90590059B08331B681846079B5B6AC5
:104790001A46029907F00CFB059B0C331B68002B93
:1047A00006D0059B0C331B681A469DF80730137022
:1047B000059B08331B6819460798FEF7D9FF0023AD
:1047C00052E0079B0C331846FFF779FC0490049BDA
:1047D000002B1FD0049B03F10C00079B5B6A1A4659
:1047E000029907F0E5FA049B07221A70049B012244
:1047F0005A70049B00229A70049B9DF80720DA707F
:1048000004990798FFF702FD02990798FEF790FFB9
:10481000002329E0009B002B20D0009A02990798E2
:10482000FEF774FFFFF7ECFC03461946079800F00B
:104830005FFF0099932001F037FAEFF309831C46DC
:1048400023460593059B0833029A1A60059B0C3397
:104850009DF807201A606FF0010305E002990798A0
:10486000FEF76CFF6FF00203184608B010BD10B5DC
:1048700088B00390029101920093039B0793079BDA
:10488000002B06D0079B1B78082B02D1029B002B24
:1048900007D16FF003010798FEF78AFD6FF003035D
:1048A000A4E0079B5B78002B07D16FF0020107980B
:1048B000FEF77EFD6FF0020398E00798FFF7F2FC29
:1048C0000690069B002B25D006990798FFF716FD4A
:1048D000069B03F10C01079B5B6A1A46029807F0DE
:1048E00067FA019B002B03D0069BDA78019B1A70B4
:1048F00002990798FEF73CFF069B00225A70079B1F
:104900000C3306991846FFF705FC079B9B68002BA4
:104910006BD029E0009B002B1FD0009A02990798CA
:10492000FEF71AFFFFF76CFC03461946079800F0E4
:10493000DFFE0099832001F0B7F9EFF309831C46ED
:1049400023460593059B0833029A1A60059B0C3396
:10495000019A1A606FF0010348E002990798FEF788
:104960000DFF6FF0020341E0079B9B685B78932B80
:104970003BD1079B0C331846FFF7A1FB0690069B23
:10498000002B32D0079800F0E5FE049001220021B0
:10499000049801F065F9049801F0A6F80590069BCB
:1049A00003F10C00059B08331B681946079B5B6AE3
:1049B0001A4607F0FDF9069B07221A70069B012292
:1049C0005A70069B00229A70059B0C331B68DAB262
:1049D000069BDA7006990798FFF718FC059B0833C9
:1049E0001B6819460798FEF7A3FE0023184608B077
:1049F00010BD00B589B003900291009313468DF865
:104A00000730039B0793079B002B09D0079B1B785C
:104A1000082B05D1029B002B02D0009B002B07D056
:104A20006FF003010798FEF7C3FC6FF0030345E046
:104A3000079B5B78002B07D16FF002010798FEF708
:104A4000B7FC6FF0020339E0079B0C331846FFF701
:104A500036FB0690069B002B2AD0069B03F10C0028
:104A6000079B5B6A1A46029907F0A2F9069B072288
:104A70001A70069B01225A70069B00229A70069BB0
:104A80009DF80720DA70069B04330593059B029A74
:104A90001A60069B08330593059B079A1A600698CF
:104AA00000F07AFD02990798FEF73CFE002305E02E
:104AB00002990798FEF742FE6FF00203184609B00C
:104AC0005DF804FB00B589B0039002910192009358
:104AD000039B0793079B002B09D0079B1B78082B90
:104AE00005D1029B002B02D0009B002B07D06FF05A
:104AF00003010798FEF75CFC6FF0030337E0079BA8
:104B00005B78002B07D16FF002010798FEF750FC8D
:104B10006FF002032BE00798FFF7C4FB0690069B9B
:104B2000002B1ED0069B03F10C01079B5B6A1A4603
:104B3000029807F03DF9019B002B03D0069BDA7821
:104B4000019B1A7002990798FEF712FE069B0C3320
:104B50000593059B079A1A60069800F01DFD002337
:104B600005E002990798FEF709FE6FF00203184668
:104B700009B05DF804FB000000B58BB00390029112
:104B80000192019A02990398FEF7AAFDEFF30583BB
:104B90000993099B002B0BD1EFF310830893089B1B
:104BA000002B05D1EFF311830793079B002B06D051
:104BB0006FF005010020FEF7FBFB00231EE0039BC6
:104BC0000693029B0593019B049306980599049B09
:104BD0001A460C4B9C46EFF3148313F0020F0AD1D4
:104BE00013F0040FEFF308830CBF203B683B23F066
:104BF000070383F3098800DF034600BF18460BB0A4
:104C00005DF804FBD944000810B58CB00390029104
:104C1000009313468DF807309DF80720009B0299FA
:104C20000398FEF769FDEFF305830B930B9B002BB5
:104C30000BD1EFF310830A930A9B002B05D1EFF3FE
:104C400011830993099B002B08D09DF80720009B36
:104C500002990398FFF7CDFE034616E0039B0893E5
:104C6000029B07939DF807308DF81B30009B05933E
:104C7000089B1846079B19469DF81B301A46059B52
:104C8000034CA44600DF034600BF18460CB010BD1D
:104C90000147000810B58CB0039002910192009377
:104CA000009B019A02990398FEF74EFDEFF30583EE
:104CB0000B930B9B002B0BD1EFF310830A930A9BF2
:104CC000002B05D1EFF311830993099B002B07D02B
:104CD000009B019A02990398FFF7F4FE034613E044
:104CE000039B0893029B0793019B0693009B0593EC
:104CF000089B1846079B1946069B1A46059B044CC1
:104D0000A44600DF034600BF18460CB010BD00BF2C
:104D10006F480008014B5B6918467047D8010020B6
:104D200000B585B00190019B039332E0039B5B6962
:104D30000193039BDB7803F00803002B27D0039B30
:104D400000221A7600210398FEF7BAFC039B9B68A9
:104D5000002B1CD0039800F0FDFC029000220021E3
:104D6000029800F07DFF039B029ADA60029BDA6AE8
:104D7000039B5A61039B00221A61029B039ADA6229
:104D8000039B01221A7601210398FEF789FC019BFF
:104D90000393039B002BC9D100BF05B05DF804FB52
:104DA00000B587B00190019B002B26D0019B1B68AA
:104DB0000293019B5B680493019B9B680593059B91
:104DC000002B0FD0059B03F00303002B03D1019BA5
:104DD000DB681B2B17D86FF008010020FEF7D4FA10
:104DE00000235EE0019BDB68002B0CD06FF0080114
:104DF0000020FEF7C9FA002353E0002302930023AA
:104E0000049300230593059B002B23D1274BD3F854
:104E10009430002B07D0254BD3F894301846FFF779
:104E20004EF9059008E0214BD3F8803001221C2177
:104E30001846FEF7DBFF0590059B002B06D16FF0AF
:104E400004010020FEF7A0FA00232AE001238DF8D8
:104E50000F3002E000238DF80F30059B04221A70FA
:104E6000059B01225A70059B9DF80F209A70049BA8
:104E7000DAB2059BDA70059B029A5A60059B002204
:104E80009A60059B0022DA60059B00221A61059B4F
:104E900000225A61059B00221A760598FEF7EAFB6C
:104EA000059B184607B05DF804FB00BFD801002041
:104EB00000B585B001900091019B0393FFF72AFF95
:104EC0000290029B002B07D16FF007010398FEF7B9
:104ED0005BFA4FF0FF3395E0039B002B03D0039B5D
:104EE0001B78042B07D06FF003010398FEF74CFAF0
:104EF0006FF0030386E0039B5B78002B07D16FF014
:104F000002010398FEF740FA6FF002037AE0039B78
:104F10001B7E002B1FD1039B029ADA60029BDA6A88
:104F2000039B5A61039B00221A61029BDB6A002BE0
:104F300003D0029BDB6A039A1A61029B039ADA622E
:104F4000039B01221A76039B1B7E19460398FEF7EA
:104F5000A7FB002356E0039BDB7803F00103002B43
:104F60001ED0039BDB68029A9A4219D1039B1B7ED9
:104F7000FF2B07D16FF00F010398FEF705FA6FF0D2
:104F800002033FE0039B1B7E0133DAB2039B1A76D8
:104F9000039B1B7E19460398FEF782FB002331E03A
:104FA000009B002B29D0039BDB7803F00203002B2E
:104FB00014D0039BDB6893F92020029B93F92030E7
:104FC0009A420BDA039BDB68029A92F9202083F85D
:104FD0002020039BDB68184600F0E8FB009903984B
:104FE000FEF753FB0299039800F082FB00995320CF
:104FF00000F05AFE6FF0010304E00398FEF756FB41
:105000006FF00203184605B05DF804FB00B589B0E7
:105010000190019B0593FFF77DFE0490049B002BFC
:1050200007D16FF007010598FEF7AEF94FF0FF3397
:10503000ADE0059B002B03D0059B1B78042B07D00C
:105040006FF003010598FEF79FF96FF003039EE0F0
:10505000059B5B78002B07D16FF002010598FEF7E6
:1050600093F96FF0020392E0059BDB68049A9A4281
:1050700007D06FF00D010598FEF786F96FF0020377
:1050800085E0059B1B7E002B07D16FF00E01059874
:10509000FEF77AF96FF0020379E0059B1B7E013B76
:1050A000DAB2059B1A76059B1B7E19460598FEF71A
:1050B00007FB059B1B7E002B01D0002367E0059BAF
:1050C0005B69002B04D0059B5B69059A12691A6124
:1050D000059B1B69002B05D0059B1B69059A52692E
:1050E0005A6103E0059B5A69049BDA62059BDB78F1
:1050F00003F00203002B25D0049B93F821308DF898
:105100001B30049BDB6A079314E0079B9B68002B12
:105110000DD0079B9B6893F920309DF91B209A4284
:1051200005DA079B9B6893F820308DF81B30079BAE
:105130005B690793079B002BE7D1049B9DF81B201D
:1051400083F82020059B9B68002B1CD0059800F05D
:1051500001FB039000220021039800F081FD059BD4
:10516000039ADA60039BDA6A059B5A61059B002269
:105170001A61039B059ADA62059B01221A760121C6
:105180000598FEF78DFA002000F01EFD002318465A
:1051900009B05DF804FB000000B587B001900198EC
:1051A000FEF763FAEFF305830593059B002B0BD104
:1051B000EFF310830493049B002B05D1EFF31183CD
:1051C0000393039B002B06D06FF005010020FEF730
:1051D000DBF8002318E0019B0293029B18460C4B5E
:1051E0009C46EFF3148313F0020F0AD113F0040F5F
:1051F000EFF308830CBF203B683B23F0070383F3E6
:10520000098800DF034600BF184607B05DF804FBBD
:10521000A14D000800B589B0019000910099019856
:10522000FEF72DFAEFF305830793079B002B0BD1B5
:10523000EFF310830693069B002B05D1EFF3118348
:105240000593059B002B07D06FF005010198FEF731
:105250009BF86FF005030BE0019B0493009B039305
:10526000049B18460399044B9C4600DF034600BF8D
:10527000184609B05DF804FBB14E000800B587B0D0
:1052800001900198FEF717FAEFF305830593059B4C
:10529000002B0BD1EFF310830493049B002B05D15B
:1052A000EFF311830393039B002B07D06FF00501ED
:1052B0000198FEF769F86FF0050308E0019B02937F
:1052C000029B1846044B9C4600DF034600BF18466D
:1052D00007B05DF804FB00BF0D500008024B4FF013
:1052E00080525A6000BF704700ED00E010B483B0F8
:1052F00001900B46ADF80230019BBDF80220D3E8C7
:105300005F1F8A4202D8BFF32F8F04E0481CC3E816
:10531000540F04B1F3E78CB22346184603B05DF88E
:10532000044B704710B483B001900B46ADF80230C7
:10533000019BBDF80220D3E85F1F481C824200D8C1
:105340000020C3E8540F04B1F5E78CB22346184699
:1053500003B05DF8044B704710B483B00190019B1B
:10536000D3E85F2F12B9BFF32F8F04E0511EC3E8BB
:10537000501F00B1F4E794B22346184603B05DF81D
:10538000044B7047014B1B7A18467047D801002028
:1053900000B587B00190154BB3F85430ADF812301A
:1053A000BDF8123019461248FFF7A0FF03461A460F
:1053B000BDF81230934211D9BDF8123019460D488C
:1053C000FFF7B0FF03460393084BDA6D039B9B0086
:1053D0001344019A1A600123059301E00023059309
:1053E000059B184607B05DF804FB00BFD8010020FC
:1053F0002E0200203002002000B585B0104BB3F81B
:105400005430ADF80A300F48FFF7A6FF0346002BD3
:105410000FD0BDF80A3019460B48FFF783FF03464B
:105420000193074BDA6D019B9B0013441B680393A8
:1054300001E000230393039B184605B05DF804FBCD
:10544000D80100202E0200203202002000B583B0D7
:1054500001F036F92D4BDB6801332C4AD3602B4B1E
:105460001B6D002B02D0294B1B6D984700F0B2FA40
:10547000002000F0A9FB254B1B6C002B41D0234BD7
:105480009A6B224B9B699A4208D0204B9B691F4A1A
:1054900093631E4B1B6C1D4AD36332E01B4BDB6BCB
:1054A000002B04D0194BDB6B013B184AD363174B1D
:1054B000DB6B002B25D1FFF765FF0346022B20D1C4
:1054C000124B5B6A0193019B002B1AD0019B93F94D
:1054D00020200E4B9B6B93F920309A4211D10198FA
:1054E00000F082F9094B9B6B184600F097F9019880
:1054F00000F03EFB054A019B9363044B1B6C034A7F
:10550000D36300BF03B05DF804FB00BFD8010020E7
:1055100000B583B0FFF770FF0190019B002B30D0E6
:10552000019B1B78013B062B29D801A252F823F0DE
:105530004D5500087F550008575500087F55000855
:10554000615500086B55000875550008114B1B6E1E
:105550000198984714E00F4B5B6E019898470FE055
:105560000C4B9B6E019898470AE00A4BDB6E019842
:10557000984705E0074B1B6F0198984700E000BF74
:10558000C8E700BF002000F01FFB00BF03B05DF8BC
:1055900004FB00BFD801002000B583B00190019842
:1055A000FFF7F6FE0346002B0BD00A4B5B7ADBB20B
:1055B000002B02D1FFF792FE07E0064B01229A7200
:1055C00003E001990220FDF735FE00BF03B05DF84E
:1055D00004FB00BFD801002010B483B001900091FB
:1055E000019B009A53E8001F01EA0200904203D099
:1055F000BFF32F8F002105E021EA020043E80004F9
:1056000004B1EFE70C462346184603B05DF8044B9F
:10561000704710B483B001900091019B009A53E849
:10562000001F114203D1BFF32F8F002105E021EAB3
:10563000020043E8000404B1F1E70C462346184693
:1056400003B05DF8044B7047014B1B7A1846704756
:10565000D8010020014B5B6918467047D801002033
:1056600082B00190024A019B536100BF02B07047B3
:10567000D801002000B587B0039002910192019BF0
:1056800003F00203002B14D1019B03F00103002B54
:1056900007D0039B283302991846FFF79DFF05901A
:1056A00021E0039B283302991846FFF7B2FF0590CB
:1056B00019E0039B9B6A0593019B03F00103002BF8
:1056C00005D0059A029B1340029A9A4209D1019B88
:1056D00003F00103002B06D1059A029B1340002B17
:1056E00001D100230593059B184607B05DF804FB24
:1056F00086B001900091009B002B28D0009B93F96D
:1057000020300393019B0593019B9B68049304E065
:10571000049B0593049B9B680493049B002B06D079
:10572000049B93F920301A46039B9342F0DD009BC3
:10573000059ADA60009B049A9A60059B009A9A6029
:10574000049B002B04D0049B009ADA6000E000BFA9
:1057500006B0704784B00190019B9B680393039B44
:10576000002B0ED0039B9A68019B9A60039B9B6859
:10577000002B03D0039B9B68019ADA60039B0022F5
:10578000DA60039B184604B0704782B0019002E0D3
:10579000019BDB680193019B002B03D0019B1B78CD
:1057A000012BF5D0019B184602B0704700B585B0BB
:1057B0000190019B039305E0039BDB680393039B2C
:1057C000002B0DD0039B1B78012BF5D0039B02937C
:1057D000019800F009F801990298FFF789FF00E0AD
:1057E00000BF05B05DF804FB82B00190019BDB684F
:1057F000002B10D0019BDB68019A92689A60019B94
:105800009B68002B04D0019B9B68019AD268DA60E8
:10581000019B0022DA6000BF02B0704700B583B080
:105820000190019B01225A7001990348FFF760FF24
:1058300000BF03B05DF804FBF401002084B00190C8
:105840000091009BB3F1FF3F27D100230393304B1E
:105850001B6B029304E0029B0393029B1B69029360
:10586000029B002BF7D1019B009ADA61019B039AFE
:105870005A61019B029A1A61039B002B03D0039B80
:10588000019A1A6102E0224A019B1363029B002BDA
:105890003AD0029B019A5A6136E0002303931C4BD5
:1058A000DB6A029309E0029BDB69009AD31A00933A
:1058B000029B0393029B1B690293029B002B04D063
:1058C000029BDB69009A9A42EDD2019B009ADA6151
:1058D000019B039A5A61019B029A1A61039B002B58
:1058E00003D0039B019A1A6102E0094A019BD3622B
:1058F000029B002B08D0029BDA69009BD21A029B04
:10590000DA61029B019A5A6100BF04B0704700BF80
:10591000D801002082B00190019BDB69B3F1FF3F09
:1059200023D1019B5B69002B04D1294B1B6B019A8E
:105930009A4247D1019B1B69002B04D0019B1B6934
:10594000019A52695A61019B5B69002B08D0019B47
:105950005B69019A12691A61019B00225A6134E065
:10596000019B1B691A4A13632FE0019B5B69002BA3
:1059700004D1174BDB6A019A9A4225D1019B1B691E
:10598000002B0DD0019B1B69D969019BDA69019B32
:105990001B690A44DA61019B1B69019A52695A61C9
:1059A000019B5B69002B08D0019B5B69019A12691E
:1059B0001A61019B00225A6107E0019B1B69044A9E
:1059C000D36202E000BF00E000BF02B0704700BF3A
:1059D000D801002000B583B0424BDB6A0193019BE4
:1059E000002B7AD0019BDB695A1E019BDA61019B77
:1059F000DB69002B72D1019B5B78532B22D0532B98
:105A000006DC332B13D0432B14D0132B0CD041E0E6
:105A1000732B27D0732B02DC632B1BD03AE0832B34
:105A200028D0932B2ED035E0FDF712FE32E0FDF7A3
:105A300001FE2FE00198FFF7A8FE03461846FDF788
:105A40000FFE27E00198FFF7A0FE03461846FDF77A
:105A500022FE1FE00198FFF798FE03461846FDF767
:105A600035FE17E00198FFF790FE03461846FDF754
:105A700032FE0FE00198FFF788FE03461846FDF757
:105A800072FE07E00198FFF780FE03461846FDF717
:105A900044FE00BF019800F027F803461B68194632
:105AA0000198FDF7B7FD0198FFF79EFE0198FFF7FB
:105AB000B5FE019B1B690193019B002B03D0019B49
:105AC000DB69002B97D0019B002B02D0019B0022A9
:105AD0005A61044A019BD36200E000BF03B05DF845
