:020000040800F2
:1000000000000220F99A00082D9B00082D9B000893
:100010002D9B00082D9B00082D9B00080000000070
:100020000000000000000000000000005D59000812
:100030002D9B000800000000F3590008035A000837
:100040002D9B00082D9B00082D9B00082D9B000870
:100050002D9B00082D9B00082D9B00082D9B000860
:100060002D9B00082D9B00082D9B00082D9B000850
:100070002D9B00082D9B00082D9B00082D9B000840
:100080002D9B00082D9B00082D9B0008B5D1000872
:10009000A1D100082D9B0008C9D100082D9B0008A4
:1000A0002D9B00082D9B00082D9B00082D9B000810
:1000B0002D9B00082D9B00082D9B00082D9B000800
:1000C0002D9B00082D9B00082D9B00082D9B0008F0
:1000D0002D9B00082D9B00082D9B00082D9B0008E0
:1000E0002D9B00082D9B00082D9B00082D9B0008D0
:1000F0002D9B00082D9B00082D9B00082D9B0008C0
:100100002D9B00082D9B00082D9B00082D9B0008AF
:100110002D9B00082D9B00082D9B00082D9B00089F
:100120002D9B00082D9B00082D9B00082D9B00088F
:100130002D9B00080000000000000000F1D1000825
:10014000DDD100082D9B000805D200082D9B00087A
:100150002D9B00082D9B00082D9B00082D9B00085F
:100160002D9B00082D9B00082D9B00082D9B00084F
:100170002D9B00082D9B00082D9B0008000000000F
:10018000000000002D9B000800000000000000009F
:100190002D9B000800000000000000002D9B0008BF
:1001A0000000000000000000000000002D9B00087F
:1001B0002D9B00082D9B00082D9B00082D9B0008FF
:1001C0002D9B000810B5054C237833B9044B13B1AF
:1001D0000448AFF300800123237010BD500C0020B1
:1001E000000000005C7B010808B5034B1BB103490C
:1001F0000348AFF3008008BD00000000540C00204D
:100200005C7B0108154B002B08BF134B9D46A3F5E3
:10021000803A00218B460F461348144A121A10F0F8
:10022000D5F80F4B002B00D098470E4B002B00D079
:1002300098470020002104000D000D48002802D03E
:100240000C4804F0F1FE0FF0F1FB2000290005F04E
:10025000E1F904F0DFFE00BF00000800000002200A
:1002600000000000D5560008500C0020E0390020A6
:10027000295000080000000082B001900091009B0E
:10028000002B05D0019B9B68019A12681A6005E05B
:10029000019B1A68019BDB6812041A6000BF02B060
:1002A000704782B00190019B5B681A68019B1B68D4
:1002B0001340002B01D0012300E00023184602B0B8
:1002C000704700B583B001900B46ADF80230019B3A
:1002D0001A460023136053609360D3601361536127
:1002E0009361019BBDF902201146184602F03BFFC5
:1002F000019B184603B05DF804FB00B583B0019084
:10030000019B1846FFF7CDFF0346184603B05DF882
:1003100004FB00B583B001900B468DF8033004F068
:1003200077F8019B9DF80320114618460DF0C8F898
:1003300004F0BAF800BF03B05DF804FB00B585B067
:1003400003900B460192ADF80A30039B1A46002336
:10035000136053609360D360136153619361039B97
:10036000BDF90A10019A184602F034FF039B1846A3
:1003700005B05DF804FB00B583B001900091019BCE
:1003800000991846FFF778FF00BF03B05DF804FB43
:1003900010B58EB00590084611461A460346ADF8D2
:1003A00012300B46ADF810301346ADF80E300598FC
:1003B0009DF85830159A149901F008F93D4A059BAB
:1003C0001A60059B03F6DC50BDF90E40BDF9102004
:1003D000BDF912104FF0FF330093234602F09AF854
:1003E000059B03F6B863BDF9401001221846FFF7DC
:1003F000A5FF059B03F6D463BDF9441001221846FE
:10040000FFF79CFF059B03F56F63BDF9482011467C
:100410001846FFF756FF059B2749184601F07CF95F
:10042000059B139AC3F8182F059B03F6DC53002293
:100430000821184602F0C8F8059B03F6DC531F4953
:10044000184602F0F5F8059B03F56F630121184685
:10045000FFF75FFF07AB1C22002118460FF0B6FF25
:1004600006238DF8303000238DF83530144B099376
:100470000623ADF8323000230793124B0B930A2367
:100480008DF8293055238DF8343002238DF828302B
:100490003C238DF836300023089307AB19460598A6
:1004A00000F040F9059800F0CFF9059B18460EB012
:1004B00010BD00BFD4650108EC62010840420F0086
:1004C000400ECF1920A107002DE9104895B00190EA
:1004D00001238DF84F30019B5549184601F01CF956
:1004E000019800F06DFA019800F0E4FA0346012B40
:1004F0000CBF01230023DBB2002B01D0012392E0CB
:10050000019B7433184601F08DF91290129B002B59
:1005100000F08480129B3B2B1ED900238DF84F30B6
:10052000019B2C334FF0FF31184604F031FF019B43
:1005300003F1740102AB3C22184601F014FA119049
:10054000019B2C33184604F03BFF02AB3C221946BA
:10055000019800F0D9FA61E0019BD3F81C3F002B11
:1005600009D1002004F0ECFD03460C461A46019B1D
:10057000C3F81C2F52E0002004F0E2FD0A460146B9
:10058000019BD3F81C3F9B464FF0000C0B461446D2
:10059000B3EB0B0364EB0C04019AD2F8182F11464D
:1005A0004FF00002994272EB0403B4BF0123002311
:1005B000DBB2002B32D0019B0022C3F81C2F019B21
:1005C0002C334FF0FF31184604F0E2FE019B03F19B
:1005D000740102AB3C22184601F0C5F91190019B51
:1005E0002C33184604F0ECFE119B8DF84E309DF82C
:1005F0004E303B2B0CD89DF84E3014AA13440022E9
:1006000003F8482C9DF84E3001338DF84E30EEE75C
:1006100002AB3C221946019800F076FA019800F0EE
:1006200013F99DF84F30184615B0BDE8108800BF8B
:10063000F862010800B597B003900291019201237E
:100640008DF85330039B2549184601F065F803984F
:1006500000F0B6F9039800F02DFA0346012B0CBF09
:1006600001230023DBB2002B01D0002331E0019BEA
:100670001593159B002B2AD0159B3B2B12D905AB4C
:100680003C22029918460FF0A3FD05AB3C22194607
:10069000039800F039FA159B3C3B1593029B3C33C1
:1006A0000293E6E705AB3C22002118460FF08EFED0
:1006B00005AB159A029918460FF08AFD05AB3C224E
:1006C0001946039800F020FA00231593D1E79DF80E
:1006D0005330184617B05DF804FB00BF08630108EB
:1006E00000B583B00190019B0D49184601F014F844
:1006F000019B03F6D46300211846FFF73CFE0A2055
:1007000004F0AEFD019B03F6D46301211846FFF708
:1007100032FE0A2004F0A4FD00BF03B05DF804FB24
:100720001463010800B583B001900091019B334927
:10073000184600F0F1FF019B002283F8152F019865
:10074000FFF7CEFF019800F075FC009B9B681946EF
:10075000019800F0B1FC00220E21019800F065F92B
:1007600000220F21019800F060F90C21019800F09F
:1007700047F9034643F00303DBB21A460C21019804
:1007800000F053F9009B1B7B1946019800F066FCB2
:10079000009B5B7B1946019800F0F2FC009B1B7DDF
:1007A0001946019800F036FE009B1B691946019816
:1007B00000F04EFD009BDB8A1946019800F064FEB4
:1007C000009B1B7E1946019800F098FE009B9B7EC3
:1007D0001946019800F0F8F9009B5B7E002B03D0CE
:1007E000019800F0A3FE02E0019800F0B3FE01982A
:1007F00000F00CFC00BF03B05DF804FB24630108AB
:1008000000B585B00190019B0E49184600F084FFA9
:10081000019800F04FF903468DF80F309DF80F3026
:10082000012B09D09DF80F30022B05D09DF80F3019
:10083000042B01D0012300E00023184605B05DF829
:1008400004FB00BF3063010800B583B0019001983C
:1008500000F0EAF90346184603B05DF804FB00B562
:1008600087B003900B468DF80B3013468DF80A3095
:10087000039B93F8153FDBB2002B14BF0123002329
:10088000DBB2002B01D0002336E0039B012283F86A
:10089000152F00238DF8143000238DF815309DF8A6
:1008A0000B308DF810309DF80A308DF81130039B15
:1008B00003F6B86300211846FFF75DFD0A2004F037
:1008C000DFFC039B03F6DC5005AA04A90223009376
:1008D0001346022201F01DFF0A2004F0D1FC039B05
:1008E00003F6B86301211846FFF745FD039B00227C
:1008F00083F8152F9DF81530184607B05DF804FBF6
:1009000010B5C6B005AC2060084603A90A601946B8
:100910000DF1130302461A700DF112030A461A7004
:1009200005AB1B6893F8153FDBB2002B14BF012306
:100930000023DBB2002B40D105AB1B68012283F8FA
:10094000152F0DF113031B7863F07F03DAB206ABAA
:100950001A700DF11203197803AB06AA501C0A464F
:1009600019680FF035FC05AB1B6803F6B86300216E
:100970001846FFF700FD0A2004F082FC05AB1B6857
:1009800003F6DC500DF112031B785A1C06A9002354
:100990000093002301F0BDFE0A2004F071FC05ABBA
:1009A0001B6803F6B86301211846FFF7E4FC05ABAA
:1009B0001B68002283F8152F00E000BF46B010BD71
:1009C00000B583B00190019B0C49184600F0A4FECD
:1009D000019B03F56F631846FFF78FFC0346002B5E
:1009E00014BF01230023DBB2002B02D0019800F0DA
:1009F000EFF900BF03B05DF804FB00BF40630108DE
:100A000000B583B001900B468DF803309DF803309C
:100A100003F07F03DBB2002219460198FFF71FFFA6
:100A20000346184603B05DF804FB00B583B001909F
:100A30000B468DF8033013468DF802309DF80330D5
:100A400063F07F03DBB29DF8022019460198FFF79F
:100A500006FF00BF03B05DF804FB00B585B0019050
:100A60000B468DF8033013468DF80230019800F0E4
:100A700049F903468DF80F309DF80F30802B02D0D6
:100A8000019800F0D7FA9DF802209DF8033019462E
:100A90000198FFF7CAFF9DF80F30802B06D09DF814
:100AA0000F301A4601210198FFF7BFFF00BF05B0C4
:100AB0005DF804FB00B585B00190019800F022F9C3
:100AC00003468DF80F309DF80F30832B01D10123A1
:100AD00016E09DF80F30852B03D09DF80F30862B44
:100AE00001D102230CE09DF80F30812B01D10023AE
:100AF00006E09DF80F30802B01D1012300E0042394
:100B0000184605B05DF804FB00B587B0039002916C
:100B100013468DF80730039B2A49184600F0FCFD68
:100B20000398FFF7C7FF03468DF817309DF817307D
:100B3000012B03D09DF81730042B01D100233DE099
:100B4000039800F063FA402240210398FFF76DFFFD
:100B500000220D210398FFF768FF9DF80730029AE5
:100B600000210398FFF7CCFE039B93F8143F002B62
:100B700006D19DF807301A4622210398FFF755FF4A
:100B8000832201210398FFF750FF12210398FFF7FA
:100B900037FF034603F00803002B0CBF012300239B
:100BA000DBB2002B00D0F0E7082212210398FFF7F8
:100BB0003CFF00238DF817309DF80730184607B02A
:100BC0005DF804FB4C63010800B583B001900B464F
:100BD0008DF80330019B0F49184600F09DFD9DF8EC
:100BE0000330002B0AD0019800F0DCFC9DF80330A4
:100BF0001A4622210198FFF718FF02E0019800F041
:100C0000BDFC019B9DF8032083F8142F00BF03B0A7
:100C10005DF804FB6063010882B00190019B93F8CA
:100C2000143F184602B0704700B583B00190019B95
:100C30001C49184600F070FD0198FFF7E1FD0346DE
:100C4000002B0CBF01230023DBB2002B01D00023BB
:100C500023E0002240210198FFF7E7FE019800F011
:100C600051F80346852B14BF01230023DBB2002B70
:100C700012D00198FFF7D0FF03461A4622210198AF
:100C8000FFF7D3FE00220D210198FFF7CEFE85224B
:100C900001210198FFF7C9FE0123184603B05DF852
:100CA00004FB00BF7863010800B585B00190019B8B
:100CB0001349184600F030FD0198FFF7FBFE03468C
:100CC0008DF80F309DF80F30012B03D09DF80F30B9
:100CD000042B01D100230EE013210198FFF790FEB1
:100CE00003468DF80E30019BD3F8103FDBB29DF820
:100CF0000E20D31ADBB2184605B05DF804FB00BF26
:100D0000C863010800B585B0019001210198FFF783
:100D100077FE03468DF80F30019B1B79002B40D0E6
:100D2000019B2349184600F0F7FC9DF80F30032B78
:100D30001FD0032B04DC002B0FD0012B13D02AE093
:100D4000062B22D0802B02D0052B18D023E0019B4C
:100D50001849184600F0E0FC23E0019B16491846AC
:100D600000F0DAFC1DE0019B1449184600F0D4FCA9
:100D700017E0019B1249184600F0CEFC11E0019BE0
:100D80001049184600F0C8FC0BE0019B0E491846BC
:100D900000F0C2FC05E0019B0C49184600F0BCFCC9
:100DA00000BF9DF80F30184605B05DF804FB00BF8A
:100DB000F463010804640108146401082064010854
:100DC00030640108386401084C6401085C6401085F
:100DD00000B585B00190019B2249184600F09CFCAB
:100DE0000198FFF719FF03461A4622210198FFF7E1
:100DF0001CFE12210198FFF703FE03468DF80F3009
:100E00009DF80F301A4612210198FFF70EFE019B44
:100E10001B79002B05D09DF80F30194612480FF0B2
:100E200035FB9DF80F3003F04003002B0DD09DF8EB
:100E30000F3003F02003002B10D1019B0022C3F8D8
:100E4000102F019800F012F808E09DF80F3003F021
:100E50000803002B02D0019800F058F800BF05B03D
:100E60005DF804FB6C6401088464010800B595B06A
:100E70000190019B2249184600F04EFC03AB3C2236
:100E80001946019800F08EF803461293019B1B79D6
:100E9000002B14D01B480FF0F9FA00231393139A78
:100EA000129B9A420BDA03AA139B13441B78194630
:100EB00015480FF0EBFA139B01331393EFE7019BF7
:100EC00050334FF0FF31184604F062FA019B03F1F2
:100ED0008401129A03AB184600F059FD1299019B48
:100EE00003F5947203AB184600F008FE019B5033E3
:100EF000184604F065FA00BF15B05DF804FB00BFAA
:100F000098640108AC640108C064010800B583B0AE
:100F10000190019B0B49184600F0FEFB019B7433C6
:100F2000184600F07FFC03463B2B94BF01230023AF
:100F3000DBB2002B02D00198FFF776FE00BF03B0B2
:100F40005DF804FBC464010800B585B00190019B05
:100F50001349184600F0E0FB0198FFF7A5FE034691
:100F6000002B0CBF01230023DBB2002B02D04FF07B
:100F7000FF3310E0019BD3F8103F5A1C019BC3F8CC
:100F8000102F00210198FFF73BFD03468DF80F302D
:100F90009DF80F301BB2184605B05DF804FB00BF8A
:100FA000DC64010800B587B0039002911346ADF8E8
:100FB00006300023ADF81630039B1349184600F0A5
:100FC000ABFB0398FFF7C0FF03468DF815300123F4
:100FD000002B13D0BDF81620BDF806309A420CD075
:100FE000BDF81630029A13449DF815201A70BDF80A
:100FF00016300133ADF81630E3E700BFBDF8163008
:10100000184607B05DF804FBE864010800B583B03A
:101010000190019B0649184600F07EFB81220121C8
:101020000198FFF702FD00BF03B05DF804FB00BFAD
:101030000865010800B583B00190019B0649184678
:1010400000F06AFB802201210198FFF7EEFC00BF4F
:1010500003B05DF804FB00BF1865010800B583B05C
:1010600001900B468DF80330019B1249184600F0A1
:1010700053FB9DF80330012B03D802238DF8033076
:1010800006E09DF80330112B02D911238DF80330AF
:101090009DF80330023BDBB25BB263F07F035BB2CF
:1010A000DBB21A4609210198FFF7D7FC00BF03B055
:1010B0005DF804FB2865010870B586B001900091C9
:1010C000019B009AC3F80C2F019B2B49184600F096
:1010D00023FB009B4FF000045E0BDD04274A4FF01A
:1010E00000032846314614F075FF03460C46CDE94F
:1010F00004340198FFF706FE03468DF80F309DF883
:101100000F30802B02D00198FFF794FFDDE9041225
:101110004FF000034FF000040B0C43EA0243140CA1
:10112000DBB21A4606210198FFF77FFCDDE90412C5
:101130004FF000034FF000040B0A43EA0263140A65
:10114000DBB21A4607210198FFF76FFC9DF81030BB
:101150001A4608210198FFF768FC9DF80F30802B94
:1011600006D09DF80F301A4601210198FFF75DFC6B
:1011700000BF06B070BD00BF3C6501080048E80133
:1011800000B585B001900B468DF80330019B2E49C8
:10119000184600F0C1FA9DF80330052B03D806234A
:1011A0008DF8033006E09DF803300C2B02D90C2398
:1011B0008DF803300198FFF7A5FD03468DF80F3039
:1011C0009DF80F30802B02D00198FFF733FF9DF878
:1011D0000330062B0AD1C52231210198FFF725FCE7
:1011E0000C2237210198FFF720FC09E0C3223121AE
:1011F0000198FFF71AFC0A2237210198FFF715FC26
:101200001E210198FFF7FCFB03465BB203F00F03BE
:101210005AB29DF803301B015BB213435BB2DBB2E1
:101220001A461E210198FFF700FC9DF80F30802B15
:1012300006D09DF80F301A4601210198FFF7F5FB03
:1012400000BF05B05DF804FB506501080000000018
:1012500000B585B001900091019B6D49184600F0E2
:101260005BFA009814F014FB55A3D3E9002314F0A3
:1012700005FE0346002B03D000238DF80F3085E0D8
:10128000009814F005FB50A3D3E9002314F0F6FDF9
:101290000346002B03D001238DF80F3076E0009831
:1012A00014F0F6FA4AA3D3E9002314F0E7FD03464D
:1012B000002B03D002238DF80F3067E0009814F064
:1012C000E7FA45A3D3E9002314F0D8FD0346002B29
:1012D00003D003238DF80F3058E0009814F0D8FAAB
:1012E0003FA3D3E9002314F0C9FD0346002B03D02C
:1012F00004238DF80F3049E0009814F0C9FA3AA39E
:10130000D3E9002314F0BAFD0346002B03D00523D4
:101310008DF80F303AE0009814F0BAFA34A3D3E90C
:10132000002314F0ABFD0346002B03D006238DF8F9
:101330000F302BE0009814F0ABFA2FA3D3E9002371
:1013400014F09CFD0346002B03D007238DF80F30CB
:101350001CE0009814F09CFA29A3D3E9002314F0B0
:101360008DFD0346002B03D008238DF80F300DE0D0
:10137000009814F08DFA24A3D3E9002314F07EFD25
:101380000346002B02D009238DF80F301D21019850
:10139000FFF736FB03465BB203F00F035AB29DF82A
:1013A0000F301B015BB213435BB2DBB21A461D2147
:1013B0000198FFF752FB00BF05B05DF804FB00BFCA
:1013C000000000000078BE40000000000050C44053
:1013D000000000000078CE40000000000050D44023
:1013E000000000008084DE4000000000805CE440DB
:1013F000000000008084EE40000000008084FE4079
:101400000000000080840E410000000080841E4126
:101410006C65010800B585B001900B468DF803306E
:10142000019B1849184600F077F99DF80330042B0A
:1014300003D805238DF8033006E09DF80330082B10
:1014400002D908238DF803309DF80330043B8DF852
:101450000F301D210198FFF7D3FA03465BB223F04A
:101460000E035AB29DF80F305B005BB213435BB2C0
:10147000DBB21A461D210198FFF7EFFA00BF05B055
:101480005DF804FB8865010800B585B001900B4646
:10149000ADF80230019B1849184600F03DF901985B
:1014A000FFF730FC03468DF80F309DF80F30802B8E
:1014B00002D00198FFF7BEFDBDF802301B12DBB26F
:1014C0001A4620210198FFF7B0FABDF80230DBB2CE
:1014D0001A4621210198FFF7A8FA9DF80F30802BBA
:1014E00006D09DF80F301A4601210198FFF79DFAAA
:1014F00000BF05B05DF804FBA065010800B583B02E
:1015000001900B468DF80330019B0749184600F007
:1015100003F99DF803301A4639210198FFF79DFA27
:1015200000BF03B05DF804FBBC65010800B583B0E3
:1015300001901E210198FFF763FA034643F004036C
:10154000DBB21A461E210198FFF787FA00BF03B0ED
:101550005DF804FB00B583B001901E210198FFF7F0
:101560004FFA034623F00403DBB21A461E2101980A
:10157000FFF773FA00BF03B05DF804FB00B583B05A
:1015800001901D210198FFF73BFA034623F0010368
:10159000DBB21A461D210198FFF747FA00BF03B0DE
:1015A0005DF804FB00B583B001901D210198FFF7A1
:1015B00027FA034643F00103DBB21A461D210198C6
:1015C000FFF733FA00BF03B05DF804FB00B585B048
:1015D0000390029101928DF80330294A039B1A600F
:1015E000039B0833184603F087FE039B2C331846F1
:1015F00003F082FE039B5033184603F07DFE039BED
:101600009DF803201A711F49039800F085F8039B89
:1016100003F58C70039B94338322194600F0C9F8BC
:10162000039B03F58C72039BC3F82C21039B029A46
:10163000C3F83021039B019AC3F83421039B03F5BF
:101640009473184600F047FA039B03F17400039B60
:1016500003F6281340F25922194600F0AAF8039B1A
:1016600003F18400039B03F6813340F259221946AB
:1016700000F09FF8039B184605B05DF804FB00BF1F
:101680005C660108DC65010800B587B00390029133
:1016900001920E49039800F03FF8039B50334FF03E
:1016A000FF31184603F074FE039B8433019A1946F8
:1016B000029800F058F90590039B5033184603F048
:1016C0007FFE059B184607B05DF804FBE465010842
:1016D00000B587B00390029101920E49039800F083
:1016E0001BF8039B2C334FF0FF31184603F050FEDC
:1016F000039B7433019A1946029800F048F905904B
:10170000039B2C33184603F05BFE059B184607B07D
:101710005DF804FBF065010800B583B0019000910D
:10172000019B1B79002B0FD0019B08334FF0FF3139
:10173000184603F02DFE009905480EF0A7FE019B08
:101740000833184603F03CFE00BF03B05DF804FB0D
:101750004866010886B0034602910192ADF80E304A
:10176000BDF80E30029A13440593059B002B07DA4F
:10177000019BDB689AB2059B9BB213449BB208E0C5
:10178000059B019AD268B3FBF2F102FB01F29B1AAE
:101790009BB2184606B0704782B001900091019A42
:1017A000009B9A4201D8019B00E0009B184602B0C2
:1017B000704700B585B0039002911346ADF806302E
:1017C000039B029A1A60BDF80620039BDA60039817
:1017D00000F005F80023184605B05DF804FB82B060
:1017E0000190019B00225A60019B00229A6000BF79
:1017F00002B0704700B583B00190019B9B689BB21B
:10180000019A01211846FFF7A5FF03461A46019BDE
:101810005B689A4201D1012300E00023184603B01F
:101820005DF804FB2DE9100884B00190019B9A68D3
:10183000019B5B68D31A4FF00004CDE90234DDE967
:101840000234002B74F100030CDA019BDB689B4629
:101850004FF0000CDDE902121BEB01034CEB02041C
:10186000CDE90234029B184604B0BDE81008704769
:1018700010B582B00190019BDC680198FFF7D2FFA0
:101880000346E31A013B184602B010BD00B583B011
:1018900001900091019B002B22D00098FFF7C2FF1E
:1018A000034619460198FFF777FF0190009B5B689C
:1018B0009BB20199009A1846FFF74CFF03461A465F
:1018C000009B5A60009B9A68009B5B689A4208D113
:1018D000009B00225A60009B5A68009B9A6000E0BF
:1018E00000BF03B05DF804FB10B586B00390029111
:1018F00001920298FFF796FF034619460198FFF7F9
:101900004BFF0190029BDC68029B5B689BB2029AD2
:1019100000211846FFF71EFF0346E31A19460198F7
:10192000FFF73AFF0590029B1C68029B5B689BB225
:10193000029A00211846FFF70DFF03462344059A3B
:10194000194603980EF044FC039A059BD018029B9D
:101950001968019A059BD31A1A460EF039FC019BAF
:10196000184606B010BD00B585B0039002910192F3
:10197000019A02990398FFF7B7FF01900299019825
:10198000FFF784FF019B184605B05DF804FB10B516
:1019900086B00390029101920298FFF72BFF034655
:1019A000002B01D0002342E00298FFF761FF0346BD
:1019B00019460198FFF7F0FE0190029BDC68029B3C
:1019C0009B689BB2029A00211846FFF7C3FE0346AC
:1019D000E31A19460198FFF7DFFE0590029B1C6889
:1019E000029B9B689BB2029A00211846FFF7B2FE49
:1019F00003462344059A039918460EF0E9FB029B1F
:101A00001868039A059BD118019A059BD31A1A46A8
:101A10000EF0DEFB029B9B689BB20199029A18466E
:101A2000FFF798FE03461A46029B9A60019B1846F0
:101A300006B010BD00B583B0034600918DF80730A5
:101A40000098FFF7D7FE0346002B01D0002314E0D7
:101A5000009B1A68009B9B6813449DF807201A702E
:101A6000009B9B689BB2009A01211846FFF772FE0B
:101A700003461A46009B9A600123184603B05DF89E
:101A800004FB86B0039002910192039B0493002310
:101A90008DF8173017E0049A029B534003F00103BE
:101AA000002B05D0049B5B08019A5340049302E08D
:101AB000049B5B080493029B5B0802939DF817301C
:101AC00001338DF817309DF81730072BE3D9049BAD
:101AD000184606B0704782B00190019A137D6FF3EB
:101AE00000031375019B00225A82019A137D6FF344
:101AF000830313750023184602B0704700B587B002
:101B000003900291019200238DF813300023059376
:101B100015E0039A059B13441B780199184600F0C1
:101B2000E7F803468DF812309DF91230002B03D0F0
:101B30009DF812308DF81330059B01330593059AFB
:101B4000029B9A42E5D39DF91330184607B05DF821
:101B500004FB000000B583B0034600918DF8073008
:101B6000009B1B7DC3F38103DBB2032B00F2A78034
:101B700001A252F823F000BFDF1C0008891B0008F7
:101B8000D31B0008411C0008009B1B88002B05D1BB
:101B90009DF807309AB2009B1A80A3E0009B1B8837
:101BA0001AB29DF807301B021BB213431BB29AB244
:101BB000009B1A80009A137D022161F38303137541
:101BC000009B5B681846FFF70AFE009B00225A82C2
:101BD00088E0009B1B88022B05D1009A137D43F0FF
:101BE0000C0313752CE0009B1B88013B9AB2009BF1
:101BF0001A80009B5A689DF8073011461846FFF777
:101C000019FF0346002B0CD1009A137D6FF3830359
:101C10001375009A137D6FF3000313754FF0FF33B4
:101C200061E0009B5B8A18469DF807304AF201028A
:101C30001946FFF726FF03469AB2009B5A8251E0ED
:101C4000009B1B88002B32D1009A137D6FF3830316
:101C50001375009A137D6FF300031375009B5B8A65
:101C60001A46009B1B7C9BB21B029BB219469DF837
:101C700007300B439A420ED1009B9B68002B07D084
:101C8000009B9B68009A52681046984703462AE0DA
:101C90006FF0010327E0009BDB68002B21D0009B45
:101CA000DB68009A52681046984703461BE0009B89
:101CB0009DF807201A74009B00221A8011E0009AF8
:101CC000137D6FF383031375009B00221A80009A23
:101CD000137D6FF3000313756FF0020303E000BF81
:101CE00000E000BF0023184603B05DF804FB00BF0E
:101CF00000B583B0034600918DF807309DF807309A
:101D0000FF2B1AD1009B1B7D03F00203DBB2002BDB
:101D10000CD0009A137D6FF3410313759DF80730C3
:101D200000991846FFF716FF034638E0009A137D26
:101D300043F002031375002331E0009B1B7D03F089
:101D40000203DBB2002B23D0009A137D012161F343
:101D500083031375009B00221A80009A137D6FF392
:101D600041031375009B1B7D03F00103DBB2002BC5
:101D700009D0009BDB68002B05D0009BDB68009A34
:101D8000526810469847009A137D43F0010313757B
:101D90009DF8073000991846FFF7DCFE0346184609
:101DA00003B05DF804FB82B001900091009B1846DF
:101DB00002B0704700B587B005900491039202937A
:101DC000059800F02FF9104A059B1A60059B043313
:101DD0000021184600F02CF9059B403300211846DD
:101DE00003F01CFB059B5433184603F085FA089B4F
:101DF0000093029B039A0499059807F0ADFB059B9D
:101E0000184607B05DF804FB3873010800B583B0CD
:101E10000190019B184600F01FFF0346002B14BFE2
:101E200001230023DBB2184603B05DF804FB000079
:101E300000B583B001900A4A019B1A60019BB83338
:101E4000184600F029F9019B9433184600F01EF95A
:101E5000019800F015F9019B184603B05DF804FBEA
:101E60001867010800B583B001900198FFF7E0FF03
:101E7000019803F04BF9019B184603B05DF804FB91
:101E800000B595B0019003AB3C2219460D48FFF711
:101E9000FBFB3C23129300231393139B3B2B0BDC84
:101EA00003AA139B13441B781946074802F0B6F89F
:101EB000139B01331393F0E7129B5BB2184615B0E6
:101EC0005DF804FB280E0020280D002008B503480B
:101ED000FEF7FAFA024803F0ADF9F8E7280E002001
:101EE000CDCC4C3E00B585B009480EF0CFFA6B461C
:101EF0000849184600F09CF86B461946064807F05A
:101F00007FFB6B46184600F0AAF800F007F8FEE7E2
:101F100064660108CD1E0008640D00202DE91048FC
:101F200089B04FF003034FF00004CDE906340020E0
:101F300003F006F903460C46354AC2E90034354839
:101F4000FFF764FF0346002B1BD0334802F087F8ED
:101F50000246324B1B68D2B208A90B4403F8202C6E
:101F60002E4B1B68002B07D1002003F0E9F8034635
:101F70000C46274AC2E90034284B1B680133274A24
:101F80001360264B1B68172B10DD6B461822194671
:101F90002348FFF79DFB214B00221A60002003F02D
:101FA000CFF803460C461A4AC2E90034002003F079
:101FB000C7F80A460146164BD3E900BC0B46144647
:101FC000B3EB0B0364EB0C04DDE90612994272EBF0
:101FD000040305DA114B1B68002B01DD012300E02F
:101FE0000023002BABD00D4B1B681A466B461946DD
:101FF0000B48FFF76DFB094B00221A60002003F02D
:102000009FF803460C46024AC2E9003497E700BF36
:10201000481D00206C0C0020280D0020501D0020C1
:10202000280E002082B00190019B184602B0704734
:1020300000B583B001900091009B002B05D11022C8
:10204000002101980EF0C2F904E06B461946019890
:1020500000F034F8019B184603B05DF804FB00B5AE
:1020600083B00190019BDB68002B04D0019BDB68EF
:102070009B6801989847019B184603B05DF804FBE4
:1020800082B00190019B184602B0704782B0019067
:10209000019B184602B0704700B583B00190019BC8
:1020A000DB68002B04D0019BDB689B680198984794
:1020B000019B184603B05DF804FB000000B583B037
:1020C000019000911022002101980EF07FF9019BF0
:1020D00019460420FFF767FE0346002B02D0009A42
:1020E00012681A60019B034ADA6000BF03B05DF812
:1020F00004FB00BF9066010800B583B00190019B0E
:102100001B68984700BF03B05DF804FB00B583B0BF
:1021100001900091019B19460420FFF744FE0346FD
:10212000002B02D0009A12681A6000BF03B05DF85D
:1021300004FB82B0019000BF02B0704700B583B0CD
:102140000190104A019B1A600F4A019BC3F8BC2002
:102150000E4A019BC3F8C020019BD433184603F0FC
:1021600041F9019800F0B6F8019BBC33184601F024
:1021700037FF019B184600F03DFE019B184603B057
:102180005DF804FB3867010858670108B467010867
:10219000A0F1BC00D2E7A0F1C000CFE700B583B04A
:1021A00001900198FFF7CAFF019802F0AFFF019B71
:1021B000184603B05DF804FBA0F1BC00EEE7A0F107
:1021C000C000EBE700B583B001900B4A019B1A6099
:1021D000019B5033184603F005F9019B2C33184638
:1021E00003F000F9019B0833184603F0FBF8019B4C
:1021F000184603B05DF804FB5C66010800B583B0C7
:102200000190094A019B1A60019B03F6DC531846B2
:10221000FFF70EFE019B1846FFF7D4FF019B1846FF
:1022200003B05DF804FB00BFD465010800B58BB0B6
:1022300009900891099B012B37D1089B4FF6FF723B
:10224000934232D14FF4E13303220221194800F0C6
:1022500003FC194A1949174802F0D4FE00230093E1
:1022600000234FF4805218211548FFF7A3FD124AAE
:102270001449134802F0C6FE002306930023059379
:10228000114B049302230393002302930823019329
:102290001A2300931323142215210C48FEF778F813
:1022A000054A0B49094802F0ADFE00BF0BB05DF8CE
:1022B00004FB00BF6C0C0020C80100203D21000879
:1022C000640D0020C5970008811E0008280E00201C
:1022D000FD21000882B00190019B184602B07047B2
:1022E00008B54FF6FF710120FFF7A0FF08BD00B54C
:1022F00083B001900091019A009B9A420ED0019800
:10230000FFF7ADFE019B19461020FFF74CFD034679
:10231000002B03D00099184600F005F8019B1846E1
:1023200003B05DF804FB00B583B001900091009B01
:10233000DB68002B05D0009BDB685B680099019887
:102340009847009BDA68019BDA60019B184603B04E
:102350005DF804FB82B00190019BDB68002B14BF89
:1023600001230023DBB2184602B0704700B583B0EA
:102370000190019BDB68002B05D14FF404720649E4
:10238000064801F07BFF019BDB681B6801989847BA
:1023900000BF03B05DF804FB9C660108C06601083D
:1023A00008B5044B1B684FF0FF31184605F0B2FA30
:1023B00000BF08BD2837002008B5034B1B6818462E
:1023C00005F0DCFA00BF08BD2837002000B583B057
:1023D0000190019800F006F80346184603B05DF836
:1023E00004FB000010B582B00190019B1B68002B1C
:1023F00018D1FFF7D5FF019B1B68002B10D1019B63
:10240000043319462420FFF7CEFC0446002C04D0E8
:10241000204602F071FF224600E02246019B1A602E
:10242000FFF7CAFF019B1A68019B04339A4204D04C
:102430005D220449044801F021FF019B1B681846F6
:1024400002B010BDC8660108F066010800B583B08F
:1024500001900091009B002B05D1102200210198D2
:102460000DF0B4FF04E06B461946019800F006F841
:10247000019B184603B05DF804FB000000B583B073
:10248000019000911022002101980DF09FFF019B07
:1024900019460420FFF787FC0346002B02D0009A60
:1024A00012681A60019B034ADA6000BF03B05DF84E
:1024B00004FB00BF0467010800B583B001900091E0
:1024C000019B1B680098984700BF03B05DF804FBB0
:1024D00000B583B001900091019B19460420FFF7DD
:1024E00062FC0346002B02D0009A12681A6000BFFB
:1024F00003B05DF804FB82B0019000BF02B07047EA
:1025000000B583B001900198FFF730FF00BF03B022
:102510005DF804FB10B586B00590084611461A46D2
:102520000346ADF812300B46ADF810301346ADF847
:102530000E30059800F06FF9214A059B1A60059B43
:1025400004339022002118460DF040FF059B943380
:102550000599184600F065F9059BB8330021184627
:10256000FFF774FF059B002283F8C820059B00221B
:1025700083F8C920059B0822C3F8CC20059B0022C4
:10258000C3F8D020059B0F4AC3F8D420059BFF2237
:1025900083F8D820059B181DBDF90E40BDF9102009
:1025A000BDF91210BDF92030009323460BF082FFD5
:1025B000059800F069F8059B184606B010BD00BFED
:1025C0001867010840420F0000B585B003900291E2
:1025D0000192039B1B6808331B6803989847039B71
:1025E000029AC3F8CC20039B019AC3F8D0200F4B6A
:1025F0001B68039A9A420BD1039B181D039BD3F8C7
:10260000CC10039BD3F8D02000230CF07BF802E021
:10261000039800F039F8039B1B680C331B68039880
:10262000984700BF05B05DF804FB00BFB81D00204F
:1026300000B583B001900091019B1B6808331B68B3
:1026400001989847019B009AC3F8D4200D4B1B6852
:10265000019A9A4209D1019B1A1D019BD3F8D430EB
:10266000194610460CF0B2F802E0019800F00CF8A0
:10267000019B1B680C331B680198984700BF03B08F
:102680005DF804FBB81D002000B583B00190104B2D
:102690001B68019A9A4216D0019B181D019BD3F822
:1026A000CC10019BD3F8D02000230CF02BF8019B19
:1026B0001A1D019BD3F8D430194610460CF086F849
:1026C000034A019B136000BF03B05DF804FB00BF29
:1026D000B81D002000B585B001900091019B1B68DA
:1026E00008331B68019898470198FFF7CDFF019BBD
:1026F0000433009918460CF0A7F80390019B1B685F
:102700000C331B6801989847039B184605B05DF889
:1027100004FB00B589B00590049103920293059BD8
:102720001B6808331B68059898470598FFF7ACFFAE
:10273000059B181D059B93F8D83001930A9B0093C5
:10274000029B039A04990CF0D4F80790059B1B6830
:102750000C331B6805989847079B184609B05DF82D
:1027600004FB000000B583B001900648FFF72EFE81
:1027700003464FF0FF31184602F00AFE00BF03B0D7
:102780005DF804FBBC1D002000B583B00190054836
:10279000FFF71CFE0346184602F012FE00BF03B00E
:1027A0005DF804FBBC1D002000B583B00190019BC7
:1027B000143300211846FFF749FE019B184603B069
:1027C0005DF804FB00B583B00190019B14331846FB
:1027D000FFF762FC019B184603B05DF804FB30B5BF
:1027E00083B00190019B01241D46002C05DB284687
:1027F00000F039F82C35013CF7E7019B00229A657F
:10280000019B0022DA65019B002283F86020019B76
:10281000184603B030BD82B00190019B184602B04B
:10282000704700B587B00390029100230493002302
:1028300005930023009304AB0CCB0299039800F09E
:1028400029F8039B184607B05DF804FB00B583B078
:102850000190019B04331846FFF7B4FF019B184613
:1028600003B05DF804FB00B583B00190019B00222A
:102870001A60019B04332822002118460DF0A6FDA2
:10288000019B04331846FFF78FFF019B184603B0E6
:102890005DF804FB84B003900291694681E80C0066
:1028A000039B04336A4692E8030083E80300039B1A
:1028B0000D4ADA60039B48F207021A61049A039BEF
:1028C0009A61029A039B5A61039B04331A46039B45
:1028D000DA61064A039B1A62BFF36F8FBFF34F8F13
:1028E00000BF04B0704700BF01A090E8F1280008C5
:1028F00000B585B0039002910192039B002B25D077
:10290000019B1B68002B05D1019B5B6803F0010351
:10291000002B1BD0019B5B685B101A46039B981829
:10292000019B5B6803F00103002B02D1019B1B6834
:102930000AE0019B5B685B101A46039B13441B680B
:10294000019A126813441B680299984700BF05B0AA
:102950005DF804FB00B583B001900091019B012B51
:102960000CD1009B4FF6FF72934207D10548FFF749
:1029700036FF054A0549034802F044FB00BF03B097
:102980005DF804FB541D0020C801002091290008B7
:1029900010B582B00190019B002B0AD0019B03F17E
:1029A0005804019B9C4204D02C3C2046FFF74EFF6C
:1029B000F7E7019B184602B010BD08B54FF6FF714E
:1029C0000120FFF7C7FF08BD00B585B00390029155
:1029D0000192039B1B6810331B68019A02990398AC
:1029E00098470346184605B05DF804FB00B583B070
:1029F0000190019B1B6818331B6801989847034698
:102A0000184603B05DF804FB00B583B00190019B4C
:102A10001B6828331B68019898470346184603B083
:102A20005DF804FB82B001900B468DF803304FF047
:102A3000FF33184602B0704782B001900B46ADF8E4
:102A400002301123184602B0704782B00190009105
:102A500000BF02B07047000000B585B0039001933D
:102A60000B46ADF80A301346ADF808300398BDF9AF
:102A70000820BDF90A10019B00F06EF8039BBC33DF
:102A80000021184601F070FA039800F05FF80A4A36
:102A9000039B1A60094A039BC3F8BC20084A039BA6
:102AA000C3F8C020039BD433184602F025FC039BD7
:102AB000184605B05DF804FB38670108586701083F
:102AC000B467010800B583B00190019B184600F07F
:102AD0006AF90346184603B05DF804FBA0F1BC0098
:102AE000FFF7F0BF00B583B001900091019B009902
:102AF000184600F065F90346184603B05DF804FB7C
:102B0000A0F1BC00FFF7EEBF00B583B00190019BC0
:102B1000D4334FF0FF31184602F03AFC00BF03B047
:102B20005DF804FBA0F1BC00FFF7EEBF00B583B079
:102B30000190019BD433184602F042FC00BF03B061
:102B40005DF804FBA0F1BC00FFF7F0BF82B001907C
:102B5000019B184602B0704730B58BB003900193CB
:102B60000B46ADF80A301346ADF80830039800F074
:102B700097F9374A039B1A60039B0433039918465D
:102B800000F09AF9039B002283F82820039B00227F
:102B900083F82920039B2C3300211846FFF756FCAD
:102BA000039B3C3300211846FFF750FC039B4C333A
:102BB0004C22002118460DF009FC039B9833012498
:102BC0001D46002C06DB00212846FFF731FA1035A0
:102BD000013CF6E7039B019AC3F8B8200023099350
:102BE000099B012B16D8099B1B019833039AD41813
:102BF00005AB00211846FFF71BFA05AB1946204626
:102C0000FFF775FB05AB1846FFF729FA099B01335F
:102C10000993E5E7039B4C33BDF90820BDF90A1081
:102C200018460BF07DF9039B03F14C02039BD3F88C
:102C3000B830194610460BF0F5FA039B4C33039A53
:102C4000044918460AF066F8039B18460BB030BDDD
:102C5000C4670108652D000800B585B00190019B8F
:102C60001B681B6801989847019B4C3318460BF072
:102C700047FB0390019B1B6804331B68019898472E
:102C8000039B184605B05DF804FB10B588B00390AF
:102C9000029113468DF80730039B1B681B6803984D
:102CA000984701F0B5FB0298FFF754FB0346002B51
:102CB00023D09DF807301B019833039A134418461C
:102CC000FFF748FB034683F00103DBB2002B01D082
:102CD00000F02EFB9DF807301B019833039A134434
:102CE00002991846FFF703FB039B4C339DF807102E
:102CF000012218460AF024F829E09DF807301B014C
:102D00009833039A13441846FFF724FB0346002B1D
:102D100001D000F027FB9DF807301B019833039A80
:102D2000D41804AB00211846FFF782F904AB19460A
:102D30002046FFF7DCFA04AB1846FFF790F9039B37
:102D40004C339DF807100022184609F0F9FF01F0F6
:102D5000ABFB039B1B6804331B680398984700BFB9
:102D600008B010BD00B585B001900B468DF803305A
:102D7000019B03939DF803301B019833039A13447E
:102D80001846FFF7E7FA0346002B08D09DF80330FA
:102D90001B019833039A13441846FFF7B1FB00BF99
:102DA00005B05DF804FB00B583B00190019B4C3386
:102DB00018460AF079F80346184603B05DF804FB9C
:102DC00000B583B001900091019B4C3300991846E7
:102DD0000AF088F8009B184603B05DF804FB82B047
:102DE000019000BF02B0704782B0019000BF02B0F6
:102DF0007047000010B588B00190214A019B1A600D
:102E000000230793079B012B13DC03AB002118461B
:102E1000FFF70EF9079BDAB203AB19460198FFF7EB
:102E200034FF03AB1846FFF71AF9079B01330793EA
:102E3000E8E7019B9833002B0CD0019B983303F1FA
:102E40002004019B98339C4204D0103C2046FFF79D
:102E500006F9F6E7019B3C331846FFF71DF9019B85
:102E60002C331846FFF718F9019B0433184600F07D
:102E700038F8019800F01AF8019B184608B010BD08
:102E8000C467010800B583B001900198FFF7B2FF55
:102E9000019802F03BF9019B184603B05DF804FB72
:102EA00082B00190019B184602B0704782B0019039
:102EB000019B184602B0704700B587B0039002919D
:102EC00000230493002305930023009304AB0CCB51
:102ED0000299039800F00CF8039B184607B05DF8C0
:102EE00004FB82B00190019B184602B070470000BD
:102EF00084B003900291694681E80C00039B04337F
:102F00006A4692E8030083E80300039B0D4ADA60F7
:102F1000039B48F207021A61049A039B9A61029A82
:102F2000039B5A61039B04331A46039BDA61064AEA
:102F3000039B1A62BFF36F8FBFF34F8F00BF04B0C4
:102F4000704700BF01A090E84D2F000800B585B084
:102F5000039002910192039B002B25D0019B1B68DB
:102F6000002B05D1019B5B6803F00103002B1BD0F4
:102F7000019B5B685B101A46039B9818019B5B687A
:102F800003F00103002B02D1019B1B680AE0019BA7
:102F90005B685B101A46039B13441B68019A126816
:102FA00013441B680299984700BF05B05DF804FB05
:102FB00000B583B00190054A019B1A60019800F0AA
:102FC00045F8019B184603B05DF804FB246901082D
:102FD00000B583B001900198FFF7EAFF019802F075
:102FE00095F8019B184603B05DF804FB00B583B06B
:102FF0000190019B1B6810331B680122002101987E
:1030000098470346184603B05DF804FB00B583B04B
:103010000190019B1B6810331B680022002101985E
:10302000984700BF03B05DF804FB000000B583B013
:103030000190019800F010F8034A019B1A60019B6F
:10304000184603B05DF804FB2469010882B00190C2
:10305000019B184602B0704782B00190019B184650
:1030600002B0704700B583B001900091019B012B25
:103070000BD1009B4FF6FF72934206D105480DF02D
:103080003FFF03461A46044B1A6000BF03B05DF8C9
:1030900004FB00BFD4670108E41D002008B54FF60B
:1030A000FF710120FFF7DEFF08BD82B001900091A3
:1030B000009B002B05D0019B9B68019A12681A6047
:1030C00005E0019B1A68019BDB6812041A6000BFCF
:1030D00002B0704700B583B001900B46ADF80230E6
:1030E00013468DF80130BDF90230194601980AF0F7
:1030F000A1F9BDF90230B3F1FF3F09D000210198D9
:103100000AF0F1F99DF80130194601980AF0D8F952
:1031100000BF03B05DF804FB00B585B003900193D8
:103120000B46ADF80A3013468DF80930BDF90A3068
:10313000194603980AF07EF9BDF90A30B3F1FF3F52
:103140000DD001990398FFF7B0FF012103980AF011
:10315000CAF99DF80930194603980AF0B1F900BF81
:1031600005B05DF804FB00B583B001900B46ADF8E7
:103170000230BDF9023000221946019800F004F82F
:1031800000BF03B05DF804FB00B583B001900B46AF
:10319000ADF8023013468DF801309DF80120BDF9DD
:1031A000023019460198FFF795FF00BF03B05DF8A4
:1031B00004FB00B583B001900B46ADF80230BDF9B9
:1031C000023000221946019800F004F800BF03B055
:1031D0005DF804FB00B585B003900B460192ADF895
:1031E0000A30BDF90A10019B00220398FFF794FFF3
:1031F00000BF05B05DF804FB00B583B00346009145
:10320000ADF80630BDF90630B3F1FF3F23D018E02A
:10321000009BB3F90030BDF906209A420ED1009B05
:103220009A68BDF90630114618460AF0E5FBBDF96B
:103230000630002118460AF06DFC0DE0009B0C33AF
:103240000093009BB3F90030B3F1FF3FE0D1044895
:1032500001F0A4F900E000BF03B05DF804FB00BF7B
:103260000068010800B583B001900091019A009BAD
:103270009A4201D1019B10E0019BB3F1FF3F01D1C4
:10328000009B0AE0009BB3F1FF3F01D1019B04E0EA
:10329000044801F083F94FF0FF33184603B05DF89E
:1032A00004FB00BF1468010882B003460091ADF82A
:1032B00006300CE0009BB3F90030BDF906209A42BD
:1032C00002D1009B5B680AE0009B0C330093009BDB
:1032D000B3F90030B3F1FF3FECD14FF0FF331846A4
:1032E00002B0704700B585B003460091ADF80630D6
:1032F0004FF0FF330393BDF90630B3F1FF3F02D126
:103300004FF0FF330EE0BDF9063000991846FFF785
:10331000CBFF0390039BB3F1FF3F02D1034801F0C1
:103320003DF9039B184605B05DF804FB28680108C9
:1033300008B501F06DF8094B1B884FF6FF729342F8
:1033400004D101F0B1F8064801F028F90121034841
:1033500001F0EEF801F0A8F800BF08BDE81D00205C
:103360006868010808B501F053F8084B1B88002B6A
:1033700004D101F099F8064801F010F90121034841
:1033800001F0F1F801F090F800BF08BDE81D002041
:103390009868010808B501F03BF80AF0F7FF01F062
:1033A00083F800BF08BD00002DE9F04989B0019005
:1033B000019B5B6893F83830002B40F0C980019B7B
:1033C0001B681B689847019B1B689B699847059081
:1033D000059B1B680793059B1B68002B06D12922C0
:1033E0005D495E4800F04AFF5D4B0793059B5B68B3
:1033F0000693059B5B68202B03D8059B5B68032B1A
:1034000006D82F225449554800F038FF2023069350
:10341000069B043B072202FA03F30493049B1F4616
:103420004FF000083B4644464FF000014FF00002C9
:10343000620142EAD36259010B461446DB1B64EB7E
:1034400008044FF000014FF00002620242EAD3523A
:1034500059020B461446DB1944EB08044FF0000BED
:103460004FF0000C4FEA841C4CEA936C4FEA831B2C
:10347000BBEB030B6CEB040C1BEB07014CEB0802E2
:10348000079B1F464FF000087B1848EB020413F11E
:10349000FF3044F1FF31079B4FF000041A462346EA
:1034A00012F098FD03460C46CDE90234019B5B689F
:1034B00000221A60019B5B6800225A60019B1B6816
:1034C0005B68019A5468984703462362019B5A68D7
:1034D0004FF000034FF00004C2E90A34019B5B681F
:1034E000079A9A604FF001034FF00004069AA2F188
:1034F0002000C2F1200104FA02F603FA00F00643AC
:1035000023FA01F10E4303FA02F52A46019B5B6898
:10351000013ADA60019B5B68049A1A61019B5A6860
:10352000DDE90234C2E90634019B5A684FF000031A
:103530004FF00004C2E90C34019B5B68012283F860
:103540003820019800F00EF8019800F0EFF900E043
:1035500000BF09B0BDE8F089C0680108E46801084F
:1035600040420F002DE970488DB00190019B5B68CF
:103570000993019B1B685B6898470890019B5B68F7
:103580001B6A089A9A4200F02181099B1B6A089ADB
:10359000D21A099BDB6813404FF00004CDE90634D2
:1035A000099B089A1A62099B9B688A4A934204D134
:1035B000DDE90634CDE90A34FCE0099B9B68B3F5EC
:1035C000004F78D1DDE906562B4634464FF0000116
:1035D0004FF00002620142EAD36259010B461446E1
:1035E0005B1B64EB06044FF000014FF00002620227
:1035F00042EAD35259020B4614465B1944EB0604C7
:103600004FF000014FF00002A20142EA93629901DB
:10361000C91A62EB04024B1942EB0604CDE90234ED
:10362000DDE902124FF000034FF00004CB0B43EA38
:103630004243D40BCDE90A34099BD3E90A56DDE9AC
:103640000A124FF000034FF00004D40344EA51443F
:10365000CB03DDE90212C91A62EB04028B469446E1
:103660001BEB05034CEB0604099AC2E90A34099BDB
:10367000D3E90A12099B9B684FF00004A24208BFDD
:103680009942C0F09780DDE90A34591C44F10002E8
:10369000CDE90A12099BD3E90A12099B9B681D46D2
:1036A0004FF000060B4614465B1B64EB0604099AB8
:1036B000C2E90A347EE0DDE906562B4634464FF077
:1036C00000014FF00002620142EAD36259010B4649
:1036D00014465B1B64EB06044FF000014FF0000240
:1036E000620242EAD35259020B4614465B1944EB7C
:1036F00006044FF000014FF00002A20142EA93627B
:103700009901C91A62EB04024B1942EB0604CDE998
:103710000434099B9B684FF000041A462346DDE9F8
:10372000040112F057FC03460C46CDE90A34099B0C
:10373000D3E90A12099B9B684FF000040A9804FB26
:1037400000F50B9803FB00F028440A9DA5FB033409
:1037500020440446DDE90456ED1A66EB0406AB4648
:10376000B4461BEB01034CEB0204099AC2E90A348C
:10377000099BD3E90A12099B9B684FF00004A242FF
:1037800008BF994216D3DDE90A34591C44F10002FE
:10379000CDE90A12099BD3E90A12099B9B681D46D1
:1037A0004FF000060B4614465B1B64EB0604099AB7
:1037B000C2E90A34099BD3E90C12DDE90A345D1829
:1037C00044EB0206099AC2E90C5600E000BF0DB0B6
:1037D000BDE8708840420F002DE9104889B0039081
:1037E000CDE90023039B5B680693069BD3E90CBCE1
:1037F000DDE900120B461446B3EB0B0364EB0C043B
:10380000CDE90434039B5B681B690793039B5B68EA
:10381000D3E90612DDE90434A24208BF994255D328
:10382000069B9B682F4A93420CD1049B0793039BF2
:103830005B681B69079A9A4248D9039B5B681B69BE
:10384000079343E0069B9B68B3F5004F1CD1DDE96D
:1038500004344FF000004FF00001E10341EA53410E
:10386000D803204A4FF0000312F0B4FB03460C4685
:103870000793039B5B681B69079A9A4226D9039BAF
:103880005B681B69079321E0069B9B684FF000046F
:10389000049A04FB02F1059A03FB02F20A4404991C
:1038A000A1FB0301531819460E4A4FF0000312F012
:1038B00091FB03460C460793039B5B681B69079AC1
:1038C0009A4203D9039B5B681B690793069B1A6A9C
:1038D000079B1A44069BDB681340184609B0BDE8F5
:1038E000108800BF40420F0084B003900291019203
:1038F000019A039B9A420BD9029A019B9A4203D2E6
:10390000029A039B9A4201D201230CE000230AE0B1
:10391000029A039B9A4205D2029A019B9A4201D3D2
:10392000012300E00023184604B0704710B58AB0A8
:103930000190019B5B6809930198FFF713FE019BBF
:103940005B685B68002B38D0019B5B68D3E90C3463
:10395000CDE90634019B5B685B68D3E90034CDE9AF
:103960000434DDE90434DDE90612A24208BF9942BD
:1039700004D3019B1B685B6998472CE0DDE90423B5
:103980000198FFF729FF0390019B1B681B690398AF
:103990009847019B1B685B6898470290099B1B6ACC
:1039A000039A02991846FFF79FFF0346002B12D097
:1039B000019B1B685B6998470DE0099B1A6A099B8C
:1039C0001B691A44099BDB6813400893019B1B6821
:1039D0001B69089898470AB010BD10B584B00190D3
:1039E000019B1B68DB689847019B5B685B68002B49
:1039F00027D00198FFF7B6FD019B5B685B68D3E9B0
:103A00000034019A5268D2E90C12A24208BF9942CE
:103A100019D3019B5B685B680393019B5B685A68E1
:103A2000019B5B68D2685A60019B5B681B68002B36
:103A3000DAD0019B5B681B68039A9268104698472E
:103A4000D2E700BF00E000BF0198FFF76FFF00BFA3
:103A500004B010BD10B582B00190019800F005F8D7
:103A600003460C46184602B010BD10B582B0019056
:103A70000198FFF799FC0198FFF774FD019B5B68C3
:103A8000D3E90C341846214602B010BD014B18464C
:103A9000704700BF0469010808B5054B1B68002B7F
:103AA00003D0034B1B680348984700BF08BD00BF05
:103AB000CC0100200469010800B585B00390029193
:103AC00013468DF80730039800F0E9F8174A039B76
:103AD0001A60039B00225A60039B029A9A60039B20
:103AE0009DF807201A731248FEF770FC03464FF04A
:103AF000FF31184601F04CFC029B002B07D00D4B08
:103B00001A68039B5A600B4A039B136002E0039BF5
:103B100000225A600648FEF759FC0346184601F099
:103B20004FFC039B184605B05DF804FB14690108BF
:103B3000341E0020301E002000B585B00190244ABC
:103B4000019B1A602348FEF741FC03464FF0FF310A
:103B5000184601F01DFC019B9B68002B19D01E4BE1
:103B60001B68019A9A4204D1019B5B681A4A136050
:103B70000FE0194B1B680393039B5B68019A9A4201
:103B800003D0039B5B680393F6E7019B5A68039B92
:103B90005A601048FEF71AFC0346184601F010FC64
:103BA000019800F075F80346002B0CBF0123002399
:103BB000DBB2002B04D0019B043B184600F0CCFE86
:103BC000019800F072F8019B184605B05DF804FBFF
:103BD00014690108341E0020301E002000B583B097
:103BE00001900198FFF7A8FF019801F08FFA019B5F
:103BF000184603B05DF804FB00B585B00190009154
:103C00002148FEF7E3FB03464FF0FF31184601F071
:103C1000BFFB1E4B1B680393039B002B28D0039B09
:103C20009B68002B14D0039B9B68009A019918464F
:103C30000DF0D4F90346002B0AD1039B9B6818466C
:103C40000DF05EF90246009B934201D1012300E092
:103C50000023002B08D00C48FEF7B8FB034618469B
:103C600001F0AEFB039B0BE0039B5B680393D3E780
:103C70000548FEF7ABFB0346184601F0A1FB002305
:103C8000184605B05DF804FB341E0020301E0020ED
:103C900082B00190019B1B7B184602B0704782B036
:103CA0000190019B184602B0704782B00190019BC1
:103CB000184602B0704782B001900023184602B047
:103CC000704782B001900023184602B0704700B5DB
:103CD00085B00190019B1B6810331B6801220021F5
:103CE000019898470390039B002B01DA039B11E096
:103CF000019B1B6810331B68022200210198984722
:103D00000290019B1B6810331B68002203990198E5
:103D10009847029B184605B05DF804FB00B583B0D8
:103D2000019000910099019801F08FF9034618461F
:103D300003B05DF804FB00B587B001900091019BD2
:103D400000221A60019B00225A60009B1B782F2BD7
:103D500031D1009B01331B78002B2CD0009B013309
:103D60000493019B049A1A6000230593019B1B682E
:103D70001B788DF80F309DF80F302F2B05D1019B4C
:103D80001B685A1C019B1A600DE09DF80F30002B38
:103D900008D0059B01330593019B1B685A1C019BAE
:103DA0001A60E3E700BF059B19460498FFF724FF5C
:103DB0000246019B5A60019B184607B05DF804FB60
:103DC00082B00190019B1B68184602B0704700B595
:103DD00083B00190019B5B68002B01D100230AE0B6
:103DE000019B5B681846FFF753FF0346012B0CBF8E
:103DF00001230023DBB2184603B05DF804FB00B5D5
:103E000083B001900198FFF7E2FF0346002B09D031
:103E1000019B5B68002B03D0019B5B68043B02E0C5
:103E2000002300E00023184603B05DF804FB00B552
:103E300083B00190019B5B68002B01D100230AE055
:103E4000019B5B681846FFF723FF0346002B0CBF5E
:103E500001230023DBB2184603B05DF804FB00B574
:103E600083B001900198FFF7E2FF0346002B09D0D1
:103E7000019B5B68002B03D0019B5B68043B02E065
:103E8000002300E00023184603B05DF804FB82B075
:103E90000190019B5B68002B14BF01230023DBB260
:103EA000184602B07047000000B583B00190009141
:103EB000019B1846FFF7BAF8019B043300220099D2
:103EC0001846FFF7F9FD019800F080F9054A019BBB
:103ED0001A60054A019B5A60019B184603B05DF8C1
:103EE00004FB00BF006A01084C6A010800B583B0FA
:103EF00001900B4A019B1A600A4A019B5A60019883
:103F000000F06AF9019B04331846FFF715FE019B88
:103F10001846FFF74DF8019B184603B05DF804FB07
:103F2000006A01084C6A0108A0F10400DEE700BF46
:103F300000B583B001900198FFF7D8FF019801F018
:103F4000E5F8019B184603B05DF804FBA0F10400FE
:103F5000EEE782B0019000BF02B0704782B00190DE
:103F600000BF02B07047000000B583B0019000911F
:103F7000019B00991846FFF797FF019800F032F96E
:103F8000134A019B1A60134A019B5A60019B00224D
:103F90005A61019B10491846FFF7C0FE0246019B7B
:103FA0005A61019B5B69002B05D0019B5B69184638
:103FB00001F040F807E00AF08DFD03461B68194642
:103FC000064800F0EBFA019B184603B05DF804FBCD
:103FD00094690108F0690108686901086C690108C1
:103FE00000B583B001900B4A019B1A600A4A019BFD
:103FF0005A60019B5B6918460AF0DAFD019800F0EF
:10400000F7F8019B1846FFF771FF019B184603B0B4
:104010005DF804FB94690108F069010800B585B0FA
:1040200001900091019B1B684C331B6801989847D5
:10403000019B5B6918460AF09BFE019B5B69194670
:1040400000980BF013F80390019B1B6850331B681A
:1040500001989847039B184605B05DF804FB00B52E
:1040600085B00190019B1B684C331B6801989847F1
:10407000019B5B6918460AF07BFE019B5B69184651
:1040800001F011F80390019B1B6850331B680198E5
:104090009847039B184605B05DF804FB82B0019079
:1040A0000023184602B0704700B587B00390029114
:1040B0000192029B0593059A019B13440493039B71
:1040C0001B684C331B6803989847059A049B9A42D7
:1040D00015D0039B1B6844331A68059B591C059136
:1040E0001B781946039890470346B3F1FF3F0CBF76
:1040F00001230023DBB2002B00D1E6E700BF039BC6
:104100001B6850331B6803989847059A029BD31A83
:10411000184607B05DF804FB00B589B00390029122
:104120000192029B0793079A019B13440693039BFA
:104130001B684C331B6803989847079A069B9A4262
:1041400012D0039B1B6848331B680398984705905F
:10415000059BB3F1FF3F06D0079B5A1C0792059AB7
:10416000D2B21A70E9E700BF039B1B6850331B688B
:1041700003989847079A029BD31A184609B05DF82E
:1041800004FB84B00390029101920023184604B00E
:10419000704782B001900023184602B0704782B089
:1041A000019000BF02B0704782B001900023184612
:1041B00002B0704782B001900023184602B07047E9
:1041C00082B001900023184602B0704782B001907F
:1041D000019B184602B0704782B00190019B1846BF
:1041E00002B0704782B00190019B184602B0704740
:1041F00082B00190019B184602B0704700B585B0AF
:104200000190009100230393009901980BF0D0FCDA
:104210000390039B184605B05DF804FB00B587B01A
:1042200003900291019200230593019A0299039849
:104230000CF078F90590059B184607B05DF804FB73
:1042400000B583B001900091009901980AF08AFFAF
:1042500000BF03B05DF804FB00B587B00390029186
:10426000019200230593019A029903980AF0FEFB3C
:104270000590059B184607B05DF804FB00B585B0B6
:1042800003900291019200F0C3F8019B029A0399F6
:10429000044800F05CF800F01CF800BF05B05DF8C1
:1042A00004FB00BF546A010882B001900091009B9A
:1042B000002B05D0019B9B68019A12681A6005E0EB
:1042C000019B1A68019BDB6812041A6000BF02B0F0
:1042D000704700B58BB000F09BF801AB0521184684
:1042E000FEF767FF0023099312E001AB0121184696
:1042F000FFF7DAFF962000F0B3FF01AB002118466C
:10430000FFF7D2FF962000F0ABFF099B0133099322
:10431000099B032BE9DD0023089314E001AB012185
:104320001846FFF7C1FF4FF4C87000F099FF01ABCA
:1043300000211846FFF7B8FF4FF4C87000F090FF57
:10434000089B01330893089B032BE7DDCAE70FB4F2
:1043500000B583B005AB01930199049800F006F80D
:1043600000BF03B05DF804EB04B0704700B5A5B022
:104370000190009100F04CF802A8009B019A802166
:104380000FF006FC2290229B002B1ADD104B1B68BD
:10439000002B04D1032202210E4809F0C1FD0023A5
:1043A00023930AE002AA239B13441B781946094869
:1043B00008F098FD239B01332393239A229B9A4272
:1043C000F0DB00F071F800BF25B05DF804FB00BF22
:1043D000702600203039002082B0EFF31083019363
:1043E000019B03F00103002B0CBF01230023DBB270
:1043F000184602B0704782B0EFF305830193019B2A
:10440000002B14BF01230023DBB2184602B0704713
:1044100000B583B0FFF7E0FF0346002B14BF012374
:104420000023DBB283F00103DBB28DF807309DF887
:10443000073003F001038DF8073072B6154B1B6887
:10444000002B03D1144A9DF807301370114B1B68E1
:10445000B3F1FF3F04D1432210491148FFF70EFF8B
:104460000C4B1B68002B0BD09DF8073083F0010329
:10447000DBB2002B04D0472208490A48FFF7FEFEB2
:10448000044B1B680133034A136000BF03B05DF89F
:1044900004FB00BF5C1E0020601E0020886A01082B
:1044A000AC6A0108D46A010800B583B01C4B1B68D4
:1044B000002B30D0FFF790FF0346002B14BF0123E1
:1044C0000023DBB283F00103DBB28DF807309DF8E7
:1044D000073003F001038DF807309DF8073083F0B3
:1044E0000103DBB2002B04D058220E490E48FFF71F
:1044F000C5FE0B4B1B68013B094A1360084B1B6848
:10450000002B08D1094B1B78DBB283F00103DBB22F
:10451000002B00D062B600BF03B05DF804FB00BF03
:104520005C1E0020886A0108D46A0108601E002011
:1045300000B585B001900B46ADF80230FFF768FF7B
:10454000019B1A88BDF802301344ADF80E30019B70
:10455000BDF80E201A80FFF7A7FFBDF80E301846F1
:1045600005B05DF804FB00B585B001900B46ADF8D1
:104570000230FFF74DFF019B1A88BDF80230D31AB5
:10458000ADF80E30019BBDF80E201A80FFF78CFFAE
:10459000BDF80E30184605B05DF804FB0FB400B549
:1045A00083B00B4B1B78002B0BD1094B01221A70E7
:1045B00005AB019301990498FFF7D8FE012000F0A4
:1045C00029FD00BF03B05DF804EB04B0704700BFE5
:1045D000611E002082B00190019B03F00303002BB9
:1045E0000CBF01230023DBB2184602B07047000065
:1045F00010B584B00190019B5B69452B03DD019BE5
:104600005B698A2B04DD4FF0FF334FF0FF345CE031
:10461000019B1B680393019B5A6813461B019B1A5D
:104620009B001A46039B13440393019B9B684FF422
:10463000616202FB03F31A46039B13440393019B3D
:10464000DB68013B234A02FB03F31A46039B134436
:104650000393019B5B691846FFF7BCFF03461846AE
:10466000019B1A691C4903465B0003449B001344E9
:1046700051F82330039A13440393019B5B69462B43
:1046800018DD019B5B69013B002B00DA03339B10B3
:10469000113B0293019B5B69463B40F26D1202FBAA
:1046A00003F31A46029B13440A4A02FB03F3039ADC
:1046B00013440393039B002B04DA4FF0FF334FF0B6
:1046C000FF3402E0039B4FF000041846214604B07B
:1046D00010BD00BF80510100E86A01082DE91048B3
:1046E00087B0CDE902010192029B002B01DA002381
:1046F00029E1DDE902014FF03C024FF0000311F027
:1047000019FC1C4613461A46019B1A60DDE902019A
:104710004FF03C024FF0000311F00CFC03460C4636
:10472000CDE90234DDE902014FF03C024FF0000315
:1047300011F000FC1C4613461A46019B5A60DDE945
:1047400002014FF03C024FF0000311F0F3FB03466F
:104750000C46CDE90234DDE902014FF018024FF0BA
:10476000000311F0E7FB1C4613461A46019B9A60B2
:10477000DDE902014FF018024FF0000311F0DAFBFF
:1047800003460C46CDE90234DDE90234181D44F13C
:1047900000014FF007024FF0000311F0CBFB1C4665
:1047A00013461A46019B9A61019B46225A61019B5E
:1047B0005B691846FFF70EFF0346002B17D0DDE9B3
:1047C000023440F26D114FF00002994272EB040383
:1047D0000DDA019B5B695A1C019B5A61DDE90234C9
:1047E000B3F5B77144F1FF32CDE9021225E0019B28
:1047F0005B691846FFF7EEFE034683F00103DBB268
:10480000002B1BD0DDE902344FF4B6714FF00002EB
:10481000994272EB040311DA019B5B695A1C019BFC
:104820005A61DDE902346FF4B6714FF0FF3213EBD9
:10483000010B44EB020CCDE902BCB8E7029A019BE4
:10484000DA61DDE902128B4694461BEB0B034CEB5D
:104850000C049B46A4461BEB010B4CEB020C4FF0E7
:1048600000014FF000024FEA0C1242EA1B724FEABD
:104870000B11B1EB0B0162EB0C024FF000034FF098
:104880000004140144EA11740B015B1A64EB020486
:104890004FF000014FF00002E20142EA5362D901F9
:1048A0000B461446CDE90234019B0B221A61019B91
:1048B0005B691846FFF78EFE03468DF81330002320
:1048C000059316E002999DF81320214813465B00DA
:1048D00013449B00059A134450F82330994205D2A3
:1048E000059B013B1A46019B1A6105E0059B0133BC
:1048F0000593059B0B2BE5D99DF81320019B1969A6
:10490000134813465B0013449B000B4450F82330BC
:104910009B464FF0000CDDE902120B461446B3EB48
:104920000B0364EB0C04CDE90234DDE90201094A12
:104930004FF0000311F0FEFA03460C4601331A460D
:10494000019BDA600123184607B0BDE8108800BF5C
:10495000E86A01088051010000B585B00190144853
:10496000FDF734FD03464FF0FF31184600F010FD0F
:1049700000230393039B3F2B0FD80E4A039B52F84F
:104980002330019A9A4204D10A4A039B002142F83B
:104990002310039B01330393ECE70548FDF716FD55
:1049A0000346184600F00CFD00BF05B05DF804FB9F
:1049B0006C1F00206C1E002008B5084B1B68002BE4
:1049C0000AD103220221064809F0AAFA4FF416512F
:1049D000034809F027FC00E000BF08BD7026002056
:1049E0003039002000B583B0019000910AF072F8D0
:1049F0000246019B5B421360054A009B002142F87E
:104A000023104FF0FF33184603B05DF804FB00BFDE
:104A10006C1E002084B00190019B0393039B23F440
:104A200000430393039B184604B0704710B58AB047
:104A300001900091674901980CF0F6F80346002BAD
:104A40000CBF01230023DBB2002B03D0FFF7B4FF20
:104A50000023BCE0604901980CF0E6F80346002B07
:104A60000CBF01230023DBB2002B03D0FFF7A4FF10
:104A70000123ACE0594901980CF0D6F80346002B0D
:104A80000CBF01230023DBB2002B03D0FFF794FF00
:104A900002239CE05248FDF799FC03464FF0FF319A
:104AA000184600F075FC00230993099B3F2B0AD898
:104AB0004C4A099B52F82330002B03D0099B013349
:104AC0000993F2E700BF099B3F2B0ED90AF002F8C9
:104AD0000246182313604248FDF778FC0346184647
:104AE00000F06EFC4FF0FF3371E03E4A099B4FF03F
:104AF000FF3142F823103A48FDF768FC0346184698
:104B000000F05EFC00230593019B1B783A2B09D132
:104B1000019B591C04AB042218460BF059FB049B63
:104B200005934DE002AB01991846FFF704F902AB7B
:104B30001846FFF7ACF9034683F00103DBB2002B04
:104B400006D009996FF01200FFF74CFF03463EE0D4
:104B500002AB1846FFF76BF90346002B06D002ABF9
:104B60001846FFF77CF90346059329E002AB184687
:104B7000FFF745F90890089B002B06D109996FF0C3
:104B80001200FFF72FFF034621E00098FFF742FFD6
:104B90000790089B1B6808331C6802AB1846FFF798
:104BA0000FF9024605A9079B0898A0470690069BA7
:104BB000002B05D009990698FFF714FF034606E07D
:104BC000059A0849099B41F82320099B033318469D
:104BD0000AB010BD486B0108506B0108586B010802
:104BE0006C1F00206C1E002000B585B00190019B59
:104BF000022B01DC00232AE0019B033B164A52F8FA
:104C000023300393019B033B134A002142F82310F6
:104C1000039B002B07D109F05DFF024609231360B7
:104C20004FF0FF3313E0039B1B6814331B6803989A
:104C300098470290029B002B08DA09F04BFF0246CE
:104C4000029B5B4213604FF0FF3300E000231846E5
:104C500005B05DF804FB00BF6C1E002000B589B0F4
:104C60000390029101920093FFF7C5FB0346002BCE
:104C700007D1FFF7B1FB034683F00103DBB2002B42
:104C800001D0012300E00023002B02D02448FFF7CD
:104C900085FC039B022B1ADC224B1B68002B01D1E5
:104CA000FFF78AFE00230693069A019B9A420BD2D5
:104CB000029A069B13441B7819461B4808F012F908
:104CC000069B01330693EFE7019B079322E0039BCA
:104CD000033B164A52F823300593059B002B07D15E
:104CE00009F0F8FE0246092313604FF0FF3312E08B
:104CF000059B1B680C331B68019A0299059898471D
:104D00000790079B002B05DA09F0E4FE0246079B9B
:104D10005B421360079B184609B05DF804FB00BFB7
:104D2000606B010870260020303900206C1E0020C6
:104D300000B587B00390029101920093FFF75BFBEF
:104D40000346002B07D1FFF747FB034683F001031F
:104D5000DBB2002B01D0012300E00023002B02D0A6
:104D60001E48FFF71BFC039B022B0FDC1C4B1B6830
:104D7000002B01D1FFF720FE1A4808F095F80346F2
:104D8000DAB2029B1A700123059322E0039B033BD6
:104D9000154A52F823300493049B002B07D109F0E5
:104DA00099FE0246092313604FF0FF3312E0049B83
:104DB0001B6808331B68019A02990498984705906C
:104DC000059B002B05DA09F085FE0246059B5B4238
:104DD0001360059B184607B05DF804FB9C6B010847
:104DE00070260020303900206C1E002000B585B0F0
:104DF0000190019B022B01DC012322E0019B033B7C
:104E0000124A52F823300393039B002B06D109F07A
:104E100061FE024609231360002312E0039B1B6816
:104E20001C331B68039898470290029B002B07DAFB
:104E300009F050FE0246029B5B421360002300E033
:104E4000029B184605B05DF804FB00BF6C1E0020F5
:104E500000B587B0039002910192039B022B07DCFF
:104E600009F038FE02461D2313604FF0FF3326E0A1
:104E7000039B033B144A52F823300593059B002BF8
:104E800007D109F027FE0246092313604FF0FF33D4
:104E900015E0059B1B6810331B68019A0299059861
:104EA00098470490049B002B08DA09F013FE024691
:104EB000049B5B4213604FF0FF3300E0049B1846F5
:104EC00007B05DF804FB00BF6C1E002000B585B084
:104ED00001900091019B022B05DC009B4FF40052D6
:104EE0005A6000232AE0019B033B164A52F8233004
:104EF0000393039B002B07D109F0ECFD0246092325
:104F000013604FF0FF3319E0039B1B681C331B68D1
:104F1000039898470346002B02D04FF4005201E05B
:104F20004FF40042009B5A60039B1B6828331B68A8
:104F3000039898470246009B1A610023184605B063
:104F40005DF804FB6C1E002008B5012000F062F83B
:104F500010B485B001901B4B1B680393194B1A6862
:104F6000019B13440293EFF308831C4623461A4621
:104F7000029B93422CBF01230023DBB2002B05D000
:104F8000114B0C221A604FF0FF3315E00F4B1B68DA
:104F9000002B0DD00E4B1A680C4B1B681344029A61
:104FA0009A4205D3084B0C221A604FF0FF3303E0FE
:104FB000044A029B1360039B184605B05DF8044B3E
:104FC000704700BFD0010020DC390020681E00209F
:104FD000641E002000B583B00190094B1B689B68DC
:104FE000184609F0C5FE064B1B68DB68184609F039
:104FF000BFFE019B002B01D0FFF76BF9FEE700BF5E
:105000009002002084B0039002910192012318467F
:1050100004B0704700B583B001900198FFF7DAFF44
:1050200000BF03B05DF804FB82B001900123184675
:1050300002B0704700B583B00190002101980BF0D9
:10504000E1FC00BF03B05DF804FB00B587B0019040
:1050500000913A238DF80C3003AB013301A90422EF
:1050600018460BF0B5F803AB0099184609F0F6FFA7
:105070000590059B002B0BD0019A019B1B681C33EC
:105080001B68104698470346002B01D0012300E01F
:105090000023002B02D00598FFF7CCFF059B184694
:1050A00007B05DF804FB00B583B00190019809F0EA
:1050B00071FE0346184603B05DF804FB00B583B0EB
:1050C0000190019800F014FB00BF03B05DF804FBF1
:1050D00000B583B00190019800F01AFB00BF03B047
:1050E0005DF804FB00B585B0019001980AF050FD11
:1050F0000390039B002B02D10348FFF74FFA039B59
:10510000184605B05DF804FB946C010800B583B047
:10511000019001980AF044FD00BF03B05DF804FB64
:1051200000B583B0019001980AF03AFD00BF03B0CA
:105130005DF804FB014B1846704700BFF06C010896
:1051400010B584B001902148FDF740F903464FF0B7
:10515000FF31184600F01CF91D4B1B68002B10D0C6
:105160001B4B1B6898470346002B0CBF01230023F1
:10517000DBB2002B05D04FF000004FF0000100F033
:105180002BF84FF0FF334FF0FF34CDE90234114BD1
:105190001B68002B04D00F4B1B689847CDE9020118
:1051A000019B002B04D0019ADDE90234C2E90034EE
:1051B0000648FDF70BF90346184600F001F9DDE952
:1051C00002341846214604B010BD00BF941F0020D1
:1051D000D8010020DC01002000B583B0CDE900013A
:1051E0001148FDF7F3F803464FF0FF31184600F081
:1051F000CFF80E4B1B68002B02D00C4B1B68984756
:105200000B4B1B68002B04D0094B1B68DDE9000128
:1052100098470548FDF7DAF80346184600F0D0F83D
:1052200000BF03B05DF804FB941F0020D4010020F0
:10523000E001002000B583B00190DDED017A9FED23
:10524000077A67EE877AFDEEE77A17EE900A00F0AC
:1052500017F800BF03B05DF804FB00BF00247449D9
:1052600000B583B00190019B4FF47A7202FB03F307
:10527000184600F005F800BF03B05DF804FB00001D
:1052800000B587B00190FEF701FC05900598FEF788
:10529000E1FB0490019B174A82FB03129211DB177A
:1052A000D31A0393039B002B06DDFFF795F8034603
:1052B000002B01D0012300E00023002B07D0FEF7D4
:1052C00037F8039B184604F071FAFEF74BF805987F
:1052D000FEF7C0FB0246049BD21A019B9A4234BFE0
:1052E00001230023DBB2002B00D0F0E700BF07B0A2
:1052F0005DF804FBD34D621000B583B001900198B6
:1053000000F080F8019B00221A620021019800F051
:1053100005F8019B184603B05DF804FB00B587B0A3
:1053200001900091019B04331C22002118460BF0D0
:105330004DF802AB00221A605A609A60DA60009B56
:10534000002B01D0009B00E00E4B0293019B043325
:1053500004931C2305930B23039302AB184602F01E
:105360009BFA0246019B1A60019B1B68002B04D12B
:10537000312205490548FEF781FF00BF07B05DF8FF
:1053800004FB00BFF86C0108146D0108306D0108C2
:1053900000B585B001900091019B1B6800991846EB
:1053A00002F0B8FA0390039B002B04D1019B1B6A07
:1053B0005A1C019B1A62039B184605B05DF804FB5A
:1053C00000B583B00190019B1B6A5A1E019B1A62B3
:1053D000019B1B68184602F0D1FA0346184603B039
:1053E0005DF804FB00B583B00190019B1B68184673
:1053F00002F0F4FA019800F00BF8019B184603B094
:105400005DF804FB82B00190019B184602B0704722
:1054100082B00190019B184602B0704700B583B07E
:1054200001900091019800F05CF84FF6FF7200992E
:10543000019800F005F8019B184603B05DF804FBE5
:1054400000B589B0039002911346ADF80630039B76
:1054500004331022002118460AF0B8FF04AB0022E2
:105460001A605A609A60DA60039B04330693102333
:105470000793BDF80630029904AA184602F0D8FC3A
:105480000246039B1A60039B1B68002B04D12B224E
:1054900003490448FEF7F2FE00BF09B05DF804FBC3
:1054A000346D0108546D010800B583B00190019B73
:1054B0001B68184602F004FD0346184603B05DF869
:1054C00004FB00B583B00190019B1B68184602F0F5
:1054D00023FD019800F00BF8019B184603B05DF81E
:1054E00004FB82B00190019B184602B0704782B065
:1054F0000190019B184602B07047000082B0134B28
:105500000193124BC3F1005303F500330093009B4A
:10551000B3F5806F28BF4FF480630D4A13600C4BC6
:105520001B68009AD31A019A13440A4A1360084B65
:105530001B68009AD31A0093074A009B1360074A1E
:10554000019B136000BF02B0704700BFE03900202C
:10555000C01F0020BC1F0020681E0020641E002009
:1055600084B0104B9B6802934FF0005301930023CB
:1055700003930CE0039B9B00029A1A44039B9B003D
:1055800001990B4412681A60039B01330393039B38
:10559000702BEFDD034B4FF000529A6000BF04B058
:1055A000704700BF00ED00E000BF704700B583B05A
:1055B000124B134A1A61114B4FF480525A610F4B30
:1055C0004822DA600D4B0F4A9A600C4B18229A6100
:1055D0000A4B0D4A1A60094A00210C4803F098FD55
:1055E0000190019B002B02D10948FEF7D7FF00F084
:1055F00043FE00BF03B05DF804FB00BF743700201A
:10560000F8260020A8260020606D01082556000815
:105610006C6D010808B5FFF7C7FFFCF763FC034694
:10562000184608BD08B51F4B1F4A1A601D4B0B22B8
:105630005A601C4B1C22DA601A4B1C4A9A601948AB
:1056400002F02AF902461A4B1A601A4B1A4A1A60DB
:10565000184B0B225A60174B1C22DA60154B174A65
:105660009A60144802F018F90246154B1A60154B5F
:10567000154A1A60134B0B225A60124B1C22DA6037
:10568000104B124A9A600F4802F006F90246104B7E
:105690001A600AF0CBF900210020FFF7BBFF00BF22
:1056A00008BD00BF64370020886D01082C3700203A
:1056B0002837002018370020986D0108483700204F
:1056C000F026002098370020A86D0108FC36002045
:1056D000F836002008B5FFF711FFFFF741FF08F08B
:1056E0003DF800F05FFDFFF761FF00BF08BD00005F
:1056F00000B583B00190054B1B684FF0FF31184691
:1057000002F008F900BF03B05DF804FBF0260020AA
:1057100000B583B00190044B1B68184602F02EF9C7
:1057200000BF03B05DF804FBF026002000B583B095
:10573000019000F00BF9FCE700B585B001900091F5
:1057400003F06EFD0390019B013B042B30D801A2B6
:1057500052F823F0695700087D5700088B5700085E
:1057600099570008A5570008009803F02FFD03463D
:10577000009A01991248FEF711FF1FE0009B039A5F
:1057800001991048FEF70AFF18E0009B039A01995F
:105790000D48FEF703FF11E0039A01990B48FEF74D
:1057A000FDFE0BE0039A01990948FEF7F7FE05E0BC
:1057B000039A01990748FEF7F1FE00BFFEE700BF1C
:1057C000B46D0108086E0108606E0108C86E01081A
:1057D000246F0108846F010882B00190019B063399
:1057E000052B1BD801A252F823F000BF195800085E
:1057F00015580008115800080D58000809580008ED
:1058000005580008074B0AE0074B08E0074B06E085
:10581000074B04E0074B02E0074B00E0074B18463C
:1058200002B07047C06F0108D86F01080C70010802
:1058300024700108347001084C7001086870010878
:1058400000B583B001900198FFF7C6FF03461A46E2
:1058500001990348FEF7A2FE00BF03B05DF804FB08
:105860007070010800B583B0019000910098FFF7B7
:10587000B3FF0346009A01990348FEF78FFE00BF6D
:1058800003B05DF804FB00BF8870010800B583B069
:10589000019000910098FFF79FFF0346009A01993D
:1058A0000348FEF77BFE00BF03B05DF804FB00BFBA
:1058B000D470010800B583B001900091009B13F1F2
:1058C000110F05D0009A01990348FEF767FE00E02A
:1058D00000BF03B05DF804FBEC70010800B583B0B5
:1058E00001900091009A01990348FEF757FE00BF0E
:1058F00003B05DF804FB00BF2071010800B583B060
:1059000003F08EFC0190019803F014FE00BF03B079
:105910005DF804FB00B583B00190019803F00AFE26
:1059200000BF03B05DF804FB08B5FDF733FD00BF11
:1059300008BD08B5FEF76CFDFDF7FAFCFFF7F4FFB4
:10594000FDF710FDFEF7B0FD00BF08BD08B5024B26
:105950001B689847FBE700BFE4010020EFF30980D4
:10596000816911F8021CB9BB01B590E80F10E0473E
:10597000BDE800508CE80300264B93E806009142F6
:1059800008BF704741B91EF0100F10D122490868B6
:1059900020F0010008600AE02CE9F00F1EF0100F63
:1059A00008BF2CED108AC1F838C081F822E002F05F
:1059B00041FF184B93E806001A6092F82210906B92
:1059C00061F0FF0E1EF0100F08BFB0EC108AB0E8B7
:1059D000F00F80F30988704710B5104A1368994298
:1059E00006D852F821400FC8A047EFF30984206081
:1059F00010BD10B502F0DAFBBDE81040EFF3098CE2
:105A0000BAE710B502F070FBBDE81040EFF3098C67
:105A1000B2E70000FC01002034EF00E0487201080A
:105A200000B583B00190019B002B01D1002304E05D
:105A30000199132002F086FF0023184603B05DF899
:105A400004FB000000B587B00190019800F09BF8BE
:105A5000EFF305830593059B002B0BD1EFF3108328
:105A60000493049B002B05D1EFF311830393039B55
:105A7000002B07D06FF005010020FFF7F3FE6FF059
:105A8000050307E0019B02930298044B9C4600DF4C
:105A9000034600BF184607B05DF804FB215A000812
:105AA00084B003900291019200BF04B0704784B0AB
:105AB000039002910192009300BF04B0704784B03C
:105AC00003900291019200BF04B0704784B003902C
:105AD00002910192009300BF04B0704782B0019020
